{
  "_format": "hh-sol-artifact-1",
  "contractName": "RejectEther",
  "sourceName": "contracts/mock/RejectEther.sol",
  "abi": [
    {
      "inputs": [
        {
          "internalType": "address",
          "name": "market",
          "type": "address"
        },
        {
          "internalType": "uint256",
          "name": "tokenId",
          "type": "uint256"
        }
      ],
      "name": "bidOn",
      "outputs": [],
      "stateMutability": "payable",
      "type": "function"
    },
    {
      "stateMutability": "payable",
      "type": "receive"
    }
  ],
  "bytecode": "0x608060405234801561001057600080fd5b5061015b806100206000396000f3fe6080604052600436106100225760003560e01c8063c9f845861461007857600080fd5b366100735760405162461bcd60e51b815260206004820152601760248201527f52656a65637445746865723a206e6f2072656365697665000000000000000000604482015260640160405180910390fd5b600080fd5b61008b6100863660046100ed565b61008d565b005b60405163454a2ab360e01b8152600481018290526001600160a01b0383169063454a2ab39034906024016000604051808303818588803b1580156100d057600080fd5b505af11580156100e4573d6000803e3d6000fd5b50505050505050565b6000806040838503121561010057600080fd5b82356001600160a01b038116811461011757600080fd5b94602093909301359350505056fea26469706673582212203f74a8995816664b481da999cd4e3fd6caaca8465ea1f0fb5a38bd5127ba72ab64736f6c63430008180033",
  "linkReferences": {},
  "deployedLinkReferences": {}
}