{
  "_format": "hh-sol-artifact-1",
  "contractName": "RejectEther",
  "sourceName": "contracts/mock/RejectEther.sol",
  "abi": [
    {
      "inputs": [
        {
          "internalType": "address",
          "name": "market",
          "type": "address"
        },
        {
          "internalType": "uint256",
          "name": "tokenId",
          "type": "uint256"
        }
      ],
      "name": "bidOn",
      "outputs": [],
      "stateMutability": "payable",
      "type": "function"
    },
    {
      "stateMutability": "payable",
      "type": "receive"
    }
  ],
  "bytecode": "0x608060405234801561001057600080fd5b506102fc806100206000396000f3fe6080604052600436106100225760003560e01c8063c9f845861461007b57610076565b366100765761003b670a38c36241c761f660c01b610097565b6040517f08c379a000000000000000000000000000000000000000000000000000000000815260040161006d906101a3565b60405180910390fd5b600080fd5b6100956004803603810190610090919061025c565b61009a565b005b50565b6100ae676aefa6d5e966bc5a60c01b610097565b6100c2677745294759c1d83d60c01b610097565b6100d667d3ecd997c51d981460c01b610097565b8173ffffffffffffffffffffffffffffffffffffffff1663454a2ab334836040518363ffffffff1660e01b815260040161011091906102ab565b6000604051808303818588803b15801561012957600080fd5b505af115801561013d573d6000803e3d6000fd5b50505050505050565b600082825260208201905092915050565b7f52656a65637445746865723a206e6f2072656365697665000000000000000000600082015250565b600061018d601783610146565b915061019882610157565b602082019050919050565b600060208201905081810360008301526101bc81610180565b9050919050565b600080fd5b600073ffffffffffffffffffffffffffffffffffffffff82169050919050565b60006101f3826101c8565b9050919050565b610203816101e8565b811461020e57600080fd5b50565b600081359050610220816101fa565b92915050565b6000819050919050565b61023981610226565b811461024457600080fd5b50565b60008135905061025681610230565b92915050565b60008060408385031215610273576102726101c3565b5b600061028185828601610211565b925050602061029285828601610247565b9150509250929050565b6102a581610226565b82525050565b60006020820190506102c0600083018461029c565b9291505056fea26469706673582212209f8b124fbe2115a8550a882205b6ada2b3bad72ab1bf0455fc181b41384485d264736f6c63430008180033",
  "linkReferences": {},
  "deployedLinkReferences": {}
}