{"contracts/PokemonMarketplace.sol":{"PokemonMarketplace":{"abi":[{"inputs":[{"internalType":"address","name":"_nftContract","type":"address"}],"stateMutability":"nonpayable","type":"constructor"},{"inputs":[],"name":"EnforcedPause","type":"error"},{"inputs":[],"name":"ExpectedPause","type":"error"},{"inputs":[{"internalType":"address","name":"owner","type":"address"}],"name":"OwnableInvalidOwner","type":"error"},{"inputs":[{"internalType":"address","name":"account","type":"address"}],"name":"OwnableUnauthorizedAccount","type":"error"},{"inputs":[],"name":"ReentrancyGuardReentrantCall","type":"error"},{"anonymous":false,"inputs":[{"indexed":true,"internalType":"uint256","name":"tokenId","type":"uint256"},{"indexed":true,"internalType":"address","name":"winner","type":"address"},{"indexed":false,"internalType":"uint256","name":"amount","type":"uint256"}],"name":"AuctionEnded","type":"event"},{"anonymous":false,"inputs":[{"indexed":true,"internalType":"uint256","name":"tokenId","type":"uint256"},{"indexed":true,"internalType":"address","name":"seller","type":"address"},{"indexed":false,"internalType":"uint256","name":"price","type":"uint256"},{"indexed":false,"internalType":"bool","name":"isAuction","type":"bool"}],"name":"ItemListed","type":"event"},{"anonymous":false,"inputs":[{"indexed":true,"internalType":"uint256","name":"tokenId","type":"uint256"},{"indexed":true,"internalType":"address","name":"buyer","type":"address"},{"indexed":false,"internalType":"uint256","name":"price","type":"uint256"}],"name":"ItemSold","type":"event"},{"anonymous":false,"inputs":[{"indexed":true,"internalType":"uint256","name":"tokenId","type":"uint256"},{"indexed":true,"internalType":"address","name":"seller","type":"address"}],"name":"ListingCancelled","type":"event"},{"anonymous":false,"inputs":[{"indexed":true,"internalType":"uint256","name":"tokenId","type":"uint256"},{"indexed":true,"internalType":"address","name":"bidder","type":"address"},{"indexed":false,"internalType":"uint256","name":"amount","type":"uint256"}],"name":"NewBid","type":"event"},{"anonymous":false,"inputs":[{"indexed":true,"internalType":"address","name":"previousOwner","type":"address"},{"indexed":true,"internalType":"address","name":"newOwner","type":"address"}],"name":"OwnershipTransferred","type":"event"},{"anonymous":false,"inputs":[{"indexed":false,"internalType":"address","name":"account","type":"address"}],"name":"Paused","type":"event"},{"anonymous":false,"inputs":[{"indexed":true,"internalType":"uint256","name":"swapId","type":"uint256"}],"name":"SwapCancelled","type":"event"},{"anonymous":false,"inputs":[{"indexed":true,"internalType":"uint256","name":"swapId","type":"uint256"},{"indexed":true,"internalType":"address","name":"responder","type":"address"}],"name":"SwapCompleted","type":"event"},{"anonymous":false,"inputs":[{"indexed":true,"internalType":"uint256","name":"swapId","type":"uint256"},{"indexed":true,"internalType":"address","name":"owner","type":"address"},{"indexed":true,"internalType":"address","name":"counterparty","type":"address"},{"indexed":false,"internalType":"uint256[]","name":"offeredIds","type":"uint256[]"},{"indexed":false,"internalType":"uint256[]","name":"desiredIds","type":"uint256[]"}],"name":"SwapCreated","type":"event"},{"anonymous":false,"inputs":[{"indexed":false,"internalType":"address","name":"account","type":"address"}],"name":"Unpaused","type":"event"},{"inputs":[{"internalType":"uint256","name":"tokenId","type":"uint256"}],"name":"bid","outputs":[],"stateMutability":"payable","type":"function"},{"inputs":[{"internalType":"uint256","name":"tokenId","type":"uint256"}],"name":"buyCard","outputs":[],"stateMutability":"payable","type":"function"},{"inputs":[{"internalType":"uint256","name":"tokenId","type":"uint256"}],"name":"cancelListing","outputs":[],"stateMutability":"nonpayable","type":"function"},{"inputs":[{"internalType":"uint256","name":"swapId","type":"uint256"}],"name":"cancelSwap","outputs":[],"stateMutability":"nonpayable","type":"function"},{"inputs":[{"internalType":"uint256[]","name":"_offeredTokenIds","type":"uint256[]"},{"internalType":"uint256[]","name":"_desiredTokenIds","type":"uint256[]"},{"internalType":"address","name":"_counterparty","type":"address"}],"name":"createSwapOffer","outputs":[],"stateMutability":"nonpayable","type":"function"},{"inputs":[{"internalType":"uint256","name":"tokenId","type":"uint256"}],"name":"endAuction","outputs":[],"stateMutability":"nonpayable","type":"function"},{"inputs":[{"internalType":"uint256","name":"swapId","type":"uint256"}],"name":"executeSwap","outputs":[],"stateMutability":"nonpayable","type":"function"},{"inputs":[{"internalType":"uint256","name":"_swapId","type":"uint256"}],"name":"getSwapOffer","outputs":[{"components":[{"internalType":"address","name":"owner","type":"address"},{"internalType":"address","name":"counterparty","type":"address"},{"internalType":"uint256[]","name":"offeredTokenIds","type":"uint256[]"},{"internalType":"uint256[]","name":"desiredTokenIds","type":"uint256[]"},{"internalType":"bool","name":"active","type":"bool"}],"internalType":"struct PokemonMarketplace.SwapOffer","name":"","type":"tuple"}],"stateMutability":"view","type":"function"},{"inputs":[{"internalType":"uint256","name":"tokenId","type":"uint256"},{"internalType":"uint256","name":"price","type":"uint256"},{"internalType":"bool","name":"isAuction","type":"bool"},{"internalType":"uint256","name":"durationInSeconds","type":"uint256"}],"name":"listCard","outputs":[],"stateMutability":"nonpayable","type":"function"},{"inputs":[{"internalType":"uint256","name":"","type":"uint256"}],"name":"listings","outputs":[{"internalType":"address","name":"seller","type":"address"},{"internalType":"uint256","name":"price","type":"uint256"},{"internalType":"bool","name":"isAuction","type":"bool"},{"internalType":"uint256","name":"endTime","type":"uint256"},{"internalType":"address","name":"highestBidder","type":"address"},{"internalType":"uint256","name":"highestBid","type":"uint256"},{"internalType":"bool","name":"active","type":"bool"}],"stateMutability":"view","type":"function"},{"inputs":[],"name":"nftContract","outputs":[{"internalType":"contract IERC721","name":"","type":"address"}],"stateMutability":"view","type":"function"},{"inputs":[],"name":"owner","outputs":[{"internalType":"address","name":"","type":"address"}],"stateMutability":"view","type":"function"},{"inputs":[],"name":"pause","outputs":[],"stateMutability":"nonpayable","type":"function"},{"inputs":[],"name":"paused","outputs":[{"internalType":"bool","name":"","type":"bool"}],"stateMutability":"view","type":"function"},{"inputs":[{"internalType":"address","name":"","type":"address"}],"name":"pendingWithdrawals","outputs":[{"internalType":"uint256","name":"","type":"uint256"}],"stateMutability":"view","type":"function"},{"inputs":[],"name":"renounceOwnership","outputs":[],"stateMutability":"nonpayable","type":"function"},{"inputs":[],"name":"swapCounter","outputs":[{"internalType":"uint256","name":"","type":"uint256"}],"stateMutability":"view","type":"function"},{"inputs":[{"internalType":"uint256","name":"","type":"uint256"}],"name":"swapOffers","outputs":[{"internalType":"address","name":"owner","type":"address"},{"internalType":"address","name":"counterparty","type":"address"},{"internalType":"bool","name":"active","type":"bool"}],"stateMutability":"view","type":"function"},{"inputs":[{"internalType":"address","name":"newOwner","type":"address"}],"name":"transferOwnership","outputs":[],"stateMutability":"nonpayable","type":"function"},{"inputs":[],"name":"unpause","outputs":[],"stateMutability":"nonpayable","type":"function"},{"inputs":[],"name":"withdraw","outputs":[],"stateMutability":"nonpayable","type":"function"}],"evm":{"bytecode":{"linkReferences":{},"object":"60806040523480156200001157600080fd5b5060405162004ca038038062004ca083398181016040528101906200003791906200027a565b336001600081905550600073ffffffffffffffffffffffffffffffffffffffff168173ffffffffffffffffffffffffffffffffffffffff1603620000b55760006040517f1e4fbdf7000000000000000000000000000000000000000000000000000000008152600401620000ac9190620002bd565b60405180910390fd5b620000c6816200014760201b60201c565b50620000e367cae1d4ebc941bfd960c01b6200020d60201b60201c565b620000ff67025b26bf6b2c5cbc60c01b6200020d60201b60201c565b80600260006101000a81548173ffffffffffffffffffffffffffffffffffffffff021916908373ffffffffffffffffffffffffffffffffffffffff16021790555050620002da565b6000600160009054906101000a900473ffffffffffffffffffffffffffffffffffffffff16905081600160006101000a81548173ffffffffffffffffffffffffffffffffffffffff021916908373ffffffffffffffffffffffffffffffffffffffff1602179055508173ffffffffffffffffffffffffffffffffffffffff168173ffffffffffffffffffffffffffffffffffffffff167f8be0079c531659141344cd1fd0a4f28419497f9722a3daafe3b4186f6b6457e060405160405180910390a35050565b50565b600080fd5b600073ffffffffffffffffffffffffffffffffffffffff82169050919050565b6000620002428262000215565b9050919050565b620002548162000235565b81146200026057600080fd5b50565b600081519050620002748162000249565b92915050565b60006020828403121562000293576200029262000210565b5b6000620002a38482850162000263565b91505092915050565b620002b78162000235565b82525050565b6000602082019050620002d46000830184620002ac565b92915050565b6149b680620002ea6000396000f3fe60806040526004361061012a5760003560e01c80638456cb59116100ab578063b9c52fcc1161006f578063b9c52fcc1461035d578063c70f5eaa1461039a578063d56d229d146103b6578063de74e57b146103e1578063f2fde38b14610424578063f3f437031461044d5761012a565b80638456cb591461028a5780638da5cb5b146102a1578063a13f1c62146102cc578063a9ab232b1461030b578063b9a2de3a146103345761012a565b80633f4ba83a116100f25780633f4ba83a146101ec578063454a2ab31461020357806354d6a2b71461021f5780635c975abb14610248578063715018a6146102735761012a565b80631e268d881461012f5780632b3c65c314610158578063305a67a81461018157806333bce8c3146101aa5780633ccfd60b146101d5575b600080fd5b34801561013b57600080fd5b5061015660048036038101906101519190613adb565b61048a565b005b34801561016457600080fd5b5061017f600480360381019061017a9190613c05565b6108ca565b005b34801561018d57600080fd5b506101a860048036038101906101a39190613c9a565b610ded565b005b3480156101b657600080fd5b506101bf611289565b6040516101cc9190613cd6565b60405180910390f35b3480156101e157600080fd5b506101ea61128f565b005b3480156101f857600080fd5b5061020161158b565b005b61021d60048036038101906102189190613c9a565b611601565b005b34801561022b57600080fd5b5061024660048036038101906102419190613c9a565b611c09565b005b34801561025457600080fd5b5061025d611ff2565b60405161026a9190613d00565b60405180910390f35b34801561027f57600080fd5b50610288612009565b005b34801561029657600080fd5b5061029f61201d565b005b3480156102ad57600080fd5b506102b6612093565b6040516102c39190613d2a565b60405180910390f35b3480156102d857600080fd5b506102f360048036038101906102ee9190613c9a565b6120bd565b60405161030293929190613d45565b60405180910390f35b34801561031757600080fd5b50610332600480360381019061032d9190613c9a565b612134565b005b34801561034057600080fd5b5061035b60048036038101906103569190613c9a565b612727565b005b34801561036957600080fd5b50610384600480360381019061037f9190613c9a565b612e1a565b6040516103919190613ed5565b60405180910390f35b6103b460048036038101906103af9190613c9a565b612ffa565b005b3480156103c257600080fd5b506103cb61353c565b6040516103d89190613f56565b60405180910390f35b3480156103ed57600080fd5b5061040860048036038101906104039190613c9a565b613562565b60405161041b9796959493929190613f71565b60405180910390f35b34801561043057600080fd5b5061044b60048036038101906104469190613fe0565b6135fe565b005b34801561045957600080fd5b50610474600480360381019061046f9190613fe0565b613684565b6040516104819190613cd6565b60405180910390f35b61049e672a4a0b18c4c3704f60c01b61369c565b6104a661369f565b6104ba676621892fb74b82bb60c01b61369c565b6104ce67e24479d2f593853060c01b61369c565b6104d66136e5565b6104ea673e64c0b92641ffae60c01b61369c565b6104fe672917f52702a428b160c01b61369c565b610512676d766321f58ea6a660c01b61369c565b61052667f86975d1edbd870e60c01b61369c565b61053a6705fbd46efe339deb60c01b61369c565b6000831161057d576040517f08c379a00000000000000000000000000000000000000000000000000000000081526004016105749061406a565b60405180910390fd5b6105916764ec2f37a03da2da60c01b61369c565b6105a5679cf5e69e5c5a7da460c01b61369c565b6105b967d7b2162e2a3da0a960c01b61369c565b600260009054906101000a900473ffffffffffffffffffffffffffffffffffffffff1673ffffffffffffffffffffffffffffffffffffffff166323b872dd3330876040518463ffffffff1660e01b81526004016106189392919061408a565b600060405180830381600087803b15801561063257600080fd5b505af1158015610646573d6000803e3d6000fd5b5050505061065e67de385bd96b169e7860c01b61369c565b6106726737c8163f9102de1160c01b61369c565b60008280610690575061068f6715c171ade34054fb60c01b613726565b5b80156106ac57506106ab678c399ad7fb318ca660c01b61372d565b5b6106b75760006106c4565b81426106c391906140f0565b5b90506106da67a53a5333c826fcd060c01b61369c565b6040518060e001604052803373ffffffffffffffffffffffffffffffffffffffff1681526020018581526020018415158152602001828152602001600073ffffffffffffffffffffffffffffffffffffffff16815260200160008152602001600115158152506003600087815260200190815260200160002060008201518160000160006101000a81548173ffffffffffffffffffffffffffffffffffffffff021916908373ffffffffffffffffffffffffffffffffffffffff1602179055506020820151816001015560408201518160020160006101000a81548160ff0219169083151502179055506060820151816003015560808201518160040160006101000a81548173ffffffffffffffffffffffffffffffffffffffff021916908373ffffffffffffffffffffffffffffffffffffffff16021790555060a0820151816005015560c08201518160060160006101000a81548160ff02191690831515021790555090505061085667b090f1928d73270360c01b61369c565b61086a67f2e0b5a33a3eb9b460c01b61369c565b3373ffffffffffffffffffffffffffffffffffffffff16857fde26dae6625b1e67b90231db575f3aea0809a265b75b7f6aef09e9b73f19f0a186866040516108b3929190614124565b60405180910390a3506108c4613738565b50505050565b6108de67d9fcd0888e01628660c01b61369c565b6108e661369f565b6108fa67011fe64e9e346b9060c01b61369c565b61090e6717e82edcf24d0b1b60c01b61369c565b6109166136e5565b61092a6790cf243dffa040ae60c01b61369c565b61093e67e5c91fa95b3c42d760c01b61369c565b610952675b8b57a6a972a64660c01b61369c565b61096667639b407f2d7fd16460c01b61369c565b61097a673c7c5a3c2ebd496d60c01b61369c565b60008585905011801561099d575061099c67bc758bf08213523d60c01b61372d565b5b806109c757506000838390501180156109c657506109c567abb9a8d924999d9c60c01b61372d565b5b5b610a06576040517f08c379a00000000000000000000000000000000000000000000000000000000081526004016109fd90614199565b60405180910390fd5b610a1a67163cd83fbccfe6e060c01b61369c565b610a2e67744b4dfb71e9da1b60c01b61369c565b610a4267dc8ee1023accd81760c01b61369c565b60005b85859050811015610b2f57610a64672f0f46492be1e89760c01b61369c565b610a78671376e4bd9c01ba5360c01b61369c565b600260009054906101000a900473ffffffffffffffffffffffffffffffffffffffff1673ffffffffffffffffffffffffffffffffffffffff166323b872dd3330898986818110610acb57610aca6141b9565b5b905060200201356040518463ffffffff1660e01b8152600401610af09392919061408a565b600060405180830381600087803b158015610b0a57600080fd5b505af1158015610b1e573d6000803e3d6000fd5b505050508080600101915050610a45565b50610b44676b87a46cb917a01760c01b61369c565b6040518060a001604052803373ffffffffffffffffffffffffffffffffffffffff1681526020018273ffffffffffffffffffffffffffffffffffffffff168152602001868680806020026020016040519081016040528093929190818152602001838360200280828437600081840152601f19601f820116905080830192505050505050508152602001848480806020026020016040519081016040528093929190818152602001838360200280828437600081840152601f19601f8201169050808301925050505050505081526020016001151581525060056000600654815260200190815260200160002060008201518160000160006101000a81548173ffffffffffffffffffffffffffffffffffffffff021916908373ffffffffffffffffffffffffffffffffffffffff16021790555060208201518160010160006101000a81548173ffffffffffffffffffffffffffffffffffffffff021916908373ffffffffffffffffffffffffffffffffffffffff1602179055506040820151816002019080519060200190610cdb92919061399c565b506060820151816003019080519060200190610cf892919061399c565b5060808201518160040160006101000a81548160ff021916908315150217905550905050610d3067ba72da3c0eb9484560c01b61369c565b610d44679289a3c5b5ecac9c60c01b61369c565b8073ffffffffffffffffffffffffffffffffffffffff163373ffffffffffffffffffffffffffffffffffffffff166006547f3de13318be2b735f2bcd30511bc7d0705cdb59d81fc79bb7bf5b140a06db503088888888604051610daa9493929190614263565b60405180910390a4610dc667e0b5771ae739ea4360c01b61369c565b60066000815480929190610dd99061429e565b9190505550610de6613738565b5050505050565b610e01674ad18e209b9467a160c01b61369c565b610e0961369f565b610e1d674cb3c29f606ec60c60c01b61369c565b610e316788c5081bbb74d7dc60c01b61369c565b610e396136e5565b610e4d6711647496ecf3c7e760c01b61369c565b610e6167f83a0511463fea2b60c01b61369c565b610e7567fc7c348ea8383a3760c01b61369c565b610e89671a42afaef47caec260c01b61369c565b6000600360008381526020019081526020016000209050610eb467ffd7a61143c4b42d60c01b61369c565b610ec8678965c62c8af9e9ad60c01b61369c565b610edc67d0cac82fa71a7b0260c01b61369c565b8060060160009054906101000a900460ff16610f2d576040517f08c379a0000000000000000000000000000000000000000000000000000000008152600401610f2490614332565b60405180910390fd5b610f4167a0fce07ef03530f760c01b61369c565b610f55678bcd0a6dc0647e8a60c01b61369c565b610f69678c1b1c80692c595d60c01b61369c565b610f7d677bdcec594e2c187360c01b61369c565b3373ffffffffffffffffffffffffffffffffffffffff168160000160009054906101000a900473ffffffffffffffffffffffffffffffffffffffff1673ffffffffffffffffffffffffffffffffffffffff161461100f576040517f08c379a00000000000000000000000000000000000000000000000000000000081526004016110069061439e565b60405180910390fd5b61102367e651215470bc907660c01b61369c565b6110376723a73eb514fa8ffa60c01b61369c565b61104b6729a39ead3ae84d4760c01b61369c565b8060020160009054906101000a900460ff161561111257611076674a7c76fdab3f247d60c01b61369c565b61108a6796ab5213a6ce6e9960c01b61369c565b61109e6796cf787e35823e9160c01b61369c565b6110b2679957e8f18f1424d060c01b61369c565b60008160050154146110f9576040517f08c379a00000000000000000000000000000000000000000000000000000000081526004016110f09061440a565b60405180910390fd5b61110d67a6aeb3e480e7d2d460c01b61369c565b611127565b611126677ae19d4adb80f64160c01b61369c565b5b61113b670f1871ac4f78ac6060c01b61369c565b60008160060160006101000a81548160ff02191690831515021790555061116c67ac3df2a55255320160c01b61369c565b6111806720baae262a77a20060c01b61369c565b600260009054906101000a900473ffffffffffffffffffffffffffffffffffffffff1673ffffffffffffffffffffffffffffffffffffffff166323b872dd3033856040518463ffffffff1660e01b81526004016111df9392919061408a565b600060405180830381600087803b1580156111f957600080fd5b505af115801561120d573d6000803e3d6000fd5b5050505061122567d850d1f8cec5b0fa60c01b61369c565b6112396740d05786e43a6ce060c01b61369c565b3373ffffffffffffffffffffffffffffffffffffffff16827f8e25282255ab31897df2b0456bb993ac7f84d376861aefd84901d2d63a7428a260405160405180910390a350611286613738565b50565b60065481565b6112a367b1b311118b679c3d60c01b61369c565b6112ab61369f565b6112bf679aad17449931e90c60c01b61369c565b6112d367103ff4070095de2d60c01b61369c565b6112db6136e5565b6112ef670ea13163b1572ec660c01b61369c565b611303675ce01c39189f69b560c01b61369c565b611317670bae8e9ab1a2459060c01b61369c565b61132b67819f51d179d9d9e160c01b61369c565b6000600460003373ffffffffffffffffffffffffffffffffffffffff1673ffffffffffffffffffffffffffffffffffffffff168152602001908152602001600020549050611383677ccc8a01b24479ad60c01b61369c565b61139767e00a0c04c2bfef9460c01b61369c565b6113ab678c39ad8107b0fb8760c01b61369c565b600081116113ee576040517f08c379a00000000000000000000000000000000000000000000000000000000081526004016113e590614476565b60405180910390fd5b61140267be50fd6c1af6a13e60c01b61369c565b6114166781e671271809685a60c01b61369c565b6000600460003373ffffffffffffffffffffffffffffffffffffffff1673ffffffffffffffffffffffffffffffffffffffff1681526020019081526020016000208190555061146f67772c32ad836eaf7460c01b61369c565b6114836791582c87e2a4593f60c01b61369c565b60003373ffffffffffffffffffffffffffffffffffffffff16826040516114a9906144c7565b60006040518083038185875af1925050503d80600081146114e6576040519150601f19603f3d011682016040523d82523d6000602084013e6114eb565b606091505b50509050611503679822409d3a2f1b4b60c01b61369c565b6115176744092972637fb8e160c01b61369c565b61152b675c32aee289da3aab60c01b61369c565b8061156b576040517f08c379a000000000000000000000000000000000000000000000000000000000815260040161156290614528565b60405180910390fd5b61157f67887266e106022ba460c01b61369c565b5050611589613738565b565b61159f67ca9bd4134d4c78c360c01b61369c565b6115a7613742565b6115bb67a5bc27f95a6bd2e760c01b61369c565b6115cf67b37c91b9f4bf9c1560c01b61369c565b6115e3670f67fb60473e43a060c01b61369c565b6115f767ed0da06429790b9460c01b61369c565b6115ff6137c9565b565b611615673e0db18faf592b6760c01b61369c565b61161d61369f565b6116316722cd728b330d213560c01b61369c565b61164567edb5c3faff55bdcb60c01b61369c565b61164d6136e5565b61166167be5b7474ae13c7b860c01b61369c565b61167567ff8e4a18f07b6a6660c01b61369c565b6116896789f7e7431938357b60c01b61369c565b61169d67fb1ec996e42046e260c01b61369c565b60006003600083815260200190815260200160002090506116c867f4c4f234d4006bda60c01b61369c565b6116dc67ffa705bf3e32f15660c01b61369c565b6116f067442964aac379cb9d60c01b61369c565b8060060160009054906101000a900460ff16801561171c57508060020160009054906101000a900460ff165b61175b576040517f08c379a000000000000000000000000000000000000000000000000000000000815260040161175290614594565b60405180910390fd5b61176f67afe40a44c64a525260c01b61369c565b61178367c8c45518fdc8968960c01b61369c565b6117976753e9cb438a1251c660c01b61369c565b6117ab675bd66a8c1f41b88c60c01b61369c565b806003015442106117f1576040517f08c379a00000000000000000000000000000000000000000000000000000000081526004016117e890614600565b60405180910390fd5b61180567c3e6db977287571960c01b61369c565b61181967ba858dc07f96596a60c01b61369c565b61182d67b4e089cc1eeade9160c01b61369c565b61184167a81a8f0e70baa3fd60c01b61369c565b8060010154341180156118575750806005015434115b611896576040517f08c379a000000000000000000000000000000000000000000000000000000000815260040161188d9061466c565b60405180910390fd5b6118aa673af85debca79d54a60c01b61369c565b6118be673d0133ff7daaa39560c01b61369c565b6118d267bc30199510bea68d60c01b61369c565b60008160040160009054906101000a900473ffffffffffffffffffffffffffffffffffffffff16905061190f674ee1d526db4926fe60c01b61369c565b611923677de68e3ecaf3de2d60c01b61369c565b60008260050154905061194067289386465280decd60c01b61369c565b338360040160006101000a81548173ffffffffffffffffffffffffffffffffffffffff021916908373ffffffffffffffffffffffffffffffffffffffff16021790555061199767a6662065fb6bd44960c01b61369c565b3483600501819055506119b467fc4e556e0378b06060c01b61369c565b6119c8679bf51733a6d6a70260c01b61369c565b600073ffffffffffffffffffffffffffffffffffffffff168273ffffffffffffffffffffffffffffffffffffffff1614611b6f57611a1067d70fa89cb4bdb88d60c01b61369c565b611a246703be3160c2dbc73160c01b61369c565b611a38677a3e5db70f84d57060c01b61369c565b60008273ffffffffffffffffffffffffffffffffffffffff1682604051611a5e906144c7565b60006040518083038185875af1925050503d8060008114611a9b576040519150601f19603f3d011682016040523d82523d6000602084013e611aa0565b606091505b50509050611ab867b3d18749376e2d9f60c01b61369c565b611acc67cc8b486714fe124660c01b61369c565b80611b5457611ae567b08de9b54036401160c01b61369c565b611af96701569983f5418d6d60c01b61369c565b81600460008573ffffffffffffffffffffffffffffffffffffffff1673ffffffffffffffffffffffffffffffffffffffff1681526020019081526020016000206000828254611b4891906140f0565b92505081905550611b69565b611b68675a146257425af4d660c01b61369c565b5b50611b84565b611b836731a4b78036b6dbd160c01b61369c565b5b611b986713a4bc4df3df71e360c01b61369c565b611bac67b28f91786245450960c01b61369c565b3373ffffffffffffffffffffffffffffffffffffffff16847f558a0d5d5468d74b0db24c74eb348b42271c2ebb4c9e953ced38aaed95fa436134604051611bf39190613cd6565b60405180910390a3505050611c06613738565b50565b611c1d67c9549bcc1f72fdfe60c01b61369c565b611c2561369f565b611c3967bdd81852bffda9cd60c01b61369c565b611c4d67f6b3a0f1810c410360c01b61369c565b611c556136e5565b611c6967a49382e52d3420b160c01b61369c565b611c7d67b603795cc016be6660c01b61369c565b611c9167e828ca4423f8e48660c01b61369c565b611ca567f37414be5c264c4b60c01b61369c565b6000600560008381526020019081526020016000209050611cd067fa04a068bafb285160c01b61369c565b611ce467b08e23a1d6afb74560c01b61369c565b611cf8673fe3d0a74c133ead60c01b61369c565b8060040160009054906101000a900460ff16611d49576040517f08c379a0000000000000000000000000000000000000000000000000000000008152600401611d40906146d8565b60405180910390fd5b611d5d677a70743efca2e47b60c01b61369c565b611d7167650ade8c04c629ae60c01b61369c565b611d8567102abb8b79eb654a60c01b61369c565b611d99670a3d4c4570d3d59660c01b61369c565b3373ffffffffffffffffffffffffffffffffffffffff168160000160009054906101000a900473ffffffffffffffffffffffffffffffffffffffff1673ffffffffffffffffffffffffffffffffffffffff1614611e2b576040517f08c379a0000000000000000000000000000000000000000000000000000000008152600401611e2290614744565b60405180910390fd5b611e3f6739002c875462a0c460c01b61369c565b611e536717a669363d6aa44f60c01b61369c565b611e676759a7ba45c9204c2860c01b61369c565b60005b8160020180549050811015611f5f57611e8d671caf22ae895674d060c01b61369c565b611ea16734831832ee5a973f60c01b61369c565b600260009054906101000a900473ffffffffffffffffffffffffffffffffffffffff1673ffffffffffffffffffffffffffffffffffffffff166323b872dd3033856002018581548110611ef757611ef66141b9565b5b90600052602060002001546040518463ffffffff1660e01b8152600401611f209392919061408a565b600060405180830381600087803b158015611f3a57600080fd5b505af1158015611f4e573d6000803e3d6000fd5b505050508080600101915050611e6a565b50611f746722a6cb3781767bd660c01b61369c565b60008160040160006101000a81548160ff021916908315150217905550611fa567af616431b869fd4960c01b61369c565b611fb967914e16a54808037a60c01b61369c565b817ff6b6b4f7a13f02512c1b3aa8dcc4a07d7775a6a4becbd439efcbd37c5408e67f60405160405180910390a250611fef613738565b50565b6000600160149054906101000a900460ff16905090565b612011613742565b61201b600061382c565b565b6120316762dcf433e1ef039c60c01b61369c565b612039613742565b61204d67310619b1501abce360c01b61369c565b61206167a257614f79a96f5960c01b61369c565b612075676c39655cd8ee060f60c01b61369c565b612089672423ec2d72b84dc560c01b61369c565b6120916138f2565b565b6000600160009054906101000a900473ffffffffffffffffffffffffffffffffffffffff16905090565b60056020528060005260406000206000915090508060000160009054906101000a900473ffffffffffffffffffffffffffffffffffffffff16908060010160009054906101000a900473ffffffffffffffffffffffffffffffffffffffff16908060040160009054906101000a900460ff16905083565b612148677fb61d65d4603a6c60c01b61369c565b61215061369f565b612164672f5f1424b18d73da60c01b61369c565b61217867a6c39eb763f7a6d160c01b61369c565b6121806136e5565b61219467a903c964fe43259160c01b61369c565b6121a86763bfc0e3411d640660c01b61369c565b6121bc67d4a3941342ceee6260c01b61369c565b6121d067cc1fb4ac060c0eb160c01b61369c565b60006005600083815260200190815260200160002090506121fb671854765b0701d85b60c01b61369c565b61220f671300797c3a843bef60c01b61369c565b6122236738cf5da25a48e4fe60c01b61369c565b8060040160009054906101000a900460ff16612274576040517f08c379a000000000000000000000000000000000000000000000000000000000815260040161226b906146d8565b60405180910390fd5b6122886721015abdc799d64d60c01b61369c565b61229c67718b3065311538ee60c01b61369c565b6122b067b4cde5f876746bf060c01b61369c565b600073ffffffffffffffffffffffffffffffffffffffff168160010160009054906101000a900473ffffffffffffffffffffffffffffffffffffffff1673ffffffffffffffffffffffffffffffffffffffff16146124035761231c6774b0271e0d1e8d5f60c01b61369c565b6123306701cb3da9008dd06b60c01b61369c565b61234467fbb89e32d2fbc9ea60c01b61369c565b6123586788692e8f025eda9660c01b61369c565b8060010160009054906101000a900473ffffffffffffffffffffffffffffffffffffffff1673ffffffffffffffffffffffffffffffffffffffff163373ffffffffffffffffffffffffffffffffffffffff16146123ea576040517f08c379a00000000000000000000000000000000000000000000000000000000081526004016123e1906147b0565b60405180910390fd5b6123fe67c0fad6523649ff0660c01b61369c565b612418565b612417671c2ab39910efa76b60c01b61369c565b5b61242c67dbd29ff9d775fa7f60c01b61369c565b6124406727e1566e6dfe804660c01b61369c565b60005b816003018054905081101561255c57612466671bdd396f2be4d46260c01b61369c565b61247a67f5be1a96b625624060c01b61369c565b600260009054906101000a900473ffffffffffffffffffffffffffffffffffffffff1673ffffffffffffffffffffffffffffffffffffffff166323b872dd338460000160009054906101000a900473ffffffffffffffffffffffffffffffffffffffff168560030185815481106124f4576124f36141b9565b5b90600052602060002001546040518463ffffffff1660e01b815260040161251d9392919061408a565b600060405180830381600087803b15801561253757600080fd5b505af115801561254b573d6000803e3d6000fd5b505050508080600101915050612443565b506125716799ed9397f1b2fb7b60c01b61369c565b612585679640c0de296f801d60c01b61369c565b60005b816002018054905081101561267d576125ab67bb12a32145903f9f60c01b61369c565b6125bf678a321dcd83ab4dde60c01b61369c565b600260009054906101000a900473ffffffffffffffffffffffffffffffffffffffff1673ffffffffffffffffffffffffffffffffffffffff166323b872dd3033856002018581548110612615576126146141b9565b5b90600052602060002001546040518463ffffffff1660e01b815260040161263e9392919061408a565b600060405180830381600087803b15801561265857600080fd5b505af115801561266c573d6000803e3d6000fd5b505050508080600101915050612588565b506126926701bc4164d2bec26b60c01b61369c565b60008160040160006101000a81548160ff0219169083151502179055506126c367e0917496a894d3ea60c01b61369c565b6126d767dce35c9ce2a062b960c01b61369c565b3373ffffffffffffffffffffffffffffffffffffffff16827f393e9e4b16bb0310a90c21f5a14d4320ed1cd5800ced3216d7351e0e5dacd35660405160405180910390a350612724613738565b50565b61273b677fdeedf86472164360c01b61369c565b61274361369f565b612757678798e28d29f490b560c01b61369c565b61276b6736ffebf881b5051260c01b61369c565b6127736136e5565b61278767f26141ffd21ce05060c01b61369c565b61279b6728c1ffb1d83af7a960c01b61369c565b6127af6782ee66021f7e3f7060c01b61369c565b6127c3673435e88fba6b73d160c01b61369c565b60006003600083815260200190815260200160002090506127ee67343c0ac6d0df2c9160c01b61369c565b61280267b950d0705e5f559860c01b61369c565b61281667cc861b9d0f2d033d60c01b61369c565b8060060160009054906101000a900460ff16801561284257508060020160009054906101000a900460ff165b612881576040517f08c379a00000000000000000000000000000000000000000000000000000000081526004016128789061481c565b60405180910390fd5b61289567694b987f130a897760c01b61369c565b6128a967a23550fc9f82e84f60c01b61369c565b6128bd6763922daaca5a61de60c01b61369c565b6128d16741858d446c8e6f6d60c01b61369c565b8060030154421015612918576040517f08c379a000000000000000000000000000000000000000000000000000000000815260040161290f90614888565b60405180910390fd5b61292c6715ae986a7d1ca24560c01b61369c565b61294067695e9993c4ea410a60c01b61369c565b60008160060160006101000a81548160ff02191690831515021790555061297167558a218f4442547e60c01b61369c565b61298567e8ac7eefc65ee11d60c01b61369c565b600073ffffffffffffffffffffffffffffffffffffffff168160040160009054906101000a900473ffffffffffffffffffffffffffffffffffffffff1673ffffffffffffffffffffffffffffffffffffffff1614612d1c576129f1671a1f2b62e2144ae960c01b61369c565b612a0567ad49f6fdb9fe054960c01b61369c565b612a1967f263adf2bd8b638e60c01b61369c565b60008160000160009054906101000a900473ffffffffffffffffffffffffffffffffffffffff1673ffffffffffffffffffffffffffffffffffffffff168260050154604051612a67906144c7565b60006040518083038185875af1925050503d8060008114612aa4576040519150601f19603f3d011682016040523d82523d6000602084013e612aa9565b606091505b50509050612ac1674a2d2cb562c325f160c01b61369c565b612ad5671446c5a8471992da60c01b61369c565b80612b8557612aee670402e2462d34153760c01b61369c565b612b0267273c5675e08d92b860c01b61369c565b8160050154600460008460000160009054906101000a900473ffffffffffffffffffffffffffffffffffffffff1673ffffffffffffffffffffffffffffffffffffffff1673ffffffffffffffffffffffffffffffffffffffff1681526020019081526020016000206000828254612b7991906140f0565b92505081905550612b9a565b612b9967ae9eb368aa9c9df960c01b61369c565b5b612bae677515a41586e8652160c01b61369c565b612bc2671e73c4573640db0960c01b61369c565b600260009054906101000a900473ffffffffffffffffffffffffffffffffffffffff1673ffffffffffffffffffffffffffffffffffffffff166323b872dd308460040160009054906101000a900473ffffffffffffffffffffffffffffffffffffffff16866040518463ffffffff1660e01b8152600401612c459392919061408a565b600060405180830381600087803b158015612c5f57600080fd5b505af1158015612c73573d6000803e3d6000fd5b50505050612c8b67d4daa1c1b43b00c060c01b61369c565b612c9f67db640a66370927c360c01b61369c565b8160040160009054906101000a900473ffffffffffffffffffffffffffffffffffffffff1673ffffffffffffffffffffffffffffffffffffffff16837fd2aa34a4fdbbc6dff6a3e56f46e0f3ae2a31d7785ff3487aa5c95c642acea5018460050154604051612d0e9190613cd6565b60405180910390a350612e0e565b612d30674224f8f3b90751b460c01b61369c565b612d446772567d46ac7c7b0860c01b61369c565b612d58671887c17b8ff7297960c01b61369c565b600260009054906101000a900473ffffffffffffffffffffffffffffffffffffffff1673ffffffffffffffffffffffffffffffffffffffff166323b872dd308360000160009054906101000a900473ffffffffffffffffffffffffffffffffffffffff16856040518463ffffffff1660e01b8152600401612ddb9392919061408a565b600060405180830381600087803b158015612df557600080fd5b505af1158015612e09573d6000803e3d6000fd5b505050505b50612e17613738565b50565b612e226139e9565b612e3667f7bc2990251e8d8d60c01b61369c565b612e4a67d1aef429f2d909c160c01b61369c565b612e5e675cb265632e2769f260c01b61369c565b600560008381526020019081526020016000206040518060a00160405290816000820160009054906101000a900473ffffffffffffffffffffffffffffffffffffffff1673ffffffffffffffffffffffffffffffffffffffff1673ffffffffffffffffffffffffffffffffffffffff1681526020016001820160009054906101000a900473ffffffffffffffffffffffffffffffffffffffff1673ffffffffffffffffffffffffffffffffffffffff1673ffffffffffffffffffffffffffffffffffffffff16815260200160028201805480602002602001604051908101604052809291908181526020018280548015612f7757602002820191906000526020600020905b815481526020019060010190808311612f63575b5050505050815260200160038201805480602002602001604051908101604052809291908181526020018280548015612fcf57602002820191906000526020600020905b815481526020019060010190808311612fbb575b505050505081526020016004820160009054906101000a900460ff1615151515815250509050919050565b61300e67aefde2860d75b95560c01b61369c565b61301661369f565b61302a67bbd02860952dc2db60c01b61369c565b61303e6787993b3ec1eff4d960c01b61369c565b6130466136e5565b61305a676caa7b90da10bcb960c01b61369c565b61306e67dbff334df0f769d460c01b61369c565b613082673dedaafa28fed7c860c01b61369c565b61309667f8c752b6fbaae45c60c01b61369c565b60006003600083815260200190815260200160002090506130c1674885b5b6cab3257960c01b61369c565b6130d56755d05aae3274ef2160c01b61369c565b6130e967693bf40727d6553460c01b61369c565b8060060160009054906101000a900460ff1661313a576040517f08c379a000000000000000000000000000000000000000000000000000000000815260040161313190614332565b60405180910390fd5b61314e67984b6bd7fa1de73b60c01b61369c565b61316267ce2c9229b1561fca60c01b61369c565b613176673aca933f3da6062f60c01b61369c565b61318a672bf0ba948c3ab85f60c01b61369c565b8060020160009054906101000a900460ff16156131dc576040517f08c379a00000000000000000000000000000000000000000000000000000000081526004016131d3906148f4565b60405180910390fd5b6131f067104a7332c8560cd560c01b61369c565b613204674e906cb1fe09afc160c01b61369c565b61321867e18775ab1133786e60c01b61369c565b61322c67cb2a8ef740d1f08460c01b61369c565b80600101543414613272576040517f08c379a000000000000000000000000000000000000000000000000000000000815260040161326990614960565b60405180910390fd5b613286679fb9bd31e7f2304360c01b61369c565b61329a67cdaaa3e5e8e0945c60c01b61369c565b60008160060160006101000a81548160ff0219169083151502179055506132cb670cbdc3973a172b3860c01b61369c565b6132df67c6b70a0dcae8cd4760c01b61369c565b60008160000160009054906101000a900473ffffffffffffffffffffffffffffffffffffffff1673ffffffffffffffffffffffffffffffffffffffff1634604051613329906144c7565b60006040518083038185875af1925050503d8060008114613366576040519150601f19603f3d011682016040523d82523d6000602084013e61336b565b606091505b5050905061338367bd890ef3d225271860c01b61369c565b61339767c669ffbb446285a660c01b61369c565b6133ab679805b6bd550b930b60c01b61369c565b806133eb576040517f08c379a00000000000000000000000000000000000000000000000000000000081526004016133e290614528565b60405180910390fd5b6133ff6757a6b684fb126eb060c01b61369c565b613413677b482fe7b20c9f9860c01b61369c565b6134276717f2292fbf28db5260c01b61369c565b600260009054906101000a900473ffffffffffffffffffffffffffffffffffffffff1673ffffffffffffffffffffffffffffffffffffffff166323b872dd3033866040518463ffffffff1660e01b81526004016134869392919061408a565b600060405180830381600087803b1580156134a057600080fd5b505af11580156134b4573d6000803e3d6000fd5b505050506134cc67c0226d019a8469ee60c01b61369c565b6134e0674a7ae70b60c06aad60c01b61369c565b3373ffffffffffffffffffffffffffffffffffffffff16837fa574c741071bb18f51fa88c17aeefec514bebf670ca22a3736fba6504ecbb763346040516135279190613cd6565b60405180910390a35050613539613738565b50565b600260009054906101000a900473ffffffffffffffffffffffffffffffffffffffff1681565b60036020528060005260406000206000915090508060000160009054906101000a900473ffffffffffffffffffffffffffffffffffffffff16908060010154908060020160009054906101000a900460ff16908060030154908060040160009054906101000a900473ffffffffffffffffffffffffffffffffffffffff16908060050154908060060160009054906101000a900460ff16905087565b613606613742565b600073ffffffffffffffffffffffffffffffffffffffff168173ffffffffffffffffffffffffffffffffffffffff16036136785760006040517f1e4fbdf700000000000000000000000000000000000000000000000000000000815260040161366f9190613d2a565b60405180910390fd5b6136818161382c565b50565b60046020528060005260406000206000915090505481565b50565b6002600054036136db576040517f3ee5aeb500000000000000000000000000000000000000000000000000000000815260040160405180910390fd5b6002600081905550565b6136ed611ff2565b15613724576040517fd93c066500000000000000000000000000000000000000000000000000000000815260040160405180910390fd5b565b6000919050565b600060019050919050565b6001600081905550565b61374a613954565b73ffffffffffffffffffffffffffffffffffffffff16613768612093565b73ffffffffffffffffffffffffffffffffffffffff16146137c75761378b613954565b6040517f118cdaa70000000000000000000000000000000000000000000000000000000081526004016137be9190613d2a565b60405180910390fd5b565b6137d161395c565b6000600160146101000a81548160ff0219169083151502179055507f5db9ee0a495bf2e6ff9c91a7834c1ba4fdd244a5e8aa4e537bd38aeae4b073aa613815613954565b6040516138229190613d2a565b60405180910390a1565b6000600160009054906101000a900473ffffffffffffffffffffffffffffffffffffffff16905081600160006101000a81548173ffffffffffffffffffffffffffffffffffffffff021916908373ffffffffffffffffffffffffffffffffffffffff1602179055508173ffffffffffffffffffffffffffffffffffffffff168173ffffffffffffffffffffffffffffffffffffffff167f8be0079c531659141344cd1fd0a4f28419497f9722a3daafe3b4186f6b6457e060405160405180910390a35050565b6138fa6136e5565b60018060146101000a81548160ff0219169083151502179055507f62e78cea01bee320cd4e420270b5ea74000d11b0c9f74754ebdbfc544b05a25861393d613954565b60405161394a9190613d2a565b60405180910390a1565b600033905090565b613964611ff2565b61399a576040517f8dfc202b00000000000000000000000000000000000000000000000000000000815260040160405180910390fd5b565b8280548282559060005260206000209081019282156139d8579160200282015b828111156139d75782518255916020019190600101906139bc565b5b5090506139e59190613a46565b5090565b6040518060a00160405280600073ffffffffffffffffffffffffffffffffffffffff168152602001600073ffffffffffffffffffffffffffffffffffffffff16815260200160608152602001606081526020016000151581525090565b5b80821115613a5f576000816000905550600101613a47565b5090565b600080fd5b600080fd5b6000819050919050565b613a8081613a6d565b8114613a8b57600080fd5b50565b600081359050613a9d81613a77565b92915050565b60008115159050919050565b613ab881613aa3565b8114613ac357600080fd5b50565b600081359050613ad581613aaf565b92915050565b60008060008060808587031215613af557613af4613a63565b5b6000613b0387828801613a8e565b9450506020613b1487828801613a8e565b9350506040613b2587828801613ac6565b9250506060613b3687828801613a8e565b91505092959194509250565b600080fd5b600080fd5b600080fd5b60008083601f840112613b6757613b66613b42565b5b8235905067ffffffffffffffff811115613b8457613b83613b47565b5b602083019150836020820283011115613ba057613b9f613b4c565b5b9250929050565b600073ffffffffffffffffffffffffffffffffffffffff82169050919050565b6000613bd282613ba7565b9050919050565b613be281613bc7565b8114613bed57600080fd5b50565b600081359050613bff81613bd9565b92915050565b600080600080600060608688031215613c2157613c20613a63565b5b600086013567ffffffffffffffff811115613c3f57613c3e613a68565b5b613c4b88828901613b51565b9550955050602086013567ffffffffffffffff811115613c6e57613c6d613a68565b5b613c7a88828901613b51565b93509350506040613c8d88828901613bf0565b9150509295509295909350565b600060208284031215613cb057613caf613a63565b5b6000613cbe84828501613a8e565b91505092915050565b613cd081613a6d565b82525050565b6000602082019050613ceb6000830184613cc7565b92915050565b613cfa81613aa3565b82525050565b6000602082019050613d156000830184613cf1565b92915050565b613d2481613bc7565b82525050565b6000602082019050613d3f6000830184613d1b565b92915050565b6000606082019050613d5a6000830186613d1b565b613d676020830185613d1b565b613d746040830184613cf1565b949350505050565b613d8581613bc7565b82525050565b600081519050919050565b600082825260208201905092915050565b6000819050602082019050919050565b613dc081613a6d565b82525050565b6000613dd28383613db7565b60208301905092915050565b6000602082019050919050565b6000613df682613d8b565b613e008185613d96565b9350613e0b83613da7565b8060005b83811015613e3c578151613e238882613dc6565b9750613e2e83613dde565b925050600181019050613e0f565b5085935050505092915050565b613e5281613aa3565b82525050565b600060a083016000830151613e706000860182613d7c565b506020830151613e836020860182613d7c565b5060408301518482036040860152613e9b8282613deb565b91505060608301518482036060860152613eb58282613deb565b9150506080830151613eca6080860182613e49565b508091505092915050565b60006020820190508181036000830152613eef8184613e58565b905092915050565b6000819050919050565b6000613f1c613f17613f1284613ba7565b613ef7565b613ba7565b9050919050565b6000613f2e82613f01565b9050919050565b6000613f4082613f23565b9050919050565b613f5081613f35565b82525050565b6000602082019050613f6b6000830184613f47565b92915050565b600060e082019050613f86600083018a613d1b565b613f936020830189613cc7565b613fa06040830188613cf1565b613fad6060830187613cc7565b613fba6080830186613d1b565b613fc760a0830185613cc7565b613fd460c0830184613cf1565b98975050505050505050565b600060208284031215613ff657613ff5613a63565b5b600061400484828501613bf0565b91505092915050565b600082825260208201905092915050565b7f5072696365206d757374206265203e2030000000000000000000000000000000600082015250565b600061405460118361400d565b915061405f8261401e565b602082019050919050565b6000602082019050818103600083015261408381614047565b9050919050565b600060608201905061409f6000830186613d1b565b6140ac6020830185613d1b565b6140b96040830184613cc7565b949350505050565b7f4e487b7100000000000000000000000000000000000000000000000000000000600052601160045260246000fd5b60006140fb82613a6d565b915061410683613a6d565b925082820190508082111561411e5761411d6140c1565b5b92915050565b60006040820190506141396000830185613cc7565b6141466020830184613cf1565b9392505050565b7f43616e6e6f742073776170206e6f7468696e6720666f72206e6f7468696e6700600082015250565b6000614183601f8361400d565b915061418e8261414d565b602082019050919050565b600060208201905081810360008301526141b281614176565b9050919050565b7f4e487b7100000000000000000000000000000000000000000000000000000000600052603260045260246000fd5b600082825260208201905092915050565b600080fd5b82818337505050565b600061421383856141e8565b93507f07ffffffffffffffffffffffffffffffffffffffffffffffffffffffffffffff831115614246576142456141f9565b5b6020830292506142578385846141fe565b82840190509392505050565b6000604082019050818103600083015261427e818688614207565b90508181036020830152614293818486614207565b905095945050505050565b60006142a982613a6d565b91507fffffffffffffffffffffffffffffffffffffffffffffffffffffffffffffffff82036142db576142da6140c1565b5b600182019050919050565b7f4e6f742061637469766500000000000000000000000000000000000000000000600082015250565b600061431c600a8361400d565b9150614327826142e6565b602082019050919050565b6000602082019050818103600083015261434b8161430f565b9050919050565b7f4e6f742073656c6c657200000000000000000000000000000000000000000000600082015250565b6000614388600a8361400d565b915061439382614352565b602082019050919050565b600060208201905081810360008301526143b78161437b565b9050919050565b7f43616e6e6f742063616e63656c2061756374696f6e2077697468206269647300600082015250565b60006143f4601f8361400d565b91506143ff826143be565b602082019050919050565b60006020820190508181036000830152614423816143e7565b9050919050565b7f4e6f2066756e647320746f207769746864726177000000000000000000000000600082015250565b600061446060148361400d565b915061446b8261442a565b602082019050919050565b6000602082019050818103600083015261448f81614453565b9050919050565b600081905092915050565b50565b60006144b1600083614496565b91506144bc826144a1565b600082019050919050565b60006144d2826144a4565b9150819050919050565b7f5472616e73666572206661696c65640000000000000000000000000000000000600082015250565b6000614512600f8361400d565b915061451d826144dc565b602082019050919050565b6000602082019050818103600083015261454181614505565b9050919050565b7f4e6f7420616e206163746976652061756374696f6e0000000000000000000000600082015250565b600061457e60158361400d565b915061458982614548565b602082019050919050565b600060208201905081810360008301526145ad81614571565b9050919050565b7f41756374696f6e20656e64656400000000000000000000000000000000000000600082015250565b60006145ea600d8361400d565b91506145f5826145b4565b602082019050919050565b60006020820190508181036000830152614619816145dd565b9050919050565b7f42696420746f6f206c6f77000000000000000000000000000000000000000000600082015250565b6000614656600b8361400d565b915061466182614620565b602082019050919050565b6000602082019050818103600083015261468581614649565b9050919050565b7f53776170206e6f74206163746976650000000000000000000000000000000000600082015250565b60006146c2600f8361400d565b91506146cd8261468c565b602082019050919050565b600060208201905081810360008301526146f1816146b5565b9050919050565b7f4e6f7420746865206f66666572206f776e657200000000000000000000000000600082015250565b600061472e60138361400d565b9150614739826146f8565b602082019050919050565b6000602082019050818103600083015261475d81614721565b9050919050565b7f54686973207472616465206973206e6f7420666f7220796f7500000000000000600082015250565b600061479a60198361400d565b91506147a582614764565b602082019050919050565b600060208201905081810360008301526147c98161478d565b9050919050565b7f4e6f74206163746976652061756374696f6e0000000000000000000000000000600082015250565b600061480660128361400d565b9150614811826147d0565b602082019050919050565b60006020820190508181036000830152614835816147f9565b9050919050565b7f41756374696f6e206f6e676f696e670000000000000000000000000000000000600082015250565b6000614872600f8361400d565b915061487d8261483c565b602082019050919050565b600060208201905081810360008301526148a181614865565b9050919050565b7f497320616e2061756374696f6e00000000000000000000000000000000000000600082015250565b60006148de600d8361400d565b91506148e9826148a8565b602082019050919050565b6000602082019050818103600083015261490d816148d1565b9050919050565b7f496e636f72726563742070726963650000000000000000000000000000000000600082015250565b600061494a600f8361400d565b915061495582614914565b602082019050919050565b600060208201905081810360008301526149798161493d565b905091905056fea26469706673582212203daf483a4836bbb20f9bb23a1fb5fe64c438a97c03f03c1af77ccfb574c8a67464736f6c63430008180033","opcodes":"PUSH1 0x80 PUSH1 0x40 MSTORE CALLVALUE DUP1 ISZERO PUSH3 0x11 JUMPI PUSH1 0x0 DUP1 REVERT JUMPDEST POP PUSH1 0x40 MLOAD PUSH3 0x4CA0 CODESIZE SUB DUP1 PUSH3 0x4CA0 DUP4 CODECOPY DUP2 DUP2 ADD PUSH1 0x40 MSTORE DUP2 ADD SWAP1 PUSH3 0x37 SWAP2 SWAP1 PUSH3 0x27A JUMP JUMPDEST CALLER PUSH1 0x1 PUSH1 0x0 DUP2 SWAP1 SSTORE POP PUSH1 0x0 PUSH20 0xFFFFFFFFFFFFFFFFFFFFFFFFFFFFFFFFFFFFFFFF AND DUP2 PUSH20 0xFFFFFFFFFFFFFFFFFFFFFFFFFFFFFFFFFFFFFFFF AND SUB PUSH3 0xB5 JUMPI PUSH1 0x0 PUSH1 0x40 MLOAD PUSH32 0x1E4FBDF700000000000000000000000000000000000000000000000000000000 DUP2 MSTORE PUSH1 0x4 ADD PUSH3 0xAC SWAP2 SWAP1 PUSH3 0x2BD JUMP JUMPDEST PUSH1 0x40 MLOAD DUP1 SWAP2 SUB SWAP1 REVERT JUMPDEST PUSH3 0xC6 DUP2 PUSH3 0x147 PUSH1 0x20 SHL PUSH1 0x20 SHR JUMP JUMPDEST POP PUSH3 0xE3 PUSH8 0xCAE1D4EBC941BFD9 PUSH1 0xC0 SHL PUSH3 0x20D PUSH1 0x20 SHL PUSH1 0x20 SHR JUMP JUMPDEST PUSH3 0xFF PUSH8 0x25B26BF6B2C5CBC PUSH1 0xC0 SHL PUSH3 0x20D PUSH1 0x20 SHL PUSH1 0x20 SHR JUMP JUMPDEST DUP1 PUSH1 0x2 PUSH1 0x0 PUSH2 0x100 EXP DUP2 SLOAD DUP2 PUSH20 0xFFFFFFFFFFFFFFFFFFFFFFFFFFFFFFFFFFFFFFFF MUL NOT AND SWAP1 DUP4 PUSH20 0xFFFFFFFFFFFFFFFFFFFFFFFFFFFFFFFFFFFFFFFF AND MUL OR SWAP1 SSTORE POP POP PUSH3 0x2DA JUMP JUMPDEST PUSH1 0x0 PUSH1 0x1 PUSH1 0x0 SWAP1 SLOAD SWAP1 PUSH2 0x100 EXP SWAP1 DIV PUSH20 0xFFFFFFFFFFFFFFFFFFFFFFFFFFFFFFFFFFFFFFFF AND SWAP1 POP DUP2 PUSH1 0x1 PUSH1 0x0 PUSH2 0x100 EXP DUP2 SLOAD DUP2 PUSH20 0xFFFFFFFFFFFFFFFFFFFFFFFFFFFFFFFFFFFFFFFF MUL NOT AND SWAP1 DUP4 PUSH20 0xFFFFFFFFFFFFFFFFFFFFFFFFFFFFFFFFFFFFFFFF AND MUL OR SWAP1 SSTORE POP DUP2 PUSH20 0xFFFFFFFFFFFFFFFFFFFFFFFFFFFFFFFFFFFFFFFF AND DUP2 PUSH20 0xFFFFFFFFFFFFFFFFFFFFFFFFFFFFFFFFFFFFFFFF AND PUSH32 0x8BE0079C531659141344CD1FD0A4F28419497F9722A3DAAFE3B4186F6B6457E0 PUSH1 0x40 MLOAD PUSH1 0x40 MLOAD DUP1 SWAP2 SUB SWAP1 LOG3 POP POP JUMP JUMPDEST POP JUMP JUMPDEST PUSH1 0x0 DUP1 REVERT JUMPDEST PUSH1 0x0 PUSH20 0xFFFFFFFFFFFFFFFFFFFFFFFFFFFFFFFFFFFFFFFF DUP3 AND SWAP1 POP SWAP2 SWAP1 POP JUMP JUMPDEST PUSH1 0x0 PUSH3 0x242 DUP3 PUSH3 0x215 JUMP JUMPDEST SWAP1 POP SWAP2 SWAP1 POP JUMP JUMPDEST PUSH3 0x254 DUP2 PUSH3 0x235 JUMP JUMPDEST DUP2 EQ PUSH3 0x260 JUMPI PUSH1 0x0 DUP1 REVERT JUMPDEST POP JUMP JUMPDEST PUSH1 0x0 DUP2 MLOAD SWAP1 POP PUSH3 0x274 DUP2 PUSH3 0x249 JUMP JUMPDEST SWAP3 SWAP2 POP POP JUMP JUMPDEST PUSH1 0x0 PUSH1 0x20 DUP3 DUP5 SUB SLT ISZERO PUSH3 0x293 JUMPI PUSH3 0x292 PUSH3 0x210 JUMP JUMPDEST JUMPDEST PUSH1 0x0 PUSH3 0x2A3 DUP5 DUP3 DUP6 ADD PUSH3 0x263 JUMP JUMPDEST SWAP2 POP POP SWAP3 SWAP2 POP POP JUMP JUMPDEST PUSH3 0x2B7 DUP2 PUSH3 0x235 JUMP JUMPDEST DUP3 MSTORE POP POP JUMP JUMPDEST PUSH1 0x0 PUSH1 0x20 DUP3 ADD SWAP1 POP PUSH3 0x2D4 PUSH1 0x0 DUP4 ADD DUP5 PUSH3 0x2AC JUMP JUMPDEST SWAP3 SWAP2 POP POP JUMP JUMPDEST PUSH2 0x49B6 DUP1 PUSH3 0x2EA PUSH1 0x0 CODECOPY PUSH1 0x0 RETURN INVALID PUSH1 0x80 PUSH1 0x40 MSTORE PUSH1 0x4 CALLDATASIZE LT PUSH2 0x12A JUMPI PUSH1 0x0 CALLDATALOAD PUSH1 0xE0 SHR DUP1 PUSH4 0x8456CB59 GT PUSH2 0xAB JUMPI DUP1 PUSH4 0xB9C52FCC GT PUSH2 0x6F JUMPI DUP1 PUSH4 0xB9C52FCC EQ PUSH2 0x35D JUMPI DUP1 PUSH4 0xC70F5EAA EQ PUSH2 0x39A JUMPI DUP1 PUSH4 0xD56D229D EQ PUSH2 0x3B6 JUMPI DUP1 PUSH4 0xDE74E57B EQ PUSH2 0x3E1 JUMPI DUP1 PUSH4 0xF2FDE38B EQ PUSH2 0x424 JUMPI DUP1 PUSH4 0xF3F43703 EQ PUSH2 0x44D JUMPI PUSH2 0x12A JUMP JUMPDEST DUP1 PUSH4 0x8456CB59 EQ PUSH2 0x28A JUMPI DUP1 PUSH4 0x8DA5CB5B EQ PUSH2 0x2A1 JUMPI DUP1 PUSH4 0xA13F1C62 EQ PUSH2 0x2CC JUMPI DUP1 PUSH4 0xA9AB232B EQ PUSH2 0x30B JUMPI DUP1 PUSH4 0xB9A2DE3A EQ PUSH2 0x334 JUMPI PUSH2 0x12A JUMP JUMPDEST DUP1 PUSH4 0x3F4BA83A GT PUSH2 0xF2 JUMPI DUP1 PUSH4 0x3F4BA83A EQ PUSH2 0x1EC JUMPI DUP1 PUSH4 0x454A2AB3 EQ PUSH2 0x203 JUMPI DUP1 PUSH4 0x54D6A2B7 EQ PUSH2 0x21F JUMPI DUP1 PUSH4 0x5C975ABB EQ PUSH2 0x248 JUMPI DUP1 PUSH4 0x715018A6 EQ PUSH2 0x273 JUMPI PUSH2 0x12A JUMP JUMPDEST DUP1 PUSH4 0x1E268D88 EQ PUSH2 0x12F JUMPI DUP1 PUSH4 0x2B3C65C3 EQ PUSH2 0x158 JUMPI DUP1 PUSH4 0x305A67A8 EQ PUSH2 0x181 JUMPI DUP1 PUSH4 0x33BCE8C3 EQ PUSH2 0x1AA JUMPI DUP1 PUSH4 0x3CCFD60B EQ PUSH2 0x1D5 JUMPI JUMPDEST PUSH1 0x0 DUP1 REVERT JUMPDEST CALLVALUE DUP1 ISZERO PUSH2 0x13B JUMPI PUSH1 0x0 DUP1 REVERT JUMPDEST POP PUSH2 0x156 PUSH1 0x4 DUP1 CALLDATASIZE SUB DUP2 ADD SWAP1 PUSH2 0x151 SWAP2 SWAP1 PUSH2 0x3ADB JUMP JUMPDEST PUSH2 0x48A JUMP JUMPDEST STOP JUMPDEST CALLVALUE DUP1 ISZERO PUSH2 0x164 JUMPI PUSH1 0x0 DUP1 REVERT JUMPDEST POP PUSH2 0x17F PUSH1 0x4 DUP1 CALLDATASIZE SUB DUP2 ADD SWAP1 PUSH2 0x17A SWAP2 SWAP1 PUSH2 0x3C05 JUMP JUMPDEST PUSH2 0x8CA JUMP JUMPDEST STOP JUMPDEST CALLVALUE DUP1 ISZERO PUSH2 0x18D JUMPI PUSH1 0x0 DUP1 REVERT JUMPDEST POP PUSH2 0x1A8 PUSH1 0x4 DUP1 CALLDATASIZE SUB DUP2 ADD SWAP1 PUSH2 0x1A3 SWAP2 SWAP1 PUSH2 0x3C9A JUMP JUMPDEST PUSH2 0xDED JUMP JUMPDEST STOP JUMPDEST CALLVALUE DUP1 ISZERO PUSH2 0x1B6 JUMPI PUSH1 0x0 DUP1 REVERT JUMPDEST POP PUSH2 0x1BF PUSH2 0x1289 JUMP JUMPDEST PUSH1 0x40 MLOAD PUSH2 0x1CC SWAP2 SWAP1 PUSH2 0x3CD6 JUMP JUMPDEST PUSH1 0x40 MLOAD DUP1 SWAP2 SUB SWAP1 RETURN JUMPDEST CALLVALUE DUP1 ISZERO PUSH2 0x1E1 JUMPI PUSH1 0x0 DUP1 REVERT JUMPDEST POP PUSH2 0x1EA PUSH2 0x128F JUMP JUMPDEST STOP JUMPDEST CALLVALUE DUP1 ISZERO PUSH2 0x1F8 JUMPI PUSH1 0x0 DUP1 REVERT JUMPDEST POP PUSH2 0x201 PUSH2 0x158B JUMP JUMPDEST STOP JUMPDEST PUSH2 0x21D PUSH1 0x4 DUP1 CALLDATASIZE SUB DUP2 ADD SWAP1 PUSH2 0x218 SWAP2 SWAP1 PUSH2 0x3C9A JUMP JUMPDEST PUSH2 0x1601 JUMP JUMPDEST STOP JUMPDEST CALLVALUE DUP1 ISZERO PUSH2 0x22B JUMPI PUSH1 0x0 DUP1 REVERT JUMPDEST POP PUSH2 0x246 PUSH1 0x4 DUP1 CALLDATASIZE SUB DUP2 ADD SWAP1 PUSH2 0x241 SWAP2 SWAP1 PUSH2 0x3C9A JUMP JUMPDEST PUSH2 0x1C09 JUMP JUMPDEST STOP JUMPDEST CALLVALUE DUP1 ISZERO PUSH2 0x254 JUMPI PUSH1 0x0 DUP1 REVERT JUMPDEST POP PUSH2 0x25D PUSH2 0x1FF2 JUMP JUMPDEST PUSH1 0x40 MLOAD PUSH2 0x26A SWAP2 SWAP1 PUSH2 0x3D00 JUMP JUMPDEST PUSH1 0x40 MLOAD DUP1 SWAP2 SUB SWAP1 RETURN JUMPDEST CALLVALUE DUP1 ISZERO PUSH2 0x27F JUMPI PUSH1 0x0 DUP1 REVERT JUMPDEST POP PUSH2 0x288 PUSH2 0x2009 JUMP JUMPDEST STOP JUMPDEST CALLVALUE DUP1 ISZERO PUSH2 0x296 JUMPI PUSH1 0x0 DUP1 REVERT JUMPDEST POP PUSH2 0x29F PUSH2 0x201D JUMP JUMPDEST STOP JUMPDEST CALLVALUE DUP1 ISZERO PUSH2 0x2AD JUMPI PUSH1 0x0 DUP1 REVERT JUMPDEST POP PUSH2 0x2B6 PUSH2 0x2093 JUMP JUMPDEST PUSH1 0x40 MLOAD PUSH2 0x2C3 SWAP2 SWAP1 PUSH2 0x3D2A JUMP JUMPDEST PUSH1 0x40 MLOAD DUP1 SWAP2 SUB SWAP1 RETURN JUMPDEST CALLVALUE DUP1 ISZERO PUSH2 0x2D8 JUMPI PUSH1 0x0 DUP1 REVERT JUMPDEST POP PUSH2 0x2F3 PUSH1 0x4 DUP1 CALLDATASIZE SUB DUP2 ADD SWAP1 PUSH2 0x2EE SWAP2 SWAP1 PUSH2 0x3C9A JUMP JUMPDEST PUSH2 0x20BD JUMP JUMPDEST PUSH1 0x40 MLOAD PUSH2 0x302 SWAP4 SWAP3 SWAP2 SWAP1 PUSH2 0x3D45 JUMP JUMPDEST PUSH1 0x40 MLOAD DUP1 SWAP2 SUB SWAP1 RETURN JUMPDEST CALLVALUE DUP1 ISZERO PUSH2 0x317 JUMPI PUSH1 0x0 DUP1 REVERT JUMPDEST POP PUSH2 0x332 PUSH1 0x4 DUP1 CALLDATASIZE SUB DUP2 ADD SWAP1 PUSH2 0x32D SWAP2 SWAP1 PUSH2 0x3C9A JUMP JUMPDEST PUSH2 0x2134 JUMP JUMPDEST STOP JUMPDEST CALLVALUE DUP1 ISZERO PUSH2 0x340 JUMPI PUSH1 0x0 DUP1 REVERT JUMPDEST POP PUSH2 0x35B PUSH1 0x4 DUP1 CALLDATASIZE SUB DUP2 ADD SWAP1 PUSH2 0x356 SWAP2 SWAP1 PUSH2 0x3C9A JUMP JUMPDEST PUSH2 0x2727 JUMP JUMPDEST STOP JUMPDEST CALLVALUE DUP1 ISZERO PUSH2 0x369 JUMPI PUSH1 0x0 DUP1 REVERT JUMPDEST POP PUSH2 0x384 PUSH1 0x4 DUP1 CALLDATASIZE SUB DUP2 ADD SWAP1 PUSH2 0x37F SWAP2 SWAP1 PUSH2 0x3C9A JUMP JUMPDEST PUSH2 0x2E1A JUMP JUMPDEST PUSH1 0x40 MLOAD PUSH2 0x391 SWAP2 SWAP1 PUSH2 0x3ED5 JUMP JUMPDEST PUSH1 0x40 MLOAD DUP1 SWAP2 SUB SWAP1 RETURN JUMPDEST PUSH2 0x3B4 PUSH1 0x4 DUP1 CALLDATASIZE SUB DUP2 ADD SWAP1 PUSH2 0x3AF SWAP2 SWAP1 PUSH2 0x3C9A JUMP JUMPDEST PUSH2 0x2FFA JUMP JUMPDEST STOP JUMPDEST CALLVALUE DUP1 ISZERO PUSH2 0x3C2 JUMPI PUSH1 0x0 DUP1 REVERT JUMPDEST POP PUSH2 0x3CB PUSH2 0x353C JUMP JUMPDEST PUSH1 0x40 MLOAD PUSH2 0x3D8 SWAP2 SWAP1 PUSH2 0x3F56 JUMP JUMPDEST PUSH1 0x40 MLOAD DUP1 SWAP2 SUB SWAP1 RETURN JUMPDEST CALLVALUE DUP1 ISZERO PUSH2 0x3ED JUMPI PUSH1 0x0 DUP1 REVERT JUMPDEST POP PUSH2 0x408 PUSH1 0x4 DUP1 CALLDATASIZE SUB DUP2 ADD SWAP1 PUSH2 0x403 SWAP2 SWAP1 PUSH2 0x3C9A JUMP JUMPDEST PUSH2 0x3562 JUMP JUMPDEST PUSH1 0x40 MLOAD PUSH2 0x41B SWAP8 SWAP7 SWAP6 SWAP5 SWAP4 SWAP3 SWAP2 SWAP1 PUSH2 0x3F71 JUMP JUMPDEST PUSH1 0x40 MLOAD DUP1 SWAP2 SUB SWAP1 RETURN JUMPDEST CALLVALUE DUP1 ISZERO PUSH2 0x430 JUMPI PUSH1 0x0 DUP1 REVERT JUMPDEST POP PUSH2 0x44B PUSH1 0x4 DUP1 CALLDATASIZE SUB DUP2 ADD SWAP1 PUSH2 0x446 SWAP2 SWAP1 PUSH2 0x3FE0 JUMP JUMPDEST PUSH2 0x35FE JUMP JUMPDEST STOP JUMPDEST CALLVALUE DUP1 ISZERO PUSH2 0x459 JUMPI PUSH1 0x0 DUP1 REVERT JUMPDEST POP PUSH2 0x474 PUSH1 0x4 DUP1 CALLDATASIZE SUB DUP2 ADD SWAP1 PUSH2 0x46F SWAP2 SWAP1 PUSH2 0x3FE0 JUMP JUMPDEST PUSH2 0x3684 JUMP JUMPDEST PUSH1 0x40 MLOAD PUSH2 0x481 SWAP2 SWAP1 PUSH2 0x3CD6 JUMP JUMPDEST PUSH1 0x40 MLOAD DUP1 SWAP2 SUB SWAP1 RETURN JUMPDEST PUSH2 0x49E PUSH8 0x2A4A0B18C4C3704F PUSH1 0xC0 SHL PUSH2 0x369C JUMP JUMPDEST PUSH2 0x4A6 PUSH2 0x369F JUMP JUMPDEST PUSH2 0x4BA PUSH8 0x6621892FB74B82BB PUSH1 0xC0 SHL PUSH2 0x369C JUMP JUMPDEST PUSH2 0x4CE PUSH8 0xE24479D2F5938530 PUSH1 0xC0 SHL PUSH2 0x369C JUMP JUMPDEST PUSH2 0x4D6 PUSH2 0x36E5 JUMP JUMPDEST PUSH2 0x4EA PUSH8 0x3E64C0B92641FFAE PUSH1 0xC0 SHL PUSH2 0x369C JUMP JUMPDEST PUSH2 0x4FE PUSH8 0x2917F52702A428B1 PUSH1 0xC0 SHL PUSH2 0x369C JUMP JUMPDEST PUSH2 0x512 PUSH8 0x6D766321F58EA6A6 PUSH1 0xC0 SHL PUSH2 0x369C JUMP JUMPDEST PUSH2 0x526 PUSH8 0xF86975D1EDBD870E PUSH1 0xC0 SHL PUSH2 0x369C JUMP JUMPDEST PUSH2 0x53A PUSH8 0x5FBD46EFE339DEB PUSH1 0xC0 SHL PUSH2 0x369C JUMP JUMPDEST PUSH1 0x0 DUP4 GT PUSH2 0x57D JUMPI PUSH1 0x40 MLOAD PUSH32 0x8C379A000000000000000000000000000000000000000000000000000000000 DUP2 MSTORE PUSH1 0x4 ADD PUSH2 0x574 SWAP1 PUSH2 0x406A JUMP JUMPDEST PUSH1 0x40 MLOAD DUP1 SWAP2 SUB SWAP1 REVERT JUMPDEST PUSH2 0x591 PUSH8 0x64EC2F37A03DA2DA PUSH1 0xC0 SHL PUSH2 0x369C JUMP JUMPDEST PUSH2 0x5A5 PUSH8 0x9CF5E69E5C5A7DA4 PUSH1 0xC0 SHL PUSH2 0x369C JUMP JUMPDEST PUSH2 0x5B9 PUSH8 0xD7B2162E2A3DA0A9 PUSH1 0xC0 SHL PUSH2 0x369C JUMP JUMPDEST PUSH1 0x2 PUSH1 0x0 SWAP1 SLOAD SWAP1 PUSH2 0x100 EXP SWAP1 DIV PUSH20 0xFFFFFFFFFFFFFFFFFFFFFFFFFFFFFFFFFFFFFFFF AND PUSH20 0xFFFFFFFFFFFFFFFFFFFFFFFFFFFFFFFFFFFFFFFF AND PUSH4 0x23B872DD CALLER ADDRESS DUP8 PUSH1 0x40 MLOAD DUP5 PUSH4 0xFFFFFFFF AND PUSH1 0xE0 SHL DUP2 MSTORE PUSH1 0x4 ADD PUSH2 0x618 SWAP4 SWAP3 SWAP2 SWAP1 PUSH2 0x408A JUMP JUMPDEST PUSH1 0x0 PUSH1 0x40 MLOAD DUP1 DUP4 SUB DUP2 PUSH1 0x0 DUP8 DUP1 EXTCODESIZE ISZERO DUP1 ISZERO PUSH2 0x632 JUMPI PUSH1 0x0 DUP1 REVERT JUMPDEST POP GAS CALL ISZERO DUP1 ISZERO PUSH2 0x646 JUMPI RETURNDATASIZE PUSH1 0x0 DUP1 RETURNDATACOPY RETURNDATASIZE PUSH1 0x0 REVERT JUMPDEST POP POP POP POP PUSH2 0x65E PUSH8 0xDE385BD96B169E78 PUSH1 0xC0 SHL PUSH2 0x369C JUMP JUMPDEST PUSH2 0x672 PUSH8 0x37C8163F9102DE11 PUSH1 0xC0 SHL PUSH2 0x369C JUMP JUMPDEST PUSH1 0x0 DUP3 DUP1 PUSH2 0x690 JUMPI POP PUSH2 0x68F PUSH8 0x15C171ADE34054FB PUSH1 0xC0 SHL PUSH2 0x3726 JUMP JUMPDEST JUMPDEST DUP1 ISZERO PUSH2 0x6AC JUMPI POP PUSH2 0x6AB PUSH8 0x8C399AD7FB318CA6 PUSH1 0xC0 SHL PUSH2 0x372D JUMP JUMPDEST JUMPDEST PUSH2 0x6B7 JUMPI PUSH1 0x0 PUSH2 0x6C4 JUMP JUMPDEST DUP2 TIMESTAMP PUSH2 0x6C3 SWAP2 SWAP1 PUSH2 0x40F0 JUMP JUMPDEST JUMPDEST SWAP1 POP PUSH2 0x6DA PUSH8 0xA53A5333C826FCD0 PUSH1 0xC0 SHL PUSH2 0x369C JUMP JUMPDEST PUSH1 0x40 MLOAD DUP1 PUSH1 0xE0 ADD PUSH1 0x40 MSTORE DUP1 CALLER PUSH20 0xFFFFFFFFFFFFFFFFFFFFFFFFFFFFFFFFFFFFFFFF AND DUP2 MSTORE PUSH1 0x20 ADD DUP6 DUP2 MSTORE PUSH1 0x20 ADD DUP5 ISZERO ISZERO DUP2 MSTORE PUSH1 0x20 ADD DUP3 DUP2 MSTORE PUSH1 0x20 ADD PUSH1 0x0 PUSH20 0xFFFFFFFFFFFFFFFFFFFFFFFFFFFFFFFFFFFFFFFF AND DUP2 MSTORE PUSH1 0x20 ADD PUSH1 0x0 DUP2 MSTORE PUSH1 0x20 ADD PUSH1 0x1 ISZERO ISZERO DUP2 MSTORE POP PUSH1 0x3 PUSH1 0x0 DUP8 DUP2 MSTORE PUSH1 0x20 ADD SWAP1 DUP2 MSTORE PUSH1 0x20 ADD PUSH1 0x0 KECCAK256 PUSH1 0x0 DUP3 ADD MLOAD DUP2 PUSH1 0x0 ADD PUSH1 0x0 PUSH2 0x100 EXP DUP2 SLOAD DUP2 PUSH20 0xFFFFFFFFFFFFFFFFFFFFFFFFFFFFFFFFFFFFFFFF MUL NOT AND SWAP1 DUP4 PUSH20 0xFFFFFFFFFFFFFFFFFFFFFFFFFFFFFFFFFFFFFFFF AND MUL OR SWAP1 SSTORE POP PUSH1 0x20 DUP3 ADD MLOAD DUP2 PUSH1 0x1 ADD SSTORE PUSH1 0x40 DUP3 ADD MLOAD DUP2 PUSH1 0x2 ADD PUSH1 0x0 PUSH2 0x100 EXP DUP2 SLOAD DUP2 PUSH1 0xFF MUL NOT AND SWAP1 DUP4 ISZERO ISZERO MUL OR SWAP1 SSTORE POP PUSH1 0x60 DUP3 ADD MLOAD DUP2 PUSH1 0x3 ADD SSTORE PUSH1 0x80 DUP3 ADD MLOAD DUP2 PUSH1 0x4 ADD PUSH1 0x0 PUSH2 0x100 EXP DUP2 SLOAD DUP2 PUSH20 0xFFFFFFFFFFFFFFFFFFFFFFFFFFFFFFFFFFFFFFFF MUL NOT AND SWAP1 DUP4 PUSH20 0xFFFFFFFFFFFFFFFFFFFFFFFFFFFFFFFFFFFFFFFF AND MUL OR SWAP1 SSTORE POP PUSH1 0xA0 DUP3 ADD MLOAD DUP2 PUSH1 0x5 ADD SSTORE PUSH1 0xC0 DUP3 ADD MLOAD DUP2 PUSH1 0x6 ADD PUSH1 0x0 PUSH2 0x100 EXP DUP2 SLOAD DUP2 PUSH1 0xFF MUL NOT AND SWAP1 DUP4 ISZERO ISZERO MUL OR SWAP1 SSTORE POP SWAP1 POP POP PUSH2 0x856 PUSH8 0xB090F1928D732703 PUSH1 0xC0 SHL PUSH2 0x369C JUMP JUMPDEST PUSH2 0x86A PUSH8 0xF2E0B5A33A3EB9B4 PUSH1 0xC0 SHL PUSH2 0x369C JUMP JUMPDEST CALLER PUSH20 0xFFFFFFFFFFFFFFFFFFFFFFFFFFFFFFFFFFFFFFFF AND DUP6 PUSH32 0xDE26DAE6625B1E67B90231DB575F3AEA0809A265B75B7F6AEF09E9B73F19F0A1 DUP7 DUP7 PUSH1 0x40 MLOAD PUSH2 0x8B3 SWAP3 SWAP2 SWAP1 PUSH2 0x4124 JUMP JUMPDEST PUSH1 0x40 MLOAD DUP1 SWAP2 SUB SWAP1 LOG3 POP PUSH2 0x8C4 PUSH2 0x3738 JUMP JUMPDEST POP POP POP POP JUMP JUMPDEST PUSH2 0x8DE PUSH8 0xD9FCD0888E016286 PUSH1 0xC0 SHL PUSH2 0x369C JUMP JUMPDEST PUSH2 0x8E6 PUSH2 0x369F JUMP JUMPDEST PUSH2 0x8FA PUSH8 0x11FE64E9E346B90 PUSH1 0xC0 SHL PUSH2 0x369C JUMP JUMPDEST PUSH2 0x90E PUSH8 0x17E82EDCF24D0B1B PUSH1 0xC0 SHL PUSH2 0x369C JUMP JUMPDEST PUSH2 0x916 PUSH2 0x36E5 JUMP JUMPDEST PUSH2 0x92A PUSH8 0x90CF243DFFA040AE PUSH1 0xC0 SHL PUSH2 0x369C JUMP JUMPDEST PUSH2 0x93E PUSH8 0xE5C91FA95B3C42D7 PUSH1 0xC0 SHL PUSH2 0x369C JUMP JUMPDEST PUSH2 0x952 PUSH8 0x5B8B57A6A972A646 PUSH1 0xC0 SHL PUSH2 0x369C JUMP JUMPDEST PUSH2 0x966 PUSH8 0x639B407F2D7FD164 PUSH1 0xC0 SHL PUSH2 0x369C JUMP JUMPDEST PUSH2 0x97A PUSH8 0x3C7C5A3C2EBD496D PUSH1 0xC0 SHL PUSH2 0x369C JUMP JUMPDEST PUSH1 0x0 DUP6 DUP6 SWAP1 POP GT DUP1 ISZERO PUSH2 0x99D JUMPI POP PUSH2 0x99C PUSH8 0xBC758BF08213523D PUSH1 0xC0 SHL PUSH2 0x372D JUMP JUMPDEST JUMPDEST DUP1 PUSH2 0x9C7 JUMPI POP PUSH1 0x0 DUP4 DUP4 SWAP1 POP GT DUP1 ISZERO PUSH2 0x9C6 JUMPI POP PUSH2 0x9C5 PUSH8 0xABB9A8D924999D9C PUSH1 0xC0 SHL PUSH2 0x372D JUMP JUMPDEST JUMPDEST JUMPDEST PUSH2 0xA06 JUMPI PUSH1 0x40 MLOAD PUSH32 0x8C379A000000000000000000000000000000000000000000000000000000000 DUP2 MSTORE PUSH1 0x4 ADD PUSH2 0x9FD SWAP1 PUSH2 0x4199 JUMP JUMPDEST PUSH1 0x40 MLOAD DUP1 SWAP2 SUB SWAP1 REVERT JUMPDEST PUSH2 0xA1A PUSH8 0x163CD83FBCCFE6E0 PUSH1 0xC0 SHL PUSH2 0x369C JUMP JUMPDEST PUSH2 0xA2E PUSH8 0x744B4DFB71E9DA1B PUSH1 0xC0 SHL PUSH2 0x369C JUMP JUMPDEST PUSH2 0xA42 PUSH8 0xDC8EE1023ACCD817 PUSH1 0xC0 SHL PUSH2 0x369C JUMP JUMPDEST PUSH1 0x0 JUMPDEST DUP6 DUP6 SWAP1 POP DUP2 LT ISZERO PUSH2 0xB2F JUMPI PUSH2 0xA64 PUSH8 0x2F0F46492BE1E897 PUSH1 0xC0 SHL PUSH2 0x369C JUMP JUMPDEST PUSH2 0xA78 PUSH8 0x1376E4BD9C01BA53 PUSH1 0xC0 SHL PUSH2 0x369C JUMP JUMPDEST PUSH1 0x2 PUSH1 0x0 SWAP1 SLOAD SWAP1 PUSH2 0x100 EXP SWAP1 DIV PUSH20 0xFFFFFFFFFFFFFFFFFFFFFFFFFFFFFFFFFFFFFFFF AND PUSH20 0xFFFFFFFFFFFFFFFFFFFFFFFFFFFFFFFFFFFFFFFF AND PUSH4 0x23B872DD CALLER ADDRESS DUP10 DUP10 DUP7 DUP2 DUP2 LT PUSH2 0xACB JUMPI PUSH2 0xACA PUSH2 0x41B9 JUMP JUMPDEST JUMPDEST SWAP1 POP PUSH1 0x20 MUL ADD CALLDATALOAD PUSH1 0x40 MLOAD DUP5 PUSH4 0xFFFFFFFF AND PUSH1 0xE0 SHL DUP2 MSTORE PUSH1 0x4 ADD PUSH2 0xAF0 SWAP4 SWAP3 SWAP2 SWAP1 PUSH2 0x408A JUMP JUMPDEST PUSH1 0x0 PUSH1 0x40 MLOAD DUP1 DUP4 SUB DUP2 PUSH1 0x0 DUP8 DUP1 EXTCODESIZE ISZERO DUP1 ISZERO PUSH2 0xB0A JUMPI PUSH1 0x0 DUP1 REVERT JUMPDEST POP GAS CALL ISZERO DUP1 ISZERO PUSH2 0xB1E JUMPI RETURNDATASIZE PUSH1 0x0 DUP1 RETURNDATACOPY RETURNDATASIZE PUSH1 0x0 REVERT JUMPDEST POP POP POP POP DUP1 DUP1 PUSH1 0x1 ADD SWAP2 POP POP PUSH2 0xA45 JUMP JUMPDEST POP PUSH2 0xB44 PUSH8 0x6B87A46CB917A017 PUSH1 0xC0 SHL PUSH2 0x369C JUMP JUMPDEST PUSH1 0x40 MLOAD DUP1 PUSH1 0xA0 ADD PUSH1 0x40 MSTORE DUP1 CALLER PUSH20 0xFFFFFFFFFFFFFFFFFFFFFFFFFFFFFFFFFFFFFFFF AND DUP2 MSTORE PUSH1 0x20 ADD DUP3 PUSH20 0xFFFFFFFFFFFFFFFFFFFFFFFFFFFFFFFFFFFFFFFF AND DUP2 MSTORE PUSH1 0x20 ADD DUP7 DUP7 DUP1 DUP1 PUSH1 0x20 MUL PUSH1 0x20 ADD PUSH1 0x40 MLOAD SWAP1 DUP2 ADD PUSH1 0x40 MSTORE DUP1 SWAP4 SWAP3 SWAP2 SWAP1 DUP2 DUP2 MSTORE PUSH1 0x20 ADD DUP4 DUP4 PUSH1 0x20 MUL DUP1 DUP3 DUP5 CALLDATACOPY PUSH1 0x0 DUP2 DUP5 ADD MSTORE PUSH1 0x1F NOT PUSH1 0x1F DUP3 ADD AND SWAP1 POP DUP1 DUP4 ADD SWAP3 POP POP POP POP POP POP POP DUP2 MSTORE PUSH1 0x20 ADD DUP5 DUP5 DUP1 DUP1 PUSH1 0x20 MUL PUSH1 0x20 ADD PUSH1 0x40 MLOAD SWAP1 DUP2 ADD PUSH1 0x40 MSTORE DUP1 SWAP4 SWAP3 SWAP2 SWAP1 DUP2 DUP2 MSTORE PUSH1 0x20 ADD DUP4 DUP4 PUSH1 0x20 MUL DUP1 DUP3 DUP5 CALLDATACOPY PUSH1 0x0 DUP2 DUP5 ADD MSTORE PUSH1 0x1F NOT PUSH1 0x1F DUP3 ADD AND SWAP1 POP DUP1 DUP4 ADD SWAP3 POP POP POP POP POP POP POP DUP2 MSTORE PUSH1 0x20 ADD PUSH1 0x1 ISZERO ISZERO DUP2 MSTORE POP PUSH1 0x5 PUSH1 0x0 PUSH1 0x6 SLOAD DUP2 MSTORE PUSH1 0x20 ADD SWAP1 DUP2 MSTORE PUSH1 0x20 ADD PUSH1 0x0 KECCAK256 PUSH1 0x0 DUP3 ADD MLOAD DUP2 PUSH1 0x0 ADD PUSH1 0x0 PUSH2 0x100 EXP DUP2 SLOAD DUP2 PUSH20 0xFFFFFFFFFFFFFFFFFFFFFFFFFFFFFFFFFFFFFFFF MUL NOT AND SWAP1 DUP4 PUSH20 0xFFFFFFFFFFFFFFFFFFFFFFFFFFFFFFFFFFFFFFFF AND MUL OR SWAP1 SSTORE POP PUSH1 0x20 DUP3 ADD MLOAD DUP2 PUSH1 0x1 ADD PUSH1 0x0 PUSH2 0x100 EXP DUP2 SLOAD DUP2 PUSH20 0xFFFFFFFFFFFFFFFFFFFFFFFFFFFFFFFFFFFFFFFF MUL NOT AND SWAP1 DUP4 PUSH20 0xFFFFFFFFFFFFFFFFFFFFFFFFFFFFFFFFFFFFFFFF AND MUL OR SWAP1 SSTORE POP PUSH1 0x40 DUP3 ADD MLOAD DUP2 PUSH1 0x2 ADD SWAP1 DUP1 MLOAD SWAP1 PUSH1 0x20 ADD SWAP1 PUSH2 0xCDB SWAP3 SWAP2 SWAP1 PUSH2 0x399C JUMP JUMPDEST POP PUSH1 0x60 DUP3 ADD MLOAD DUP2 PUSH1 0x3 ADD SWAP1 DUP1 MLOAD SWAP1 PUSH1 0x20 ADD SWAP1 PUSH2 0xCF8 SWAP3 SWAP2 SWAP1 PUSH2 0x399C JUMP JUMPDEST POP PUSH1 0x80 DUP3 ADD MLOAD DUP2 PUSH1 0x4 ADD PUSH1 0x0 PUSH2 0x100 EXP DUP2 SLOAD DUP2 PUSH1 0xFF MUL NOT AND SWAP1 DUP4 ISZERO ISZERO MUL OR SWAP1 SSTORE POP SWAP1 POP POP PUSH2 0xD30 PUSH8 0xBA72DA3C0EB94845 PUSH1 0xC0 SHL PUSH2 0x369C JUMP JUMPDEST PUSH2 0xD44 PUSH8 0x9289A3C5B5ECAC9C PUSH1 0xC0 SHL PUSH2 0x369C JUMP JUMPDEST DUP1 PUSH20 0xFFFFFFFFFFFFFFFFFFFFFFFFFFFFFFFFFFFFFFFF AND CALLER PUSH20 0xFFFFFFFFFFFFFFFFFFFFFFFFFFFFFFFFFFFFFFFF AND PUSH1 0x6 SLOAD PUSH32 0x3DE13318BE2B735F2BCD30511BC7D0705CDB59D81FC79BB7BF5B140A06DB5030 DUP9 DUP9 DUP9 DUP9 PUSH1 0x40 MLOAD PUSH2 0xDAA SWAP5 SWAP4 SWAP3 SWAP2 SWAP1 PUSH2 0x4263 JUMP JUMPDEST PUSH1 0x40 MLOAD DUP1 SWAP2 SUB SWAP1 LOG4 PUSH2 0xDC6 PUSH8 0xE0B5771AE739EA43 PUSH1 0xC0 SHL PUSH2 0x369C JUMP JUMPDEST PUSH1 0x6 PUSH1 0x0 DUP2 SLOAD DUP1 SWAP3 SWAP2 SWAP1 PUSH2 0xDD9 SWAP1 PUSH2 0x429E JUMP JUMPDEST SWAP2 SWAP1 POP SSTORE POP PUSH2 0xDE6 PUSH2 0x3738 JUMP JUMPDEST POP POP POP POP POP JUMP JUMPDEST PUSH2 0xE01 PUSH8 0x4AD18E209B9467A1 PUSH1 0xC0 SHL PUSH2 0x369C JUMP JUMPDEST PUSH2 0xE09 PUSH2 0x369F JUMP JUMPDEST PUSH2 0xE1D PUSH8 0x4CB3C29F606EC60C PUSH1 0xC0 SHL PUSH2 0x369C JUMP JUMPDEST PUSH2 0xE31 PUSH8 0x88C5081BBB74D7DC PUSH1 0xC0 SHL PUSH2 0x369C JUMP JUMPDEST PUSH2 0xE39 PUSH2 0x36E5 JUMP JUMPDEST PUSH2 0xE4D PUSH8 0x11647496ECF3C7E7 PUSH1 0xC0 SHL PUSH2 0x369C JUMP JUMPDEST PUSH2 0xE61 PUSH8 0xF83A0511463FEA2B PUSH1 0xC0 SHL PUSH2 0x369C JUMP JUMPDEST PUSH2 0xE75 PUSH8 0xFC7C348EA8383A37 PUSH1 0xC0 SHL PUSH2 0x369C JUMP JUMPDEST PUSH2 0xE89 PUSH8 0x1A42AFAEF47CAEC2 PUSH1 0xC0 SHL PUSH2 0x369C JUMP JUMPDEST PUSH1 0x0 PUSH1 0x3 PUSH1 0x0 DUP4 DUP2 MSTORE PUSH1 0x20 ADD SWAP1 DUP2 MSTORE PUSH1 0x20 ADD PUSH1 0x0 KECCAK256 SWAP1 POP PUSH2 0xEB4 PUSH8 0xFFD7A61143C4B42D PUSH1 0xC0 SHL PUSH2 0x369C JUMP JUMPDEST PUSH2 0xEC8 PUSH8 0x8965C62C8AF9E9AD PUSH1 0xC0 SHL PUSH2 0x369C JUMP JUMPDEST PUSH2 0xEDC PUSH8 0xD0CAC82FA71A7B02 PUSH1 0xC0 SHL PUSH2 0x369C JUMP JUMPDEST DUP1 PUSH1 0x6 ADD PUSH1 0x0 SWAP1 SLOAD SWAP1 PUSH2 0x100 EXP SWAP1 DIV PUSH1 0xFF AND PUSH2 0xF2D JUMPI PUSH1 0x40 MLOAD PUSH32 0x8C379A000000000000000000000000000000000000000000000000000000000 DUP2 MSTORE PUSH1 0x4 ADD PUSH2 0xF24 SWAP1 PUSH2 0x4332 JUMP JUMPDEST PUSH1 0x40 MLOAD DUP1 SWAP2 SUB SWAP1 REVERT JUMPDEST PUSH2 0xF41 PUSH8 0xA0FCE07EF03530F7 PUSH1 0xC0 SHL PUSH2 0x369C JUMP JUMPDEST PUSH2 0xF55 PUSH8 0x8BCD0A6DC0647E8A PUSH1 0xC0 SHL PUSH2 0x369C JUMP JUMPDEST PUSH2 0xF69 PUSH8 0x8C1B1C80692C595D PUSH1 0xC0 SHL PUSH2 0x369C JUMP JUMPDEST PUSH2 0xF7D PUSH8 0x7BDCEC594E2C1873 PUSH1 0xC0 SHL PUSH2 0x369C JUMP JUMPDEST CALLER PUSH20 0xFFFFFFFFFFFFFFFFFFFFFFFFFFFFFFFFFFFFFFFF AND DUP2 PUSH1 0x0 ADD PUSH1 0x0 SWAP1 SLOAD SWAP1 PUSH2 0x100 EXP SWAP1 DIV PUSH20 0xFFFFFFFFFFFFFFFFFFFFFFFFFFFFFFFFFFFFFFFF AND PUSH20 0xFFFFFFFFFFFFFFFFFFFFFFFFFFFFFFFFFFFFFFFF AND EQ PUSH2 0x100F JUMPI PUSH1 0x40 MLOAD PUSH32 0x8C379A000000000000000000000000000000000000000000000000000000000 DUP2 MSTORE PUSH1 0x4 ADD PUSH2 0x1006 SWAP1 PUSH2 0x439E JUMP JUMPDEST PUSH1 0x40 MLOAD DUP1 SWAP2 SUB SWAP1 REVERT JUMPDEST PUSH2 0x1023 PUSH8 0xE651215470BC9076 PUSH1 0xC0 SHL PUSH2 0x369C JUMP JUMPDEST PUSH2 0x1037 PUSH8 0x23A73EB514FA8FFA PUSH1 0xC0 SHL PUSH2 0x369C JUMP JUMPDEST PUSH2 0x104B PUSH8 0x29A39EAD3AE84D47 PUSH1 0xC0 SHL PUSH2 0x369C JUMP JUMPDEST DUP1 PUSH1 0x2 ADD PUSH1 0x0 SWAP1 SLOAD SWAP1 PUSH2 0x100 EXP SWAP1 DIV PUSH1 0xFF AND ISZERO PUSH2 0x1112 JUMPI PUSH2 0x1076 PUSH8 0x4A7C76FDAB3F247D PUSH1 0xC0 SHL PUSH2 0x369C JUMP JUMPDEST PUSH2 0x108A PUSH8 0x96AB5213A6CE6E99 PUSH1 0xC0 SHL PUSH2 0x369C JUMP JUMPDEST PUSH2 0x109E PUSH8 0x96CF787E35823E91 PUSH1 0xC0 SHL PUSH2 0x369C JUMP JUMPDEST PUSH2 0x10B2 PUSH8 0x9957E8F18F1424D0 PUSH1 0xC0 SHL PUSH2 0x369C JUMP JUMPDEST PUSH1 0x0 DUP2 PUSH1 0x5 ADD SLOAD EQ PUSH2 0x10F9 JUMPI PUSH1 0x40 MLOAD PUSH32 0x8C379A000000000000000000000000000000000000000000000000000000000 DUP2 MSTORE PUSH1 0x4 ADD PUSH2 0x10F0 SWAP1 PUSH2 0x440A JUMP JUMPDEST PUSH1 0x40 MLOAD DUP1 SWAP2 SUB SWAP1 REVERT JUMPDEST PUSH2 0x110D PUSH8 0xA6AEB3E480E7D2D4 PUSH1 0xC0 SHL PUSH2 0x369C JUMP JUMPDEST PUSH2 0x1127 JUMP JUMPDEST PUSH2 0x1126 PUSH8 0x7AE19D4ADB80F641 PUSH1 0xC0 SHL PUSH2 0x369C JUMP JUMPDEST JUMPDEST PUSH2 0x113B PUSH8 0xF1871AC4F78AC60 PUSH1 0xC0 SHL PUSH2 0x369C JUMP JUMPDEST PUSH1 0x0 DUP2 PUSH1 0x6 ADD PUSH1 0x0 PUSH2 0x100 EXP DUP2 SLOAD DUP2 PUSH1 0xFF MUL NOT AND SWAP1 DUP4 ISZERO ISZERO MUL OR SWAP1 SSTORE POP PUSH2 0x116C PUSH8 0xAC3DF2A552553201 PUSH1 0xC0 SHL PUSH2 0x369C JUMP JUMPDEST PUSH2 0x1180 PUSH8 0x20BAAE262A77A200 PUSH1 0xC0 SHL PUSH2 0x369C JUMP JUMPDEST PUSH1 0x2 PUSH1 0x0 SWAP1 SLOAD SWAP1 PUSH2 0x100 EXP SWAP1 DIV PUSH20 0xFFFFFFFFFFFFFFFFFFFFFFFFFFFFFFFFFFFFFFFF AND PUSH20 0xFFFFFFFFFFFFFFFFFFFFFFFFFFFFFFFFFFFFFFFF AND PUSH4 0x23B872DD ADDRESS CALLER DUP6 PUSH1 0x40 MLOAD DUP5 PUSH4 0xFFFFFFFF AND PUSH1 0xE0 SHL DUP2 MSTORE PUSH1 0x4 ADD PUSH2 0x11DF SWAP4 SWAP3 SWAP2 SWAP1 PUSH2 0x408A JUMP JUMPDEST PUSH1 0x0 PUSH1 0x40 MLOAD DUP1 DUP4 SUB DUP2 PUSH1 0x0 DUP8 DUP1 EXTCODESIZE ISZERO DUP1 ISZERO PUSH2 0x11F9 JUMPI PUSH1 0x0 DUP1 REVERT JUMPDEST POP GAS CALL ISZERO DUP1 ISZERO PUSH2 0x120D JUMPI RETURNDATASIZE PUSH1 0x0 DUP1 RETURNDATACOPY RETURNDATASIZE PUSH1 0x0 REVERT JUMPDEST POP POP POP POP PUSH2 0x1225 PUSH8 0xD850D1F8CEC5B0FA PUSH1 0xC0 SHL PUSH2 0x369C JUMP JUMPDEST PUSH2 0x1239 PUSH8 0x40D05786E43A6CE0 PUSH1 0xC0 SHL PUSH2 0x369C JUMP JUMPDEST CALLER PUSH20 0xFFFFFFFFFFFFFFFFFFFFFFFFFFFFFFFFFFFFFFFF AND DUP3 PUSH32 0x8E25282255AB31897DF2B0456BB993AC7F84D376861AEFD84901D2D63A7428A2 PUSH1 0x40 MLOAD PUSH1 0x40 MLOAD DUP1 SWAP2 SUB SWAP1 LOG3 POP PUSH2 0x1286 PUSH2 0x3738 JUMP JUMPDEST POP JUMP JUMPDEST PUSH1 0x6 SLOAD DUP2 JUMP JUMPDEST PUSH2 0x12A3 PUSH8 0xB1B311118B679C3D PUSH1 0xC0 SHL PUSH2 0x369C JUMP JUMPDEST PUSH2 0x12AB PUSH2 0x369F JUMP JUMPDEST PUSH2 0x12BF PUSH8 0x9AAD17449931E90C PUSH1 0xC0 SHL PUSH2 0x369C JUMP JUMPDEST PUSH2 0x12D3 PUSH8 0x103FF4070095DE2D PUSH1 0xC0 SHL PUSH2 0x369C JUMP JUMPDEST PUSH2 0x12DB PUSH2 0x36E5 JUMP JUMPDEST PUSH2 0x12EF PUSH8 0xEA13163B1572EC6 PUSH1 0xC0 SHL PUSH2 0x369C JUMP JUMPDEST PUSH2 0x1303 PUSH8 0x5CE01C39189F69B5 PUSH1 0xC0 SHL PUSH2 0x369C JUMP JUMPDEST PUSH2 0x1317 PUSH8 0xBAE8E9AB1A24590 PUSH1 0xC0 SHL PUSH2 0x369C JUMP JUMPDEST PUSH2 0x132B PUSH8 0x819F51D179D9D9E1 PUSH1 0xC0 SHL PUSH2 0x369C JUMP JUMPDEST PUSH1 0x0 PUSH1 0x4 PUSH1 0x0 CALLER PUSH20 0xFFFFFFFFFFFFFFFFFFFFFFFFFFFFFFFFFFFFFFFF AND PUSH20 0xFFFFFFFFFFFFFFFFFFFFFFFFFFFFFFFFFFFFFFFF AND DUP2 MSTORE PUSH1 0x20 ADD SWAP1 DUP2 MSTORE PUSH1 0x20 ADD PUSH1 0x0 KECCAK256 SLOAD SWAP1 POP PUSH2 0x1383 PUSH8 0x7CCC8A01B24479AD PUSH1 0xC0 SHL PUSH2 0x369C JUMP JUMPDEST PUSH2 0x1397 PUSH8 0xE00A0C04C2BFEF94 PUSH1 0xC0 SHL PUSH2 0x369C JUMP JUMPDEST PUSH2 0x13AB PUSH8 0x8C39AD8107B0FB87 PUSH1 0xC0 SHL PUSH2 0x369C JUMP JUMPDEST PUSH1 0x0 DUP2 GT PUSH2 0x13EE JUMPI PUSH1 0x40 MLOAD PUSH32 0x8C379A000000000000000000000000000000000000000000000000000000000 DUP2 MSTORE PUSH1 0x4 ADD PUSH2 0x13E5 SWAP1 PUSH2 0x4476 JUMP JUMPDEST PUSH1 0x40 MLOAD DUP1 SWAP2 SUB SWAP1 REVERT JUMPDEST PUSH2 0x1402 PUSH8 0xBE50FD6C1AF6A13E PUSH1 0xC0 SHL PUSH2 0x369C JUMP JUMPDEST PUSH2 0x1416 PUSH8 0x81E671271809685A PUSH1 0xC0 SHL PUSH2 0x369C JUMP JUMPDEST PUSH1 0x0 PUSH1 0x4 PUSH1 0x0 CALLER PUSH20 0xFFFFFFFFFFFFFFFFFFFFFFFFFFFFFFFFFFFFFFFF AND PUSH20 0xFFFFFFFFFFFFFFFFFFFFFFFFFFFFFFFFFFFFFFFF AND DUP2 MSTORE PUSH1 0x20 ADD SWAP1 DUP2 MSTORE PUSH1 0x20 ADD PUSH1 0x0 KECCAK256 DUP2 SWAP1 SSTORE POP PUSH2 0x146F PUSH8 0x772C32AD836EAF74 PUSH1 0xC0 SHL PUSH2 0x369C JUMP JUMPDEST PUSH2 0x1483 PUSH8 0x91582C87E2A4593F PUSH1 0xC0 SHL PUSH2 0x369C JUMP JUMPDEST PUSH1 0x0 CALLER PUSH20 0xFFFFFFFFFFFFFFFFFFFFFFFFFFFFFFFFFFFFFFFF AND DUP3 PUSH1 0x40 MLOAD PUSH2 0x14A9 SWAP1 PUSH2 0x44C7 JUMP JUMPDEST PUSH1 0x0 PUSH1 0x40 MLOAD DUP1 DUP4 SUB DUP2 DUP6 DUP8 GAS CALL SWAP3 POP POP POP RETURNDATASIZE DUP1 PUSH1 0x0 DUP2 EQ PUSH2 0x14E6 JUMPI PUSH1 0x40 MLOAD SWAP2 POP PUSH1 0x1F NOT PUSH1 0x3F RETURNDATASIZE ADD AND DUP3 ADD PUSH1 0x40 MSTORE RETURNDATASIZE DUP3 MSTORE RETURNDATASIZE PUSH1 0x0 PUSH1 0x20 DUP5 ADD RETURNDATACOPY PUSH2 0x14EB JUMP JUMPDEST PUSH1 0x60 SWAP2 POP JUMPDEST POP POP SWAP1 POP PUSH2 0x1503 PUSH8 0x9822409D3A2F1B4B PUSH1 0xC0 SHL PUSH2 0x369C JUMP JUMPDEST PUSH2 0x1517 PUSH8 0x44092972637FB8E1 PUSH1 0xC0 SHL PUSH2 0x369C JUMP JUMPDEST PUSH2 0x152B PUSH8 0x5C32AEE289DA3AAB PUSH1 0xC0 SHL PUSH2 0x369C JUMP JUMPDEST DUP1 PUSH2 0x156B JUMPI PUSH1 0x40 MLOAD PUSH32 0x8C379A000000000000000000000000000000000000000000000000000000000 DUP2 MSTORE PUSH1 0x4 ADD PUSH2 0x1562 SWAP1 PUSH2 0x4528 JUMP JUMPDEST PUSH1 0x40 MLOAD DUP1 SWAP2 SUB SWAP1 REVERT JUMPDEST PUSH2 0x157F PUSH8 0x887266E106022BA4 PUSH1 0xC0 SHL PUSH2 0x369C JUMP JUMPDEST POP POP PUSH2 0x1589 PUSH2 0x3738 JUMP JUMPDEST JUMP JUMPDEST PUSH2 0x159F PUSH8 0xCA9BD4134D4C78C3 PUSH1 0xC0 SHL PUSH2 0x369C JUMP JUMPDEST PUSH2 0x15A7 PUSH2 0x3742 JUMP JUMPDEST PUSH2 0x15BB PUSH8 0xA5BC27F95A6BD2E7 PUSH1 0xC0 SHL PUSH2 0x369C JUMP JUMPDEST PUSH2 0x15CF PUSH8 0xB37C91B9F4BF9C15 PUSH1 0xC0 SHL PUSH2 0x369C JUMP JUMPDEST PUSH2 0x15E3 PUSH8 0xF67FB60473E43A0 PUSH1 0xC0 SHL PUSH2 0x369C JUMP JUMPDEST PUSH2 0x15F7 PUSH8 0xED0DA06429790B94 PUSH1 0xC0 SHL PUSH2 0x369C JUMP JUMPDEST PUSH2 0x15FF PUSH2 0x37C9 JUMP JUMPDEST JUMP JUMPDEST PUSH2 0x1615 PUSH8 0x3E0DB18FAF592B67 PUSH1 0xC0 SHL PUSH2 0x369C JUMP JUMPDEST PUSH2 0x161D PUSH2 0x369F JUMP JUMPDEST PUSH2 0x1631 PUSH8 0x22CD728B330D2135 PUSH1 0xC0 SHL PUSH2 0x369C JUMP JUMPDEST PUSH2 0x1645 PUSH8 0xEDB5C3FAFF55BDCB PUSH1 0xC0 SHL PUSH2 0x369C JUMP JUMPDEST PUSH2 0x164D PUSH2 0x36E5 JUMP JUMPDEST PUSH2 0x1661 PUSH8 0xBE5B7474AE13C7B8 PUSH1 0xC0 SHL PUSH2 0x369C JUMP JUMPDEST PUSH2 0x1675 PUSH8 0xFF8E4A18F07B6A66 PUSH1 0xC0 SHL PUSH2 0x369C JUMP JUMPDEST PUSH2 0x1689 PUSH8 0x89F7E7431938357B PUSH1 0xC0 SHL PUSH2 0x369C JUMP JUMPDEST PUSH2 0x169D PUSH8 0xFB1EC996E42046E2 PUSH1 0xC0 SHL PUSH2 0x369C JUMP JUMPDEST PUSH1 0x0 PUSH1 0x3 PUSH1 0x0 DUP4 DUP2 MSTORE PUSH1 0x20 ADD SWAP1 DUP2 MSTORE PUSH1 0x20 ADD PUSH1 0x0 KECCAK256 SWAP1 POP PUSH2 0x16C8 PUSH8 0xF4C4F234D4006BDA PUSH1 0xC0 SHL PUSH2 0x369C JUMP JUMPDEST PUSH2 0x16DC PUSH8 0xFFA705BF3E32F156 PUSH1 0xC0 SHL PUSH2 0x369C JUMP JUMPDEST PUSH2 0x16F0 PUSH8 0x442964AAC379CB9D PUSH1 0xC0 SHL PUSH2 0x369C JUMP JUMPDEST DUP1 PUSH1 0x6 ADD PUSH1 0x0 SWAP1 SLOAD SWAP1 PUSH2 0x100 EXP SWAP1 DIV PUSH1 0xFF AND DUP1 ISZERO PUSH2 0x171C JUMPI POP DUP1 PUSH1 0x2 ADD PUSH1 0x0 SWAP1 SLOAD SWAP1 PUSH2 0x100 EXP SWAP1 DIV PUSH1 0xFF AND JUMPDEST PUSH2 0x175B JUMPI PUSH1 0x40 MLOAD PUSH32 0x8C379A000000000000000000000000000000000000000000000000000000000 DUP2 MSTORE PUSH1 0x4 ADD PUSH2 0x1752 SWAP1 PUSH2 0x4594 JUMP JUMPDEST PUSH1 0x40 MLOAD DUP1 SWAP2 SUB SWAP1 REVERT JUMPDEST PUSH2 0x176F PUSH8 0xAFE40A44C64A5252 PUSH1 0xC0 SHL PUSH2 0x369C JUMP JUMPDEST PUSH2 0x1783 PUSH8 0xC8C45518FDC89689 PUSH1 0xC0 SHL PUSH2 0x369C JUMP JUMPDEST PUSH2 0x1797 PUSH8 0x53E9CB438A1251C6 PUSH1 0xC0 SHL PUSH2 0x369C JUMP JUMPDEST PUSH2 0x17AB PUSH8 0x5BD66A8C1F41B88C PUSH1 0xC0 SHL PUSH2 0x369C JUMP JUMPDEST DUP1 PUSH1 0x3 ADD SLOAD TIMESTAMP LT PUSH2 0x17F1 JUMPI PUSH1 0x40 MLOAD PUSH32 0x8C379A000000000000000000000000000000000000000000000000000000000 DUP2 MSTORE PUSH1 0x4 ADD PUSH2 0x17E8 SWAP1 PUSH2 0x4600 JUMP JUMPDEST PUSH1 0x40 MLOAD DUP1 SWAP2 SUB SWAP1 REVERT JUMPDEST PUSH2 0x1805 PUSH8 0xC3E6DB9772875719 PUSH1 0xC0 SHL PUSH2 0x369C JUMP JUMPDEST PUSH2 0x1819 PUSH8 0xBA858DC07F96596A PUSH1 0xC0 SHL PUSH2 0x369C JUMP JUMPDEST PUSH2 0x182D PUSH8 0xB4E089CC1EEADE91 PUSH1 0xC0 SHL PUSH2 0x369C JUMP JUMPDEST PUSH2 0x1841 PUSH8 0xA81A8F0E70BAA3FD PUSH1 0xC0 SHL PUSH2 0x369C JUMP JUMPDEST DUP1 PUSH1 0x1 ADD SLOAD CALLVALUE GT DUP1 ISZERO PUSH2 0x1857 JUMPI POP DUP1 PUSH1 0x5 ADD SLOAD CALLVALUE GT JUMPDEST PUSH2 0x1896 JUMPI PUSH1 0x40 MLOAD PUSH32 0x8C379A000000000000000000000000000000000000000000000000000000000 DUP2 MSTORE PUSH1 0x4 ADD PUSH2 0x188D SWAP1 PUSH2 0x466C JUMP JUMPDEST PUSH1 0x40 MLOAD DUP1 SWAP2 SUB SWAP1 REVERT JUMPDEST PUSH2 0x18AA PUSH8 0x3AF85DEBCA79D54A PUSH1 0xC0 SHL PUSH2 0x369C JUMP JUMPDEST PUSH2 0x18BE PUSH8 0x3D0133FF7DAAA395 PUSH1 0xC0 SHL PUSH2 0x369C JUMP JUMPDEST PUSH2 0x18D2 PUSH8 0xBC30199510BEA68D PUSH1 0xC0 SHL PUSH2 0x369C JUMP JUMPDEST PUSH1 0x0 DUP2 PUSH1 0x4 ADD PUSH1 0x0 SWAP1 SLOAD SWAP1 PUSH2 0x100 EXP SWAP1 DIV PUSH20 0xFFFFFFFFFFFFFFFFFFFFFFFFFFFFFFFFFFFFFFFF AND SWAP1 POP PUSH2 0x190F PUSH8 0x4EE1D526DB4926FE PUSH1 0xC0 SHL PUSH2 0x369C JUMP JUMPDEST PUSH2 0x1923 PUSH8 0x7DE68E3ECAF3DE2D PUSH1 0xC0 SHL PUSH2 0x369C JUMP JUMPDEST PUSH1 0x0 DUP3 PUSH1 0x5 ADD SLOAD SWAP1 POP PUSH2 0x1940 PUSH8 0x289386465280DECD PUSH1 0xC0 SHL PUSH2 0x369C JUMP JUMPDEST CALLER DUP4 PUSH1 0x4 ADD PUSH1 0x0 PUSH2 0x100 EXP DUP2 SLOAD DUP2 PUSH20 0xFFFFFFFFFFFFFFFFFFFFFFFFFFFFFFFFFFFFFFFF MUL NOT AND SWAP1 DUP4 PUSH20 0xFFFFFFFFFFFFFFFFFFFFFFFFFFFFFFFFFFFFFFFF AND MUL OR SWAP1 SSTORE POP PUSH2 0x1997 PUSH8 0xA6662065FB6BD449 PUSH1 0xC0 SHL PUSH2 0x369C JUMP JUMPDEST CALLVALUE DUP4 PUSH1 0x5 ADD DUP2 SWAP1 SSTORE POP PUSH2 0x19B4 PUSH8 0xFC4E556E0378B060 PUSH1 0xC0 SHL PUSH2 0x369C JUMP JUMPDEST PUSH2 0x19C8 PUSH8 0x9BF51733A6D6A702 PUSH1 0xC0 SHL PUSH2 0x369C JUMP JUMPDEST PUSH1 0x0 PUSH20 0xFFFFFFFFFFFFFFFFFFFFFFFFFFFFFFFFFFFFFFFF AND DUP3 PUSH20 0xFFFFFFFFFFFFFFFFFFFFFFFFFFFFFFFFFFFFFFFF AND EQ PUSH2 0x1B6F JUMPI PUSH2 0x1A10 PUSH8 0xD70FA89CB4BDB88D PUSH1 0xC0 SHL PUSH2 0x369C JUMP JUMPDEST PUSH2 0x1A24 PUSH8 0x3BE3160C2DBC731 PUSH1 0xC0 SHL PUSH2 0x369C JUMP JUMPDEST PUSH2 0x1A38 PUSH8 0x7A3E5DB70F84D570 PUSH1 0xC0 SHL PUSH2 0x369C JUMP JUMPDEST PUSH1 0x0 DUP3 PUSH20 0xFFFFFFFFFFFFFFFFFFFFFFFFFFFFFFFFFFFFFFFF AND DUP3 PUSH1 0x40 MLOAD PUSH2 0x1A5E SWAP1 PUSH2 0x44C7 JUMP JUMPDEST PUSH1 0x0 PUSH1 0x40 MLOAD DUP1 DUP4 SUB DUP2 DUP6 DUP8 GAS CALL SWAP3 POP POP POP RETURNDATASIZE DUP1 PUSH1 0x0 DUP2 EQ PUSH2 0x1A9B JUMPI PUSH1 0x40 MLOAD SWAP2 POP PUSH1 0x1F NOT PUSH1 0x3F RETURNDATASIZE ADD AND DUP3 ADD PUSH1 0x40 MSTORE RETURNDATASIZE DUP3 MSTORE RETURNDATASIZE PUSH1 0x0 PUSH1 0x20 DUP5 ADD RETURNDATACOPY PUSH2 0x1AA0 JUMP JUMPDEST PUSH1 0x60 SWAP2 POP JUMPDEST POP POP SWAP1 POP PUSH2 0x1AB8 PUSH8 0xB3D18749376E2D9F PUSH1 0xC0 SHL PUSH2 0x369C JUMP JUMPDEST PUSH2 0x1ACC PUSH8 0xCC8B486714FE1246 PUSH1 0xC0 SHL PUSH2 0x369C JUMP JUMPDEST DUP1 PUSH2 0x1B54 JUMPI PUSH2 0x1AE5 PUSH8 0xB08DE9B540364011 PUSH1 0xC0 SHL PUSH2 0x369C JUMP JUMPDEST PUSH2 0x1AF9 PUSH8 0x1569983F5418D6D PUSH1 0xC0 SHL PUSH2 0x369C JUMP JUMPDEST DUP2 PUSH1 0x4 PUSH1 0x0 DUP6 PUSH20 0xFFFFFFFFFFFFFFFFFFFFFFFFFFFFFFFFFFFFFFFF AND PUSH20 0xFFFFFFFFFFFFFFFFFFFFFFFFFFFFFFFFFFFFFFFF AND DUP2 MSTORE PUSH1 0x20 ADD SWAP1 DUP2 MSTORE PUSH1 0x20 ADD PUSH1 0x0 KECCAK256 PUSH1 0x0 DUP3 DUP3 SLOAD PUSH2 0x1B48 SWAP2 SWAP1 PUSH2 0x40F0 JUMP JUMPDEST SWAP3 POP POP DUP2 SWAP1 SSTORE POP PUSH2 0x1B69 JUMP JUMPDEST PUSH2 0x1B68 PUSH8 0x5A146257425AF4D6 PUSH1 0xC0 SHL PUSH2 0x369C JUMP JUMPDEST JUMPDEST POP PUSH2 0x1B84 JUMP JUMPDEST PUSH2 0x1B83 PUSH8 0x31A4B78036B6DBD1 PUSH1 0xC0 SHL PUSH2 0x369C JUMP JUMPDEST JUMPDEST PUSH2 0x1B98 PUSH8 0x13A4BC4DF3DF71E3 PUSH1 0xC0 SHL PUSH2 0x369C JUMP JUMPDEST PUSH2 0x1BAC PUSH8 0xB28F917862454509 PUSH1 0xC0 SHL PUSH2 0x369C JUMP JUMPDEST CALLER PUSH20 0xFFFFFFFFFFFFFFFFFFFFFFFFFFFFFFFFFFFFFFFF AND DUP5 PUSH32 0x558A0D5D5468D74B0DB24C74EB348B42271C2EBB4C9E953CED38AAED95FA4361 CALLVALUE PUSH1 0x40 MLOAD PUSH2 0x1BF3 SWAP2 SWAP1 PUSH2 0x3CD6 JUMP JUMPDEST PUSH1 0x40 MLOAD DUP1 SWAP2 SUB SWAP1 LOG3 POP POP POP PUSH2 0x1C06 PUSH2 0x3738 JUMP JUMPDEST POP JUMP JUMPDEST PUSH2 0x1C1D PUSH8 0xC9549BCC1F72FDFE PUSH1 0xC0 SHL PUSH2 0x369C JUMP JUMPDEST PUSH2 0x1C25 PUSH2 0x369F JUMP JUMPDEST PUSH2 0x1C39 PUSH8 0xBDD81852BFFDA9CD PUSH1 0xC0 SHL PUSH2 0x369C JUMP JUMPDEST PUSH2 0x1C4D PUSH8 0xF6B3A0F1810C4103 PUSH1 0xC0 SHL PUSH2 0x369C JUMP JUMPDEST PUSH2 0x1C55 PUSH2 0x36E5 JUMP JUMPDEST PUSH2 0x1C69 PUSH8 0xA49382E52D3420B1 PUSH1 0xC0 SHL PUSH2 0x369C JUMP JUMPDEST PUSH2 0x1C7D PUSH8 0xB603795CC016BE66 PUSH1 0xC0 SHL PUSH2 0x369C JUMP JUMPDEST PUSH2 0x1C91 PUSH8 0xE828CA4423F8E486 PUSH1 0xC0 SHL PUSH2 0x369C JUMP JUMPDEST PUSH2 0x1CA5 PUSH8 0xF37414BE5C264C4B PUSH1 0xC0 SHL PUSH2 0x369C JUMP JUMPDEST PUSH1 0x0 PUSH1 0x5 PUSH1 0x0 DUP4 DUP2 MSTORE PUSH1 0x20 ADD SWAP1 DUP2 MSTORE PUSH1 0x20 ADD PUSH1 0x0 KECCAK256 SWAP1 POP PUSH2 0x1CD0 PUSH8 0xFA04A068BAFB2851 PUSH1 0xC0 SHL PUSH2 0x369C JUMP JUMPDEST PUSH2 0x1CE4 PUSH8 0xB08E23A1D6AFB745 PUSH1 0xC0 SHL PUSH2 0x369C JUMP JUMPDEST PUSH2 0x1CF8 PUSH8 0x3FE3D0A74C133EAD PUSH1 0xC0 SHL PUSH2 0x369C JUMP JUMPDEST DUP1 PUSH1 0x4 ADD PUSH1 0x0 SWAP1 SLOAD SWAP1 PUSH2 0x100 EXP SWAP1 DIV PUSH1 0xFF AND PUSH2 0x1D49 JUMPI PUSH1 0x40 MLOAD PUSH32 0x8C379A000000000000000000000000000000000000000000000000000000000 DUP2 MSTORE PUSH1 0x4 ADD PUSH2 0x1D40 SWAP1 PUSH2 0x46D8 JUMP JUMPDEST PUSH1 0x40 MLOAD DUP1 SWAP2 SUB SWAP1 REVERT JUMPDEST PUSH2 0x1D5D PUSH8 0x7A70743EFCA2E47B PUSH1 0xC0 SHL PUSH2 0x369C JUMP JUMPDEST PUSH2 0x1D71 PUSH8 0x650ADE8C04C629AE PUSH1 0xC0 SHL PUSH2 0x369C JUMP JUMPDEST PUSH2 0x1D85 PUSH8 0x102ABB8B79EB654A PUSH1 0xC0 SHL PUSH2 0x369C JUMP JUMPDEST PUSH2 0x1D99 PUSH8 0xA3D4C4570D3D596 PUSH1 0xC0 SHL PUSH2 0x369C JUMP JUMPDEST CALLER PUSH20 0xFFFFFFFFFFFFFFFFFFFFFFFFFFFFFFFFFFFFFFFF AND DUP2 PUSH1 0x0 ADD PUSH1 0x0 SWAP1 SLOAD SWAP1 PUSH2 0x100 EXP SWAP1 DIV PUSH20 0xFFFFFFFFFFFFFFFFFFFFFFFFFFFFFFFFFFFFFFFF AND PUSH20 0xFFFFFFFFFFFFFFFFFFFFFFFFFFFFFFFFFFFFFFFF AND EQ PUSH2 0x1E2B JUMPI PUSH1 0x40 MLOAD PUSH32 0x8C379A000000000000000000000000000000000000000000000000000000000 DUP2 MSTORE PUSH1 0x4 ADD PUSH2 0x1E22 SWAP1 PUSH2 0x4744 JUMP JUMPDEST PUSH1 0x40 MLOAD DUP1 SWAP2 SUB SWAP1 REVERT JUMPDEST PUSH2 0x1E3F PUSH8 0x39002C875462A0C4 PUSH1 0xC0 SHL PUSH2 0x369C JUMP JUMPDEST PUSH2 0x1E53 PUSH8 0x17A669363D6AA44F PUSH1 0xC0 SHL PUSH2 0x369C JUMP JUMPDEST PUSH2 0x1E67 PUSH8 0x59A7BA45C9204C28 PUSH1 0xC0 SHL PUSH2 0x369C JUMP JUMPDEST PUSH1 0x0 JUMPDEST DUP2 PUSH1 0x2 ADD DUP1 SLOAD SWAP1 POP DUP2 LT ISZERO PUSH2 0x1F5F JUMPI PUSH2 0x1E8D PUSH8 0x1CAF22AE895674D0 PUSH1 0xC0 SHL PUSH2 0x369C JUMP JUMPDEST PUSH2 0x1EA1 PUSH8 0x34831832EE5A973F PUSH1 0xC0 SHL PUSH2 0x369C JUMP JUMPDEST PUSH1 0x2 PUSH1 0x0 SWAP1 SLOAD SWAP1 PUSH2 0x100 EXP SWAP1 DIV PUSH20 0xFFFFFFFFFFFFFFFFFFFFFFFFFFFFFFFFFFFFFFFF AND PUSH20 0xFFFFFFFFFFFFFFFFFFFFFFFFFFFFFFFFFFFFFFFF AND PUSH4 0x23B872DD ADDRESS CALLER DUP6 PUSH1 0x2 ADD DUP6 DUP2 SLOAD DUP2 LT PUSH2 0x1EF7 JUMPI PUSH2 0x1EF6 PUSH2 0x41B9 JUMP JUMPDEST JUMPDEST SWAP1 PUSH1 0x0 MSTORE PUSH1 0x20 PUSH1 0x0 KECCAK256 ADD SLOAD PUSH1 0x40 MLOAD DUP5 PUSH4 0xFFFFFFFF AND PUSH1 0xE0 SHL DUP2 MSTORE PUSH1 0x4 ADD PUSH2 0x1F20 SWAP4 SWAP3 SWAP2 SWAP1 PUSH2 0x408A JUMP JUMPDEST PUSH1 0x0 PUSH1 0x40 MLOAD DUP1 DUP4 SUB DUP2 PUSH1 0x0 DUP8 DUP1 EXTCODESIZE ISZERO DUP1 ISZERO PUSH2 0x1F3A JUMPI PUSH1 0x0 DUP1 REVERT JUMPDEST POP GAS CALL ISZERO DUP1 ISZERO PUSH2 0x1F4E JUMPI RETURNDATASIZE PUSH1 0x0 DUP1 RETURNDATACOPY RETURNDATASIZE PUSH1 0x0 REVERT JUMPDEST POP POP POP POP DUP1 DUP1 PUSH1 0x1 ADD SWAP2 POP POP PUSH2 0x1E6A JUMP JUMPDEST POP PUSH2 0x1F74 PUSH8 0x22A6CB3781767BD6 PUSH1 0xC0 SHL PUSH2 0x369C JUMP JUMPDEST PUSH1 0x0 DUP2 PUSH1 0x4 ADD PUSH1 0x0 PUSH2 0x100 EXP DUP2 SLOAD DUP2 PUSH1 0xFF MUL NOT AND SWAP1 DUP4 ISZERO ISZERO MUL OR SWAP1 SSTORE POP PUSH2 0x1FA5 PUSH8 0xAF616431B869FD49 PUSH1 0xC0 SHL PUSH2 0x369C JUMP JUMPDEST PUSH2 0x1FB9 PUSH8 0x914E16A54808037A PUSH1 0xC0 SHL PUSH2 0x369C JUMP JUMPDEST DUP2 PUSH32 0xF6B6B4F7A13F02512C1B3AA8DCC4A07D7775A6A4BECBD439EFCBD37C5408E67F PUSH1 0x40 MLOAD PUSH1 0x40 MLOAD DUP1 SWAP2 SUB SWAP1 LOG2 POP PUSH2 0x1FEF PUSH2 0x3738 JUMP JUMPDEST POP JUMP JUMPDEST PUSH1 0x0 PUSH1 0x1 PUSH1 0x14 SWAP1 SLOAD SWAP1 PUSH2 0x100 EXP SWAP1 DIV PUSH1 0xFF AND SWAP1 POP SWAP1 JUMP JUMPDEST PUSH2 0x2011 PUSH2 0x3742 JUMP JUMPDEST PUSH2 0x201B PUSH1 0x0 PUSH2 0x382C JUMP JUMPDEST JUMP JUMPDEST PUSH2 0x2031 PUSH8 0x62DCF433E1EF039C PUSH1 0xC0 SHL PUSH2 0x369C JUMP JUMPDEST PUSH2 0x2039 PUSH2 0x3742 JUMP JUMPDEST PUSH2 0x204D PUSH8 0x310619B1501ABCE3 PUSH1 0xC0 SHL PUSH2 0x369C JUMP JUMPDEST PUSH2 0x2061 PUSH8 0xA257614F79A96F59 PUSH1 0xC0 SHL PUSH2 0x369C JUMP JUMPDEST PUSH2 0x2075 PUSH8 0x6C39655CD8EE060F PUSH1 0xC0 SHL PUSH2 0x369C JUMP JUMPDEST PUSH2 0x2089 PUSH8 0x2423EC2D72B84DC5 PUSH1 0xC0 SHL PUSH2 0x369C JUMP JUMPDEST PUSH2 0x2091 PUSH2 0x38F2 JUMP JUMPDEST JUMP JUMPDEST PUSH1 0x0 PUSH1 0x1 PUSH1 0x0 SWAP1 SLOAD SWAP1 PUSH2 0x100 EXP SWAP1 DIV PUSH20 0xFFFFFFFFFFFFFFFFFFFFFFFFFFFFFFFFFFFFFFFF AND SWAP1 POP SWAP1 JUMP JUMPDEST PUSH1 0x5 PUSH1 0x20 MSTORE DUP1 PUSH1 0x0 MSTORE PUSH1 0x40 PUSH1 0x0 KECCAK256 PUSH1 0x0 SWAP2 POP SWAP1 POP DUP1 PUSH1 0x0 ADD PUSH1 0x0 SWAP1 SLOAD SWAP1 PUSH2 0x100 EXP SWAP1 DIV PUSH20 0xFFFFFFFFFFFFFFFFFFFFFFFFFFFFFFFFFFFFFFFF AND SWAP1 DUP1 PUSH1 0x1 ADD PUSH1 0x0 SWAP1 SLOAD SWAP1 PUSH2 0x100 EXP SWAP1 DIV PUSH20 0xFFFFFFFFFFFFFFFFFFFFFFFFFFFFFFFFFFFFFFFF AND SWAP1 DUP1 PUSH1 0x4 ADD PUSH1 0x0 SWAP1 SLOAD SWAP1 PUSH2 0x100 EXP SWAP1 DIV PUSH1 0xFF AND SWAP1 POP DUP4 JUMP JUMPDEST PUSH2 0x2148 PUSH8 0x7FB61D65D4603A6C PUSH1 0xC0 SHL PUSH2 0x369C JUMP JUMPDEST PUSH2 0x2150 PUSH2 0x369F JUMP JUMPDEST PUSH2 0x2164 PUSH8 0x2F5F1424B18D73DA PUSH1 0xC0 SHL PUSH2 0x369C JUMP JUMPDEST PUSH2 0x2178 PUSH8 0xA6C39EB763F7A6D1 PUSH1 0xC0 SHL PUSH2 0x369C JUMP JUMPDEST PUSH2 0x2180 PUSH2 0x36E5 JUMP JUMPDEST PUSH2 0x2194 PUSH8 0xA903C964FE432591 PUSH1 0xC0 SHL PUSH2 0x369C JUMP JUMPDEST PUSH2 0x21A8 PUSH8 0x63BFC0E3411D6406 PUSH1 0xC0 SHL PUSH2 0x369C JUMP JUMPDEST PUSH2 0x21BC PUSH8 0xD4A3941342CEEE62 PUSH1 0xC0 SHL PUSH2 0x369C JUMP JUMPDEST PUSH2 0x21D0 PUSH8 0xCC1FB4AC060C0EB1 PUSH1 0xC0 SHL PUSH2 0x369C JUMP JUMPDEST PUSH1 0x0 PUSH1 0x5 PUSH1 0x0 DUP4 DUP2 MSTORE PUSH1 0x20 ADD SWAP1 DUP2 MSTORE PUSH1 0x20 ADD PUSH1 0x0 KECCAK256 SWAP1 POP PUSH2 0x21FB PUSH8 0x1854765B0701D85B PUSH1 0xC0 SHL PUSH2 0x369C JUMP JUMPDEST PUSH2 0x220F PUSH8 0x1300797C3A843BEF PUSH1 0xC0 SHL PUSH2 0x369C JUMP JUMPDEST PUSH2 0x2223 PUSH8 0x38CF5DA25A48E4FE PUSH1 0xC0 SHL PUSH2 0x369C JUMP JUMPDEST DUP1 PUSH1 0x4 ADD PUSH1 0x0 SWAP1 SLOAD SWAP1 PUSH2 0x100 EXP SWAP1 DIV PUSH1 0xFF AND PUSH2 0x2274 JUMPI PUSH1 0x40 MLOAD PUSH32 0x8C379A000000000000000000000000000000000000000000000000000000000 DUP2 MSTORE PUSH1 0x4 ADD PUSH2 0x226B SWAP1 PUSH2 0x46D8 JUMP JUMPDEST PUSH1 0x40 MLOAD DUP1 SWAP2 SUB SWAP1 REVERT JUMPDEST PUSH2 0x2288 PUSH8 0x21015ABDC799D64D PUSH1 0xC0 SHL PUSH2 0x369C JUMP JUMPDEST PUSH2 0x229C PUSH8 0x718B3065311538EE PUSH1 0xC0 SHL PUSH2 0x369C JUMP JUMPDEST PUSH2 0x22B0 PUSH8 0xB4CDE5F876746BF0 PUSH1 0xC0 SHL PUSH2 0x369C JUMP JUMPDEST PUSH1 0x0 PUSH20 0xFFFFFFFFFFFFFFFFFFFFFFFFFFFFFFFFFFFFFFFF AND DUP2 PUSH1 0x1 ADD PUSH1 0x0 SWAP1 SLOAD SWAP1 PUSH2 0x100 EXP SWAP1 DIV PUSH20 0xFFFFFFFFFFFFFFFFFFFFFFFFFFFFFFFFFFFFFFFF AND PUSH20 0xFFFFFFFFFFFFFFFFFFFFFFFFFFFFFFFFFFFFFFFF AND EQ PUSH2 0x2403 JUMPI PUSH2 0x231C PUSH8 0x74B0271E0D1E8D5F PUSH1 0xC0 SHL PUSH2 0x369C JUMP JUMPDEST PUSH2 0x2330 PUSH8 0x1CB3DA9008DD06B PUSH1 0xC0 SHL PUSH2 0x369C JUMP JUMPDEST PUSH2 0x2344 PUSH8 0xFBB89E32D2FBC9EA PUSH1 0xC0 SHL PUSH2 0x369C JUMP JUMPDEST PUSH2 0x2358 PUSH8 0x88692E8F025EDA96 PUSH1 0xC0 SHL PUSH2 0x369C JUMP JUMPDEST DUP1 PUSH1 0x1 ADD PUSH1 0x0 SWAP1 SLOAD SWAP1 PUSH2 0x100 EXP SWAP1 DIV PUSH20 0xFFFFFFFFFFFFFFFFFFFFFFFFFFFFFFFFFFFFFFFF AND PUSH20 0xFFFFFFFFFFFFFFFFFFFFFFFFFFFFFFFFFFFFFFFF AND CALLER PUSH20 0xFFFFFFFFFFFFFFFFFFFFFFFFFFFFFFFFFFFFFFFF AND EQ PUSH2 0x23EA JUMPI PUSH1 0x40 MLOAD PUSH32 0x8C379A000000000000000000000000000000000000000000000000000000000 DUP2 MSTORE PUSH1 0x4 ADD PUSH2 0x23E1 SWAP1 PUSH2 0x47B0 JUMP JUMPDEST PUSH1 0x40 MLOAD DUP1 SWAP2 SUB SWAP1 REVERT JUMPDEST PUSH2 0x23FE PUSH8 0xC0FAD6523649FF06 PUSH1 0xC0 SHL PUSH2 0x369C JUMP JUMPDEST PUSH2 0x2418 JUMP JUMPDEST PUSH2 0x2417 PUSH8 0x1C2AB39910EFA76B PUSH1 0xC0 SHL PUSH2 0x369C JUMP JUMPDEST JUMPDEST PUSH2 0x242C PUSH8 0xDBD29FF9D775FA7F PUSH1 0xC0 SHL PUSH2 0x369C JUMP JUMPDEST PUSH2 0x2440 PUSH8 0x27E1566E6DFE8046 PUSH1 0xC0 SHL PUSH2 0x369C JUMP JUMPDEST PUSH1 0x0 JUMPDEST DUP2 PUSH1 0x3 ADD DUP1 SLOAD SWAP1 POP DUP2 LT ISZERO PUSH2 0x255C JUMPI PUSH2 0x2466 PUSH8 0x1BDD396F2BE4D462 PUSH1 0xC0 SHL PUSH2 0x369C JUMP JUMPDEST PUSH2 0x247A PUSH8 0xF5BE1A96B6256240 PUSH1 0xC0 SHL PUSH2 0x369C JUMP JUMPDEST PUSH1 0x2 PUSH1 0x0 SWAP1 SLOAD SWAP1 PUSH2 0x100 EXP SWAP1 DIV PUSH20 0xFFFFFFFFFFFFFFFFFFFFFFFFFFFFFFFFFFFFFFFF AND PUSH20 0xFFFFFFFFFFFFFFFFFFFFFFFFFFFFFFFFFFFFFFFF AND PUSH4 0x23B872DD CALLER DUP5 PUSH1 0x0 ADD PUSH1 0x0 SWAP1 SLOAD SWAP1 PUSH2 0x100 EXP SWAP1 DIV PUSH20 0xFFFFFFFFFFFFFFFFFFFFFFFFFFFFFFFFFFFFFFFF AND DUP6 PUSH1 0x3 ADD DUP6 DUP2 SLOAD DUP2 LT PUSH2 0x24F4 JUMPI PUSH2 0x24F3 PUSH2 0x41B9 JUMP JUMPDEST JUMPDEST SWAP1 PUSH1 0x0 MSTORE PUSH1 0x20 PUSH1 0x0 KECCAK256 ADD SLOAD PUSH1 0x40 MLOAD DUP5 PUSH4 0xFFFFFFFF AND PUSH1 0xE0 SHL DUP2 MSTORE PUSH1 0x4 ADD PUSH2 0x251D SWAP4 SWAP3 SWAP2 SWAP1 PUSH2 0x408A JUMP JUMPDEST PUSH1 0x0 PUSH1 0x40 MLOAD DUP1 DUP4 SUB DUP2 PUSH1 0x0 DUP8 DUP1 EXTCODESIZE ISZERO DUP1 ISZERO PUSH2 0x2537 JUMPI PUSH1 0x0 DUP1 REVERT JUMPDEST POP GAS CALL ISZERO DUP1 ISZERO PUSH2 0x254B JUMPI RETURNDATASIZE PUSH1 0x0 DUP1 RETURNDATACOPY RETURNDATASIZE PUSH1 0x0 REVERT JUMPDEST POP POP POP POP DUP1 DUP1 PUSH1 0x1 ADD SWAP2 POP POP PUSH2 0x2443 JUMP JUMPDEST POP PUSH2 0x2571 PUSH8 0x99ED9397F1B2FB7B PUSH1 0xC0 SHL PUSH2 0x369C JUMP JUMPDEST PUSH2 0x2585 PUSH8 0x9640C0DE296F801D PUSH1 0xC0 SHL PUSH2 0x369C JUMP JUMPDEST PUSH1 0x0 JUMPDEST DUP2 PUSH1 0x2 ADD DUP1 SLOAD SWAP1 POP DUP2 LT ISZERO PUSH2 0x267D JUMPI PUSH2 0x25AB PUSH8 0xBB12A32145903F9F PUSH1 0xC0 SHL PUSH2 0x369C JUMP JUMPDEST PUSH2 0x25BF PUSH8 0x8A321DCD83AB4DDE PUSH1 0xC0 SHL PUSH2 0x369C JUMP JUMPDEST PUSH1 0x2 PUSH1 0x0 SWAP1 SLOAD SWAP1 PUSH2 0x100 EXP SWAP1 DIV PUSH20 0xFFFFFFFFFFFFFFFFFFFFFFFFFFFFFFFFFFFFFFFF AND PUSH20 0xFFFFFFFFFFFFFFFFFFFFFFFFFFFFFFFFFFFFFFFF AND PUSH4 0x23B872DD ADDRESS CALLER DUP6 PUSH1 0x2 ADD DUP6 DUP2 SLOAD DUP2 LT PUSH2 0x2615 JUMPI PUSH2 0x2614 PUSH2 0x41B9 JUMP JUMPDEST JUMPDEST SWAP1 PUSH1 0x0 MSTORE PUSH1 0x20 PUSH1 0x0 KECCAK256 ADD SLOAD PUSH1 0x40 MLOAD DUP5 PUSH4 0xFFFFFFFF AND PUSH1 0xE0 SHL DUP2 MSTORE PUSH1 0x4 ADD PUSH2 0x263E SWAP4 SWAP3 SWAP2 SWAP1 PUSH2 0x408A JUMP JUMPDEST PUSH1 0x0 PUSH1 0x40 MLOAD DUP1 DUP4 SUB DUP2 PUSH1 0x0 DUP8 DUP1 EXTCODESIZE ISZERO DUP1 ISZERO PUSH2 0x2658 JUMPI PUSH1 0x0 DUP1 REVERT JUMPDEST POP GAS CALL ISZERO DUP1 ISZERO PUSH2 0x266C JUMPI RETURNDATASIZE PUSH1 0x0 DUP1 RETURNDATACOPY RETURNDATASIZE PUSH1 0x0 REVERT JUMPDEST POP POP POP POP DUP1 DUP1 PUSH1 0x1 ADD SWAP2 POP POP PUSH2 0x2588 JUMP JUMPDEST POP PUSH2 0x2692 PUSH8 0x1BC4164D2BEC26B PUSH1 0xC0 SHL PUSH2 0x369C JUMP JUMPDEST PUSH1 0x0 DUP2 PUSH1 0x4 ADD PUSH1 0x0 PUSH2 0x100 EXP DUP2 SLOAD DUP2 PUSH1 0xFF MUL NOT AND SWAP1 DUP4 ISZERO ISZERO MUL OR SWAP1 SSTORE POP PUSH2 0x26C3 PUSH8 0xE0917496A894D3EA PUSH1 0xC0 SHL PUSH2 0x369C JUMP JUMPDEST PUSH2 0x26D7 PUSH8 0xDCE35C9CE2A062B9 PUSH1 0xC0 SHL PUSH2 0x369C JUMP JUMPDEST CALLER PUSH20 0xFFFFFFFFFFFFFFFFFFFFFFFFFFFFFFFFFFFFFFFF AND DUP3 PUSH32 0x393E9E4B16BB0310A90C21F5A14D4320ED1CD5800CED3216D7351E0E5DACD356 PUSH1 0x40 MLOAD PUSH1 0x40 MLOAD DUP1 SWAP2 SUB SWAP1 LOG3 POP PUSH2 0x2724 PUSH2 0x3738 JUMP JUMPDEST POP JUMP JUMPDEST PUSH2 0x273B PUSH8 0x7FDEEDF864721643 PUSH1 0xC0 SHL PUSH2 0x369C JUMP JUMPDEST PUSH2 0x2743 PUSH2 0x369F JUMP JUMPDEST PUSH2 0x2757 PUSH8 0x8798E28D29F490B5 PUSH1 0xC0 SHL PUSH2 0x369C JUMP JUMPDEST PUSH2 0x276B PUSH8 0x36FFEBF881B50512 PUSH1 0xC0 SHL PUSH2 0x369C JUMP JUMPDEST PUSH2 0x2773 PUSH2 0x36E5 JUMP JUMPDEST PUSH2 0x2787 PUSH8 0xF26141FFD21CE050 PUSH1 0xC0 SHL PUSH2 0x369C JUMP JUMPDEST PUSH2 0x279B PUSH8 0x28C1FFB1D83AF7A9 PUSH1 0xC0 SHL PUSH2 0x369C JUMP JUMPDEST PUSH2 0x27AF PUSH8 0x82EE66021F7E3F70 PUSH1 0xC0 SHL PUSH2 0x369C JUMP JUMPDEST PUSH2 0x27C3 PUSH8 0x3435E88FBA6B73D1 PUSH1 0xC0 SHL PUSH2 0x369C JUMP JUMPDEST PUSH1 0x0 PUSH1 0x3 PUSH1 0x0 DUP4 DUP2 MSTORE PUSH1 0x20 ADD SWAP1 DUP2 MSTORE PUSH1 0x20 ADD PUSH1 0x0 KECCAK256 SWAP1 POP PUSH2 0x27EE PUSH8 0x343C0AC6D0DF2C91 PUSH1 0xC0 SHL PUSH2 0x369C JUMP JUMPDEST PUSH2 0x2802 PUSH8 0xB950D0705E5F5598 PUSH1 0xC0 SHL PUSH2 0x369C JUMP JUMPDEST PUSH2 0x2816 PUSH8 0xCC861B9D0F2D033D PUSH1 0xC0 SHL PUSH2 0x369C JUMP JUMPDEST DUP1 PUSH1 0x6 ADD PUSH1 0x0 SWAP1 SLOAD SWAP1 PUSH2 0x100 EXP SWAP1 DIV PUSH1 0xFF AND DUP1 ISZERO PUSH2 0x2842 JUMPI POP DUP1 PUSH1 0x2 ADD PUSH1 0x0 SWAP1 SLOAD SWAP1 PUSH2 0x100 EXP SWAP1 DIV PUSH1 0xFF AND JUMPDEST PUSH2 0x2881 JUMPI PUSH1 0x40 MLOAD PUSH32 0x8C379A000000000000000000000000000000000000000000000000000000000 DUP2 MSTORE PUSH1 0x4 ADD PUSH2 0x2878 SWAP1 PUSH2 0x481C JUMP JUMPDEST PUSH1 0x40 MLOAD DUP1 SWAP2 SUB SWAP1 REVERT JUMPDEST PUSH2 0x2895 PUSH8 0x694B987F130A8977 PUSH1 0xC0 SHL PUSH2 0x369C JUMP JUMPDEST PUSH2 0x28A9 PUSH8 0xA23550FC9F82E84F PUSH1 0xC0 SHL PUSH2 0x369C JUMP JUMPDEST PUSH2 0x28BD PUSH8 0x63922DAACA5A61DE PUSH1 0xC0 SHL PUSH2 0x369C JUMP JUMPDEST PUSH2 0x28D1 PUSH8 0x41858D446C8E6F6D PUSH1 0xC0 SHL PUSH2 0x369C JUMP JUMPDEST DUP1 PUSH1 0x3 ADD SLOAD TIMESTAMP LT ISZERO PUSH2 0x2918 JUMPI PUSH1 0x40 MLOAD PUSH32 0x8C379A000000000000000000000000000000000000000000000000000000000 DUP2 MSTORE PUSH1 0x4 ADD PUSH2 0x290F SWAP1 PUSH2 0x4888 JUMP JUMPDEST PUSH1 0x40 MLOAD DUP1 SWAP2 SUB SWAP1 REVERT JUMPDEST PUSH2 0x292C PUSH8 0x15AE986A7D1CA245 PUSH1 0xC0 SHL PUSH2 0x369C JUMP JUMPDEST PUSH2 0x2940 PUSH8 0x695E9993C4EA410A PUSH1 0xC0 SHL PUSH2 0x369C JUMP JUMPDEST PUSH1 0x0 DUP2 PUSH1 0x6 ADD PUSH1 0x0 PUSH2 0x100 EXP DUP2 SLOAD DUP2 PUSH1 0xFF MUL NOT AND SWAP1 DUP4 ISZERO ISZERO MUL OR SWAP1 SSTORE POP PUSH2 0x2971 PUSH8 0x558A218F4442547E PUSH1 0xC0 SHL PUSH2 0x369C JUMP JUMPDEST PUSH2 0x2985 PUSH8 0xE8AC7EEFC65EE11D PUSH1 0xC0 SHL PUSH2 0x369C JUMP JUMPDEST PUSH1 0x0 PUSH20 0xFFFFFFFFFFFFFFFFFFFFFFFFFFFFFFFFFFFFFFFF AND DUP2 PUSH1 0x4 ADD PUSH1 0x0 SWAP1 SLOAD SWAP1 PUSH2 0x100 EXP SWAP1 DIV PUSH20 0xFFFFFFFFFFFFFFFFFFFFFFFFFFFFFFFFFFFFFFFF AND PUSH20 0xFFFFFFFFFFFFFFFFFFFFFFFFFFFFFFFFFFFFFFFF AND EQ PUSH2 0x2D1C JUMPI PUSH2 0x29F1 PUSH8 0x1A1F2B62E2144AE9 PUSH1 0xC0 SHL PUSH2 0x369C JUMP JUMPDEST PUSH2 0x2A05 PUSH8 0xAD49F6FDB9FE0549 PUSH1 0xC0 SHL PUSH2 0x369C JUMP JUMPDEST PUSH2 0x2A19 PUSH8 0xF263ADF2BD8B638E PUSH1 0xC0 SHL PUSH2 0x369C JUMP JUMPDEST PUSH1 0x0 DUP2 PUSH1 0x0 ADD PUSH1 0x0 SWAP1 SLOAD SWAP1 PUSH2 0x100 EXP SWAP1 DIV PUSH20 0xFFFFFFFFFFFFFFFFFFFFFFFFFFFFFFFFFFFFFFFF AND PUSH20 0xFFFFFFFFFFFFFFFFFFFFFFFFFFFFFFFFFFFFFFFF AND DUP3 PUSH1 0x5 ADD SLOAD PUSH1 0x40 MLOAD PUSH2 0x2A67 SWAP1 PUSH2 0x44C7 JUMP JUMPDEST PUSH1 0x0 PUSH1 0x40 MLOAD DUP1 DUP4 SUB DUP2 DUP6 DUP8 GAS CALL SWAP3 POP POP POP RETURNDATASIZE DUP1 PUSH1 0x0 DUP2 EQ PUSH2 0x2AA4 JUMPI PUSH1 0x40 MLOAD SWAP2 POP PUSH1 0x1F NOT PUSH1 0x3F RETURNDATASIZE ADD AND DUP3 ADD PUSH1 0x40 MSTORE RETURNDATASIZE DUP3 MSTORE RETURNDATASIZE PUSH1 0x0 PUSH1 0x20 DUP5 ADD RETURNDATACOPY PUSH2 0x2AA9 JUMP JUMPDEST PUSH1 0x60 SWAP2 POP JUMPDEST POP POP SWAP1 POP PUSH2 0x2AC1 PUSH8 0x4A2D2CB562C325F1 PUSH1 0xC0 SHL PUSH2 0x369C JUMP JUMPDEST PUSH2 0x2AD5 PUSH8 0x1446C5A8471992DA PUSH1 0xC0 SHL PUSH2 0x369C JUMP JUMPDEST DUP1 PUSH2 0x2B85 JUMPI PUSH2 0x2AEE PUSH8 0x402E2462D341537 PUSH1 0xC0 SHL PUSH2 0x369C JUMP JUMPDEST PUSH2 0x2B02 PUSH8 0x273C5675E08D92B8 PUSH1 0xC0 SHL PUSH2 0x369C JUMP JUMPDEST DUP2 PUSH1 0x5 ADD SLOAD PUSH1 0x4 PUSH1 0x0 DUP5 PUSH1 0x0 ADD PUSH1 0x0 SWAP1 SLOAD SWAP1 PUSH2 0x100 EXP SWAP1 DIV PUSH20 0xFFFFFFFFFFFFFFFFFFFFFFFFFFFFFFFFFFFFFFFF AND PUSH20 0xFFFFFFFFFFFFFFFFFFFFFFFFFFFFFFFFFFFFFFFF AND PUSH20 0xFFFFFFFFFFFFFFFFFFFFFFFFFFFFFFFFFFFFFFFF AND DUP2 MSTORE PUSH1 0x20 ADD SWAP1 DUP2 MSTORE PUSH1 0x20 ADD PUSH1 0x0 KECCAK256 PUSH1 0x0 DUP3 DUP3 SLOAD PUSH2 0x2B79 SWAP2 SWAP1 PUSH2 0x40F0 JUMP JUMPDEST SWAP3 POP POP DUP2 SWAP1 SSTORE POP PUSH2 0x2B9A JUMP JUMPDEST PUSH2 0x2B99 PUSH8 0xAE9EB368AA9C9DF9 PUSH1 0xC0 SHL PUSH2 0x369C JUMP JUMPDEST JUMPDEST PUSH2 0x2BAE PUSH8 0x7515A41586E86521 PUSH1 0xC0 SHL PUSH2 0x369C JUMP JUMPDEST PUSH2 0x2BC2 PUSH8 0x1E73C4573640DB09 PUSH1 0xC0 SHL PUSH2 0x369C JUMP JUMPDEST PUSH1 0x2 PUSH1 0x0 SWAP1 SLOAD SWAP1 PUSH2 0x100 EXP SWAP1 DIV PUSH20 0xFFFFFFFFFFFFFFFFFFFFFFFFFFFFFFFFFFFFFFFF AND PUSH20 0xFFFFFFFFFFFFFFFFFFFFFFFFFFFFFFFFFFFFFFFF AND PUSH4 0x23B872DD ADDRESS DUP5 PUSH1 0x4 ADD PUSH1 0x0 SWAP1 SLOAD SWAP1 PUSH2 0x100 EXP SWAP1 DIV PUSH20 0xFFFFFFFFFFFFFFFFFFFFFFFFFFFFFFFFFFFFFFFF AND DUP7 PUSH1 0x40 MLOAD DUP5 PUSH4 0xFFFFFFFF AND PUSH1 0xE0 SHL DUP2 MSTORE PUSH1 0x4 ADD PUSH2 0x2C45 SWAP4 SWAP3 SWAP2 SWAP1 PUSH2 0x408A JUMP JUMPDEST PUSH1 0x0 PUSH1 0x40 MLOAD DUP1 DUP4 SUB DUP2 PUSH1 0x0 DUP8 DUP1 EXTCODESIZE ISZERO DUP1 ISZERO PUSH2 0x2C5F JUMPI PUSH1 0x0 DUP1 REVERT JUMPDEST POP GAS CALL ISZERO DUP1 ISZERO PUSH2 0x2C73 JUMPI RETURNDATASIZE PUSH1 0x0 DUP1 RETURNDATACOPY RETURNDATASIZE PUSH1 0x0 REVERT JUMPDEST POP POP POP POP PUSH2 0x2C8B PUSH8 0xD4DAA1C1B43B00C0 PUSH1 0xC0 SHL PUSH2 0x369C JUMP JUMPDEST PUSH2 0x2C9F PUSH8 0xDB640A66370927C3 PUSH1 0xC0 SHL PUSH2 0x369C JUMP JUMPDEST DUP2 PUSH1 0x4 ADD PUSH1 0x0 SWAP1 SLOAD SWAP1 PUSH2 0x100 EXP SWAP1 DIV PUSH20 0xFFFFFFFFFFFFFFFFFFFFFFFFFFFFFFFFFFFFFFFF AND PUSH20 0xFFFFFFFFFFFFFFFFFFFFFFFFFFFFFFFFFFFFFFFF AND DUP4 PUSH32 0xD2AA34A4FDBBC6DFF6A3E56F46E0F3AE2A31D7785FF3487AA5C95C642ACEA501 DUP5 PUSH1 0x5 ADD SLOAD PUSH1 0x40 MLOAD PUSH2 0x2D0E SWAP2 SWAP1 PUSH2 0x3CD6 JUMP JUMPDEST PUSH1 0x40 MLOAD DUP1 SWAP2 SUB SWAP1 LOG3 POP PUSH2 0x2E0E JUMP JUMPDEST PUSH2 0x2D30 PUSH8 0x4224F8F3B90751B4 PUSH1 0xC0 SHL PUSH2 0x369C JUMP JUMPDEST PUSH2 0x2D44 PUSH8 0x72567D46AC7C7B08 PUSH1 0xC0 SHL PUSH2 0x369C JUMP JUMPDEST PUSH2 0x2D58 PUSH8 0x1887C17B8FF72979 PUSH1 0xC0 SHL PUSH2 0x369C JUMP JUMPDEST PUSH1 0x2 PUSH1 0x0 SWAP1 SLOAD SWAP1 PUSH2 0x100 EXP SWAP1 DIV PUSH20 0xFFFFFFFFFFFFFFFFFFFFFFFFFFFFFFFFFFFFFFFF AND PUSH20 0xFFFFFFFFFFFFFFFFFFFFFFFFFFFFFFFFFFFFFFFF AND PUSH4 0x23B872DD ADDRESS DUP4 PUSH1 0x0 ADD PUSH1 0x0 SWAP1 SLOAD SWAP1 PUSH2 0x100 EXP SWAP1 DIV PUSH20 0xFFFFFFFFFFFFFFFFFFFFFFFFFFFFFFFFFFFFFFFF AND DUP6 PUSH1 0x40 MLOAD DUP5 PUSH4 0xFFFFFFFF AND PUSH1 0xE0 SHL DUP2 MSTORE PUSH1 0x4 ADD PUSH2 0x2DDB SWAP4 SWAP3 SWAP2 SWAP1 PUSH2 0x408A JUMP JUMPDEST PUSH1 0x0 PUSH1 0x40 MLOAD DUP1 DUP4 SUB DUP2 PUSH1 0x0 DUP8 DUP1 EXTCODESIZE ISZERO DUP1 ISZERO PUSH2 0x2DF5 JUMPI PUSH1 0x0 DUP1 REVERT JUMPDEST POP GAS CALL ISZERO DUP1 ISZERO PUSH2 0x2E09 JUMPI RETURNDATASIZE PUSH1 0x0 DUP1 RETURNDATACOPY RETURNDATASIZE PUSH1 0x0 REVERT JUMPDEST POP POP POP POP JUMPDEST POP PUSH2 0x2E17 PUSH2 0x3738 JUMP JUMPDEST POP JUMP JUMPDEST PUSH2 0x2E22 PUSH2 0x39E9 JUMP JUMPDEST PUSH2 0x2E36 PUSH8 0xF7BC2990251E8D8D PUSH1 0xC0 SHL PUSH2 0x369C JUMP JUMPDEST PUSH2 0x2E4A PUSH8 0xD1AEF429F2D909C1 PUSH1 0xC0 SHL PUSH2 0x369C JUMP JUMPDEST PUSH2 0x2E5E PUSH8 0x5CB265632E2769F2 PUSH1 0xC0 SHL PUSH2 0x369C JUMP JUMPDEST PUSH1 0x5 PUSH1 0x0 DUP4 DUP2 MSTORE PUSH1 0x20 ADD SWAP1 DUP2 MSTORE PUSH1 0x20 ADD PUSH1 0x0 KECCAK256 PUSH1 0x40 MLOAD DUP1 PUSH1 0xA0 ADD PUSH1 0x40 MSTORE SWAP1 DUP2 PUSH1 0x0 DUP3 ADD PUSH1 0x0 SWAP1 SLOAD SWAP1 PUSH2 0x100 EXP SWAP1 DIV PUSH20 0xFFFFFFFFFFFFFFFFFFFFFFFFFFFFFFFFFFFFFFFF AND PUSH20 0xFFFFFFFFFFFFFFFFFFFFFFFFFFFFFFFFFFFFFFFF AND PUSH20 0xFFFFFFFFFFFFFFFFFFFFFFFFFFFFFFFFFFFFFFFF AND DUP2 MSTORE PUSH1 0x20 ADD PUSH1 0x1 DUP3 ADD PUSH1 0x0 SWAP1 SLOAD SWAP1 PUSH2 0x100 EXP SWAP1 DIV PUSH20 0xFFFFFFFFFFFFFFFFFFFFFFFFFFFFFFFFFFFFFFFF AND PUSH20 0xFFFFFFFFFFFFFFFFFFFFFFFFFFFFFFFFFFFFFFFF AND PUSH20 0xFFFFFFFFFFFFFFFFFFFFFFFFFFFFFFFFFFFFFFFF AND DUP2 MSTORE PUSH1 0x20 ADD PUSH1 0x2 DUP3 ADD DUP1 SLOAD DUP1 PUSH1 0x20 MUL PUSH1 0x20 ADD PUSH1 0x40 MLOAD SWAP1 DUP2 ADD PUSH1 0x40 MSTORE DUP1 SWAP3 SWAP2 SWAP1 DUP2 DUP2 MSTORE PUSH1 0x20 ADD DUP3 DUP1 SLOAD DUP1 ISZERO PUSH2 0x2F77 JUMPI PUSH1 0x20 MUL DUP3 ADD SWAP2 SWAP1 PUSH1 0x0 MSTORE PUSH1 0x20 PUSH1 0x0 KECCAK256 SWAP1 JUMPDEST DUP2 SLOAD DUP2 MSTORE PUSH1 0x20 ADD SWAP1 PUSH1 0x1 ADD SWAP1 DUP1 DUP4 GT PUSH2 0x2F63 JUMPI JUMPDEST POP POP POP POP POP DUP2 MSTORE PUSH1 0x20 ADD PUSH1 0x3 DUP3 ADD DUP1 SLOAD DUP1 PUSH1 0x20 MUL PUSH1 0x20 ADD PUSH1 0x40 MLOAD SWAP1 DUP2 ADD PUSH1 0x40 MSTORE DUP1 SWAP3 SWAP2 SWAP1 DUP2 DUP2 MSTORE PUSH1 0x20 ADD DUP3 DUP1 SLOAD DUP1 ISZERO PUSH2 0x2FCF JUMPI PUSH1 0x20 MUL DUP3 ADD SWAP2 SWAP1 PUSH1 0x0 MSTORE PUSH1 0x20 PUSH1 0x0 KECCAK256 SWAP1 JUMPDEST DUP2 SLOAD DUP2 MSTORE PUSH1 0x20 ADD SWAP1 PUSH1 0x1 ADD SWAP1 DUP1 DUP4 GT PUSH2 0x2FBB JUMPI JUMPDEST POP POP POP POP POP DUP2 MSTORE PUSH1 0x20 ADD PUSH1 0x4 DUP3 ADD PUSH1 0x0 SWAP1 SLOAD SWAP1 PUSH2 0x100 EXP SWAP1 DIV PUSH1 0xFF AND ISZERO ISZERO ISZERO ISZERO DUP2 MSTORE POP POP SWAP1 POP SWAP2 SWAP1 POP JUMP JUMPDEST PUSH2 0x300E PUSH8 0xAEFDE2860D75B955 PUSH1 0xC0 SHL PUSH2 0x369C JUMP JUMPDEST PUSH2 0x3016 PUSH2 0x369F JUMP JUMPDEST PUSH2 0x302A PUSH8 0xBBD02860952DC2DB PUSH1 0xC0 SHL PUSH2 0x369C JUMP JUMPDEST PUSH2 0x303E PUSH8 0x87993B3EC1EFF4D9 PUSH1 0xC0 SHL PUSH2 0x369C JUMP JUMPDEST PUSH2 0x3046 PUSH2 0x36E5 JUMP JUMPDEST PUSH2 0x305A PUSH8 0x6CAA7B90DA10BCB9 PUSH1 0xC0 SHL PUSH2 0x369C JUMP JUMPDEST PUSH2 0x306E PUSH8 0xDBFF334DF0F769D4 PUSH1 0xC0 SHL PUSH2 0x369C JUMP JUMPDEST PUSH2 0x3082 PUSH8 0x3DEDAAFA28FED7C8 PUSH1 0xC0 SHL PUSH2 0x369C JUMP JUMPDEST PUSH2 0x3096 PUSH8 0xF8C752B6FBAAE45C PUSH1 0xC0 SHL PUSH2 0x369C JUMP JUMPDEST PUSH1 0x0 PUSH1 0x3 PUSH1 0x0 DUP4 DUP2 MSTORE PUSH1 0x20 ADD SWAP1 DUP2 MSTORE PUSH1 0x20 ADD PUSH1 0x0 KECCAK256 SWAP1 POP PUSH2 0x30C1 PUSH8 0x4885B5B6CAB32579 PUSH1 0xC0 SHL PUSH2 0x369C JUMP JUMPDEST PUSH2 0x30D5 PUSH8 0x55D05AAE3274EF21 PUSH1 0xC0 SHL PUSH2 0x369C JUMP JUMPDEST PUSH2 0x30E9 PUSH8 0x693BF40727D65534 PUSH1 0xC0 SHL PUSH2 0x369C JUMP JUMPDEST DUP1 PUSH1 0x6 ADD PUSH1 0x0 SWAP1 SLOAD SWAP1 PUSH2 0x100 EXP SWAP1 DIV PUSH1 0xFF AND PUSH2 0x313A JUMPI PUSH1 0x40 MLOAD PUSH32 0x8C379A000000000000000000000000000000000000000000000000000000000 DUP2 MSTORE PUSH1 0x4 ADD PUSH2 0x3131 SWAP1 PUSH2 0x4332 JUMP JUMPDEST PUSH1 0x40 MLOAD DUP1 SWAP2 SUB SWAP1 REVERT JUMPDEST PUSH2 0x314E PUSH8 0x984B6BD7FA1DE73B PUSH1 0xC0 SHL PUSH2 0x369C JUMP JUMPDEST PUSH2 0x3162 PUSH8 0xCE2C9229B1561FCA PUSH1 0xC0 SHL PUSH2 0x369C JUMP JUMPDEST PUSH2 0x3176 PUSH8 0x3ACA933F3DA6062F PUSH1 0xC0 SHL PUSH2 0x369C JUMP JUMPDEST PUSH2 0x318A PUSH8 0x2BF0BA948C3AB85F PUSH1 0xC0 SHL PUSH2 0x369C JUMP JUMPDEST DUP1 PUSH1 0x2 ADD PUSH1 0x0 SWAP1 SLOAD SWAP1 PUSH2 0x100 EXP SWAP1 DIV PUSH1 0xFF AND ISZERO PUSH2 0x31DC JUMPI PUSH1 0x40 MLOAD PUSH32 0x8C379A000000000000000000000000000000000000000000000000000000000 DUP2 MSTORE PUSH1 0x4 ADD PUSH2 0x31D3 SWAP1 PUSH2 0x48F4 JUMP JUMPDEST PUSH1 0x40 MLOAD DUP1 SWAP2 SUB SWAP1 REVERT JUMPDEST PUSH2 0x31F0 PUSH8 0x104A7332C8560CD5 PUSH1 0xC0 SHL PUSH2 0x369C JUMP JUMPDEST PUSH2 0x3204 PUSH8 0x4E906CB1FE09AFC1 PUSH1 0xC0 SHL PUSH2 0x369C JUMP JUMPDEST PUSH2 0x3218 PUSH8 0xE18775AB1133786E PUSH1 0xC0 SHL PUSH2 0x369C JUMP JUMPDEST PUSH2 0x322C PUSH8 0xCB2A8EF740D1F084 PUSH1 0xC0 SHL PUSH2 0x369C JUMP JUMPDEST DUP1 PUSH1 0x1 ADD SLOAD CALLVALUE EQ PUSH2 0x3272 JUMPI PUSH1 0x40 MLOAD PUSH32 0x8C379A000000000000000000000000000000000000000000000000000000000 DUP2 MSTORE PUSH1 0x4 ADD PUSH2 0x3269 SWAP1 PUSH2 0x4960 JUMP JUMPDEST PUSH1 0x40 MLOAD DUP1 SWAP2 SUB SWAP1 REVERT JUMPDEST PUSH2 0x3286 PUSH8 0x9FB9BD31E7F23043 PUSH1 0xC0 SHL PUSH2 0x369C JUMP JUMPDEST PUSH2 0x329A PUSH8 0xCDAAA3E5E8E0945C PUSH1 0xC0 SHL PUSH2 0x369C JUMP JUMPDEST PUSH1 0x0 DUP2 PUSH1 0x6 ADD PUSH1 0x0 PUSH2 0x100 EXP DUP2 SLOAD DUP2 PUSH1 0xFF MUL NOT AND SWAP1 DUP4 ISZERO ISZERO MUL OR SWAP1 SSTORE POP PUSH2 0x32CB PUSH8 0xCBDC3973A172B38 PUSH1 0xC0 SHL PUSH2 0x369C JUMP JUMPDEST PUSH2 0x32DF PUSH8 0xC6B70A0DCAE8CD47 PUSH1 0xC0 SHL PUSH2 0x369C JUMP JUMPDEST PUSH1 0x0 DUP2 PUSH1 0x0 ADD PUSH1 0x0 SWAP1 SLOAD SWAP1 PUSH2 0x100 EXP SWAP1 DIV PUSH20 0xFFFFFFFFFFFFFFFFFFFFFFFFFFFFFFFFFFFFFFFF AND PUSH20 0xFFFFFFFFFFFFFFFFFFFFFFFFFFFFFFFFFFFFFFFF AND CALLVALUE PUSH1 0x40 MLOAD PUSH2 0x3329 SWAP1 PUSH2 0x44C7 JUMP JUMPDEST PUSH1 0x0 PUSH1 0x40 MLOAD DUP1 DUP4 SUB DUP2 DUP6 DUP8 GAS CALL SWAP3 POP POP POP RETURNDATASIZE DUP1 PUSH1 0x0 DUP2 EQ PUSH2 0x3366 JUMPI PUSH1 0x40 MLOAD SWAP2 POP PUSH1 0x1F NOT PUSH1 0x3F RETURNDATASIZE ADD AND DUP3 ADD PUSH1 0x40 MSTORE RETURNDATASIZE DUP3 MSTORE RETURNDATASIZE PUSH1 0x0 PUSH1 0x20 DUP5 ADD RETURNDATACOPY PUSH2 0x336B JUMP JUMPDEST PUSH1 0x60 SWAP2 POP JUMPDEST POP POP SWAP1 POP PUSH2 0x3383 PUSH8 0xBD890EF3D2252718 PUSH1 0xC0 SHL PUSH2 0x369C JUMP JUMPDEST PUSH2 0x3397 PUSH8 0xC669FFBB446285A6 PUSH1 0xC0 SHL PUSH2 0x369C JUMP JUMPDEST PUSH2 0x33AB PUSH8 0x9805B6BD550B930B PUSH1 0xC0 SHL PUSH2 0x369C JUMP JUMPDEST DUP1 PUSH2 0x33EB JUMPI PUSH1 0x40 MLOAD PUSH32 0x8C379A000000000000000000000000000000000000000000000000000000000 DUP2 MSTORE PUSH1 0x4 ADD PUSH2 0x33E2 SWAP1 PUSH2 0x4528 JUMP JUMPDEST PUSH1 0x40 MLOAD DUP1 SWAP2 SUB SWAP1 REVERT JUMPDEST PUSH2 0x33FF PUSH8 0x57A6B684FB126EB0 PUSH1 0xC0 SHL PUSH2 0x369C JUMP JUMPDEST PUSH2 0x3413 PUSH8 0x7B482FE7B20C9F98 PUSH1 0xC0 SHL PUSH2 0x369C JUMP JUMPDEST PUSH2 0x3427 PUSH8 0x17F2292FBF28DB52 PUSH1 0xC0 SHL PUSH2 0x369C JUMP JUMPDEST PUSH1 0x2 PUSH1 0x0 SWAP1 SLOAD SWAP1 PUSH2 0x100 EXP SWAP1 DIV PUSH20 0xFFFFFFFFFFFFFFFFFFFFFFFFFFFFFFFFFFFFFFFF AND PUSH20 0xFFFFFFFFFFFFFFFFFFFFFFFFFFFFFFFFFFFFFFFF AND PUSH4 0x23B872DD ADDRESS CALLER DUP7 PUSH1 0x40 MLOAD DUP5 PUSH4 0xFFFFFFFF AND PUSH1 0xE0 SHL DUP2 MSTORE PUSH1 0x4 ADD PUSH2 0x3486 SWAP4 SWAP3 SWAP2 SWAP1 PUSH2 0x408A JUMP JUMPDEST PUSH1 0x0 PUSH1 0x40 MLOAD DUP1 DUP4 SUB DUP2 PUSH1 0x0 DUP8 DUP1 EXTCODESIZE ISZERO DUP1 ISZERO PUSH2 0x34A0 JUMPI PUSH1 0x0 DUP1 REVERT JUMPDEST POP GAS CALL ISZERO DUP1 ISZERO PUSH2 0x34B4 JUMPI RETURNDATASIZE PUSH1 0x0 DUP1 RETURNDATACOPY RETURNDATASIZE PUSH1 0x0 REVERT JUMPDEST POP POP POP POP PUSH2 0x34CC PUSH8 0xC0226D019A8469EE PUSH1 0xC0 SHL PUSH2 0x369C JUMP JUMPDEST PUSH2 0x34E0 PUSH8 0x4A7AE70B60C06AAD PUSH1 0xC0 SHL PUSH2 0x369C JUMP JUMPDEST CALLER PUSH20 0xFFFFFFFFFFFFFFFFFFFFFFFFFFFFFFFFFFFFFFFF AND DUP4 PUSH32 0xA574C741071BB18F51FA88C17AEEFEC514BEBF670CA22A3736FBA6504ECBB763 CALLVALUE PUSH1 0x40 MLOAD PUSH2 0x3527 SWAP2 SWAP1 PUSH2 0x3CD6 JUMP JUMPDEST PUSH1 0x40 MLOAD DUP1 SWAP2 SUB SWAP1 LOG3 POP POP PUSH2 0x3539 PUSH2 0x3738 JUMP JUMPDEST POP JUMP JUMPDEST PUSH1 0x2 PUSH1 0x0 SWAP1 SLOAD SWAP1 PUSH2 0x100 EXP SWAP1 DIV PUSH20 0xFFFFFFFFFFFFFFFFFFFFFFFFFFFFFFFFFFFFFFFF AND DUP2 JUMP JUMPDEST PUSH1 0x3 PUSH1 0x20 MSTORE DUP1 PUSH1 0x0 MSTORE PUSH1 0x40 PUSH1 0x0 KECCAK256 PUSH1 0x0 SWAP2 POP SWAP1 POP DUP1 PUSH1 0x0 ADD PUSH1 0x0 SWAP1 SLOAD SWAP1 PUSH2 0x100 EXP SWAP1 DIV PUSH20 0xFFFFFFFFFFFFFFFFFFFFFFFFFFFFFFFFFFFFFFFF AND SWAP1 DUP1 PUSH1 0x1 ADD SLOAD SWAP1 DUP1 PUSH1 0x2 ADD PUSH1 0x0 SWAP1 SLOAD SWAP1 PUSH2 0x100 EXP SWAP1 DIV PUSH1 0xFF AND SWAP1 DUP1 PUSH1 0x3 ADD SLOAD SWAP1 DUP1 PUSH1 0x4 ADD PUSH1 0x0 SWAP1 SLOAD SWAP1 PUSH2 0x100 EXP SWAP1 DIV PUSH20 0xFFFFFFFFFFFFFFFFFFFFFFFFFFFFFFFFFFFFFFFF AND SWAP1 DUP1 PUSH1 0x5 ADD SLOAD SWAP1 DUP1 PUSH1 0x6 ADD PUSH1 0x0 SWAP1 SLOAD SWAP1 PUSH2 0x100 EXP SWAP1 DIV PUSH1 0xFF AND SWAP1 POP DUP8 JUMP JUMPDEST PUSH2 0x3606 PUSH2 0x3742 JUMP JUMPDEST PUSH1 0x0 PUSH20 0xFFFFFFFFFFFFFFFFFFFFFFFFFFFFFFFFFFFFFFFF AND DUP2 PUSH20 0xFFFFFFFFFFFFFFFFFFFFFFFFFFFFFFFFFFFFFFFF AND SUB PUSH2 0x3678 JUMPI PUSH1 0x0 PUSH1 0x40 MLOAD PUSH32 0x1E4FBDF700000000000000000000000000000000000000000000000000000000 DUP2 MSTORE PUSH1 0x4 ADD PUSH2 0x366F SWAP2 SWAP1 PUSH2 0x3D2A JUMP JUMPDEST PUSH1 0x40 MLOAD DUP1 SWAP2 SUB SWAP1 REVERT JUMPDEST PUSH2 0x3681 DUP2 PUSH2 0x382C JUMP JUMPDEST POP JUMP JUMPDEST PUSH1 0x4 PUSH1 0x20 MSTORE DUP1 PUSH1 0x0 MSTORE PUSH1 0x40 PUSH1 0x0 KECCAK256 PUSH1 0x0 SWAP2 POP SWAP1 POP SLOAD DUP2 JUMP JUMPDEST POP JUMP JUMPDEST PUSH1 0x2 PUSH1 0x0 SLOAD SUB PUSH2 0x36DB JUMPI PUSH1 0x40 MLOAD PUSH32 0x3EE5AEB500000000000000000000000000000000000000000000000000000000 DUP2 MSTORE PUSH1 0x4 ADD PUSH1 0x40 MLOAD DUP1 SWAP2 SUB SWAP1 REVERT JUMPDEST PUSH1 0x2 PUSH1 0x0 DUP2 SWAP1 SSTORE POP JUMP JUMPDEST PUSH2 0x36ED PUSH2 0x1FF2 JUMP JUMPDEST ISZERO PUSH2 0x3724 JUMPI PUSH1 0x40 MLOAD PUSH32 0xD93C066500000000000000000000000000000000000000000000000000000000 DUP2 MSTORE PUSH1 0x4 ADD PUSH1 0x40 MLOAD DUP1 SWAP2 SUB SWAP1 REVERT JUMPDEST JUMP JUMPDEST PUSH1 0x0 SWAP2 SWAP1 POP JUMP JUMPDEST PUSH1 0x0 PUSH1 0x1 SWAP1 POP SWAP2 SWAP1 POP JUMP JUMPDEST PUSH1 0x1 PUSH1 0x0 DUP2 SWAP1 SSTORE POP JUMP JUMPDEST PUSH2 0x374A PUSH2 0x3954 JUMP JUMPDEST PUSH20 0xFFFFFFFFFFFFFFFFFFFFFFFFFFFFFFFFFFFFFFFF AND PUSH2 0x3768 PUSH2 0x2093 JUMP JUMPDEST PUSH20 0xFFFFFFFFFFFFFFFFFFFFFFFFFFFFFFFFFFFFFFFF AND EQ PUSH2 0x37C7 JUMPI PUSH2 0x378B PUSH2 0x3954 JUMP JUMPDEST PUSH1 0x40 MLOAD PUSH32 0x118CDAA700000000000000000000000000000000000000000000000000000000 DUP2 MSTORE PUSH1 0x4 ADD PUSH2 0x37BE SWAP2 SWAP1 PUSH2 0x3D2A JUMP JUMPDEST PUSH1 0x40 MLOAD DUP1 SWAP2 SUB SWAP1 REVERT JUMPDEST JUMP JUMPDEST PUSH2 0x37D1 PUSH2 0x395C JUMP JUMPDEST PUSH1 0x0 PUSH1 0x1 PUSH1 0x14 PUSH2 0x100 EXP DUP2 SLOAD DUP2 PUSH1 0xFF MUL NOT AND SWAP1 DUP4 ISZERO ISZERO MUL OR SWAP1 SSTORE POP PUSH32 0x5DB9EE0A495BF2E6FF9C91A7834C1BA4FDD244A5E8AA4E537BD38AEAE4B073AA PUSH2 0x3815 PUSH2 0x3954 JUMP JUMPDEST PUSH1 0x40 MLOAD PUSH2 0x3822 SWAP2 SWAP1 PUSH2 0x3D2A JUMP JUMPDEST PUSH1 0x40 MLOAD DUP1 SWAP2 SUB SWAP1 LOG1 JUMP JUMPDEST PUSH1 0x0 PUSH1 0x1 PUSH1 0x0 SWAP1 SLOAD SWAP1 PUSH2 0x100 EXP SWAP1 DIV PUSH20 0xFFFFFFFFFFFFFFFFFFFFFFFFFFFFFFFFFFFFFFFF AND SWAP1 POP DUP2 PUSH1 0x1 PUSH1 0x0 PUSH2 0x100 EXP DUP2 SLOAD DUP2 PUSH20 0xFFFFFFFFFFFFFFFFFFFFFFFFFFFFFFFFFFFFFFFF MUL NOT AND SWAP1 DUP4 PUSH20 0xFFFFFFFFFFFFFFFFFFFFFFFFFFFFFFFFFFFFFFFF AND MUL OR SWAP1 SSTORE POP DUP2 PUSH20 0xFFFFFFFFFFFFFFFFFFFFFFFFFFFFFFFFFFFFFFFF AND DUP2 PUSH20 0xFFFFFFFFFFFFFFFFFFFFFFFFFFFFFFFFFFFFFFFF AND PUSH32 0x8BE0079C531659141344CD1FD0A4F28419497F9722A3DAAFE3B4186F6B6457E0 PUSH1 0x40 MLOAD PUSH1 0x40 MLOAD DUP1 SWAP2 SUB SWAP1 LOG3 POP POP JUMP JUMPDEST PUSH2 0x38FA PUSH2 0x36E5 JUMP JUMPDEST PUSH1 0x1 DUP1 PUSH1 0x14 PUSH2 0x100 EXP DUP2 SLOAD DUP2 PUSH1 0xFF MUL NOT AND SWAP1 DUP4 ISZERO ISZERO MUL OR SWAP1 SSTORE POP PUSH32 0x62E78CEA01BEE320CD4E420270B5EA74000D11B0C9F74754EBDBFC544B05A258 PUSH2 0x393D PUSH2 0x3954 JUMP JUMPDEST PUSH1 0x40 MLOAD PUSH2 0x394A SWAP2 SWAP1 PUSH2 0x3D2A JUMP JUMPDEST PUSH1 0x40 MLOAD DUP1 SWAP2 SUB SWAP1 LOG1 JUMP JUMPDEST PUSH1 0x0 CALLER SWAP1 POP SWAP1 JUMP JUMPDEST PUSH2 0x3964 PUSH2 0x1FF2 JUMP JUMPDEST PUSH2 0x399A JUMPI PUSH1 0x40 MLOAD PUSH32 0x8DFC202B00000000000000000000000000000000000000000000000000000000 DUP2 MSTORE PUSH1 0x4 ADD PUSH1 0x40 MLOAD DUP1 SWAP2 SUB SWAP1 REVERT JUMPDEST JUMP JUMPDEST DUP3 DUP1 SLOAD DUP3 DUP3 SSTORE SWAP1 PUSH1 0x0 MSTORE PUSH1 0x20 PUSH1 0x0 KECCAK256 SWAP1 DUP2 ADD SWAP3 DUP3 ISZERO PUSH2 0x39D8 JUMPI SWAP2 PUSH1 0x20 MUL DUP3 ADD JUMPDEST DUP3 DUP2 GT ISZERO PUSH2 0x39D7 JUMPI DUP3 MLOAD DUP3 SSTORE SWAP2 PUSH1 0x20 ADD SWAP2 SWAP1 PUSH1 0x1 ADD SWAP1 PUSH2 0x39BC JUMP JUMPDEST JUMPDEST POP SWAP1 POP PUSH2 0x39E5 SWAP2 SWAP1 PUSH2 0x3A46 JUMP JUMPDEST POP SWAP1 JUMP JUMPDEST PUSH1 0x40 MLOAD DUP1 PUSH1 0xA0 ADD PUSH1 0x40 MSTORE DUP1 PUSH1 0x0 PUSH20 0xFFFFFFFFFFFFFFFFFFFFFFFFFFFFFFFFFFFFFFFF AND DUP2 MSTORE PUSH1 0x20 ADD PUSH1 0x0 PUSH20 0xFFFFFFFFFFFFFFFFFFFFFFFFFFFFFFFFFFFFFFFF AND DUP2 MSTORE PUSH1 0x20 ADD PUSH1 0x60 DUP2 MSTORE PUSH1 0x20 ADD PUSH1 0x60 DUP2 MSTORE PUSH1 0x20 ADD PUSH1 0x0 ISZERO ISZERO DUP2 MSTORE POP SWAP1 JUMP JUMPDEST JUMPDEST DUP1 DUP3 GT ISZERO PUSH2 0x3A5F JUMPI PUSH1 0x0 DUP2 PUSH1 0x0 SWAP1 SSTORE POP PUSH1 0x1 ADD PUSH2 0x3A47 JUMP JUMPDEST POP SWAP1 JUMP JUMPDEST PUSH1 0x0 DUP1 REVERT JUMPDEST PUSH1 0x0 DUP1 REVERT JUMPDEST PUSH1 0x0 DUP2 SWAP1 POP SWAP2 SWAP1 POP JUMP JUMPDEST PUSH2 0x3A80 DUP2 PUSH2 0x3A6D JUMP JUMPDEST DUP2 EQ PUSH2 0x3A8B JUMPI PUSH1 0x0 DUP1 REVERT JUMPDEST POP JUMP JUMPDEST PUSH1 0x0 DUP2 CALLDATALOAD SWAP1 POP PUSH2 0x3A9D DUP2 PUSH2 0x3A77 JUMP JUMPDEST SWAP3 SWAP2 POP POP JUMP JUMPDEST PUSH1 0x0 DUP2 ISZERO ISZERO SWAP1 POP SWAP2 SWAP1 POP JUMP JUMPDEST PUSH2 0x3AB8 DUP2 PUSH2 0x3AA3 JUMP JUMPDEST DUP2 EQ PUSH2 0x3AC3 JUMPI PUSH1 0x0 DUP1 REVERT JUMPDEST POP JUMP JUMPDEST PUSH1 0x0 DUP2 CALLDATALOAD SWAP1 POP PUSH2 0x3AD5 DUP2 PUSH2 0x3AAF JUMP JUMPDEST SWAP3 SWAP2 POP POP JUMP JUMPDEST PUSH1 0x0 DUP1 PUSH1 0x0 DUP1 PUSH1 0x80 DUP6 DUP8 SUB SLT ISZERO PUSH2 0x3AF5 JUMPI PUSH2 0x3AF4 PUSH2 0x3A63 JUMP JUMPDEST JUMPDEST PUSH1 0x0 PUSH2 0x3B03 DUP8 DUP3 DUP9 ADD PUSH2 0x3A8E JUMP JUMPDEST SWAP5 POP POP PUSH1 0x20 PUSH2 0x3B14 DUP8 DUP3 DUP9 ADD PUSH2 0x3A8E JUMP JUMPDEST SWAP4 POP POP PUSH1 0x40 PUSH2 0x3B25 DUP8 DUP3 DUP9 ADD PUSH2 0x3AC6 JUMP JUMPDEST SWAP3 POP POP PUSH1 0x60 PUSH2 0x3B36 DUP8 DUP3 DUP9 ADD PUSH2 0x3A8E JUMP JUMPDEST SWAP2 POP POP SWAP3 SWAP6 SWAP2 SWAP5 POP SWAP3 POP JUMP JUMPDEST PUSH1 0x0 DUP1 REVERT JUMPDEST PUSH1 0x0 DUP1 REVERT JUMPDEST PUSH1 0x0 DUP1 REVERT JUMPDEST PUSH1 0x0 DUP1 DUP4 PUSH1 0x1F DUP5 ADD SLT PUSH2 0x3B67 JUMPI PUSH2 0x3B66 PUSH2 0x3B42 JUMP JUMPDEST JUMPDEST DUP3 CALLDATALOAD SWAP1 POP PUSH8 0xFFFFFFFFFFFFFFFF DUP2 GT ISZERO PUSH2 0x3B84 JUMPI PUSH2 0x3B83 PUSH2 0x3B47 JUMP JUMPDEST JUMPDEST PUSH1 0x20 DUP4 ADD SWAP2 POP DUP4 PUSH1 0x20 DUP3 MUL DUP4 ADD GT ISZERO PUSH2 0x3BA0 JUMPI PUSH2 0x3B9F PUSH2 0x3B4C JUMP JUMPDEST JUMPDEST SWAP3 POP SWAP3 SWAP1 POP JUMP JUMPDEST PUSH1 0x0 PUSH20 0xFFFFFFFFFFFFFFFFFFFFFFFFFFFFFFFFFFFFFFFF DUP3 AND SWAP1 POP SWAP2 SWAP1 POP JUMP JUMPDEST PUSH1 0x0 PUSH2 0x3BD2 DUP3 PUSH2 0x3BA7 JUMP JUMPDEST SWAP1 POP SWAP2 SWAP1 POP JUMP JUMPDEST PUSH2 0x3BE2 DUP2 PUSH2 0x3BC7 JUMP JUMPDEST DUP2 EQ PUSH2 0x3BED JUMPI PUSH1 0x0 DUP1 REVERT JUMPDEST POP JUMP JUMPDEST PUSH1 0x0 DUP2 CALLDATALOAD SWAP1 POP PUSH2 0x3BFF DUP2 PUSH2 0x3BD9 JUMP JUMPDEST SWAP3 SWAP2 POP POP JUMP JUMPDEST PUSH1 0x0 DUP1 PUSH1 0x0 DUP1 PUSH1 0x0 PUSH1 0x60 DUP7 DUP9 SUB SLT ISZERO PUSH2 0x3C21 JUMPI PUSH2 0x3C20 PUSH2 0x3A63 JUMP JUMPDEST JUMPDEST PUSH1 0x0 DUP7 ADD CALLDATALOAD PUSH8 0xFFFFFFFFFFFFFFFF DUP2 GT ISZERO PUSH2 0x3C3F JUMPI PUSH2 0x3C3E PUSH2 0x3A68 JUMP JUMPDEST JUMPDEST PUSH2 0x3C4B DUP9 DUP3 DUP10 ADD PUSH2 0x3B51 JUMP JUMPDEST SWAP6 POP SWAP6 POP POP PUSH1 0x20 DUP7 ADD CALLDATALOAD PUSH8 0xFFFFFFFFFFFFFFFF DUP2 GT ISZERO PUSH2 0x3C6E JUMPI PUSH2 0x3C6D PUSH2 0x3A68 JUMP JUMPDEST JUMPDEST PUSH2 0x3C7A DUP9 DUP3 DUP10 ADD PUSH2 0x3B51 JUMP JUMPDEST SWAP4 POP SWAP4 POP POP PUSH1 0x40 PUSH2 0x3C8D DUP9 DUP3 DUP10 ADD PUSH2 0x3BF0 JUMP JUMPDEST SWAP2 POP POP SWAP3 SWAP6 POP SWAP3 SWAP6 SWAP1 SWAP4 POP JUMP JUMPDEST PUSH1 0x0 PUSH1 0x20 DUP3 DUP5 SUB SLT ISZERO PUSH2 0x3CB0 JUMPI PUSH2 0x3CAF PUSH2 0x3A63 JUMP JUMPDEST JUMPDEST PUSH1 0x0 PUSH2 0x3CBE DUP5 DUP3 DUP6 ADD PUSH2 0x3A8E JUMP JUMPDEST SWAP2 POP POP SWAP3 SWAP2 POP POP JUMP JUMPDEST PUSH2 0x3CD0 DUP2 PUSH2 0x3A6D JUMP JUMPDEST DUP3 MSTORE POP POP JUMP JUMPDEST PUSH1 0x0 PUSH1 0x20 DUP3 ADD SWAP1 POP PUSH2 0x3CEB PUSH1 0x0 DUP4 ADD DUP5 PUSH2 0x3CC7 JUMP JUMPDEST SWAP3 SWAP2 POP POP JUMP JUMPDEST PUSH2 0x3CFA DUP2 PUSH2 0x3AA3 JUMP JUMPDEST DUP3 MSTORE POP POP JUMP JUMPDEST PUSH1 0x0 PUSH1 0x20 DUP3 ADD SWAP1 POP PUSH2 0x3D15 PUSH1 0x0 DUP4 ADD DUP5 PUSH2 0x3CF1 JUMP JUMPDEST SWAP3 SWAP2 POP POP JUMP JUMPDEST PUSH2 0x3D24 DUP2 PUSH2 0x3BC7 JUMP JUMPDEST DUP3 MSTORE POP POP JUMP JUMPDEST PUSH1 0x0 PUSH1 0x20 DUP3 ADD SWAP1 POP PUSH2 0x3D3F PUSH1 0x0 DUP4 ADD DUP5 PUSH2 0x3D1B JUMP JUMPDEST SWAP3 SWAP2 POP POP JUMP JUMPDEST PUSH1 0x0 PUSH1 0x60 DUP3 ADD SWAP1 POP PUSH2 0x3D5A PUSH1 0x0 DUP4 ADD DUP7 PUSH2 0x3D1B JUMP JUMPDEST PUSH2 0x3D67 PUSH1 0x20 DUP4 ADD DUP6 PUSH2 0x3D1B JUMP JUMPDEST PUSH2 0x3D74 PUSH1 0x40 DUP4 ADD DUP5 PUSH2 0x3CF1 JUMP JUMPDEST SWAP5 SWAP4 POP POP POP POP JUMP JUMPDEST PUSH2 0x3D85 DUP2 PUSH2 0x3BC7 JUMP JUMPDEST DUP3 MSTORE POP POP JUMP JUMPDEST PUSH1 0x0 DUP2 MLOAD SWAP1 POP SWAP2 SWAP1 POP JUMP JUMPDEST PUSH1 0x0 DUP3 DUP3 MSTORE PUSH1 0x20 DUP3 ADD SWAP1 POP SWAP3 SWAP2 POP POP JUMP JUMPDEST PUSH1 0x0 DUP2 SWAP1 POP PUSH1 0x20 DUP3 ADD SWAP1 POP SWAP2 SWAP1 POP JUMP JUMPDEST PUSH2 0x3DC0 DUP2 PUSH2 0x3A6D JUMP JUMPDEST DUP3 MSTORE POP POP JUMP JUMPDEST PUSH1 0x0 PUSH2 0x3DD2 DUP4 DUP4 PUSH2 0x3DB7 JUMP JUMPDEST PUSH1 0x20 DUP4 ADD SWAP1 POP SWAP3 SWAP2 POP POP JUMP JUMPDEST PUSH1 0x0 PUSH1 0x20 DUP3 ADD SWAP1 POP SWAP2 SWAP1 POP JUMP JUMPDEST PUSH1 0x0 PUSH2 0x3DF6 DUP3 PUSH2 0x3D8B JUMP JUMPDEST PUSH2 0x3E00 DUP2 DUP6 PUSH2 0x3D96 JUMP JUMPDEST SWAP4 POP PUSH2 0x3E0B DUP4 PUSH2 0x3DA7 JUMP JUMPDEST DUP1 PUSH1 0x0 JUMPDEST DUP4 DUP2 LT ISZERO PUSH2 0x3E3C JUMPI DUP2 MLOAD PUSH2 0x3E23 DUP9 DUP3 PUSH2 0x3DC6 JUMP JUMPDEST SWAP8 POP PUSH2 0x3E2E DUP4 PUSH2 0x3DDE JUMP JUMPDEST SWAP3 POP POP PUSH1 0x1 DUP2 ADD SWAP1 POP PUSH2 0x3E0F JUMP JUMPDEST POP DUP6 SWAP4 POP POP POP POP SWAP3 SWAP2 POP POP JUMP JUMPDEST PUSH2 0x3E52 DUP2 PUSH2 0x3AA3 JUMP JUMPDEST DUP3 MSTORE POP POP JUMP JUMPDEST PUSH1 0x0 PUSH1 0xA0 DUP4 ADD PUSH1 0x0 DUP4 ADD MLOAD PUSH2 0x3E70 PUSH1 0x0 DUP7 ADD DUP3 PUSH2 0x3D7C JUMP JUMPDEST POP PUSH1 0x20 DUP4 ADD MLOAD PUSH2 0x3E83 PUSH1 0x20 DUP7 ADD DUP3 PUSH2 0x3D7C JUMP JUMPDEST POP PUSH1 0x40 DUP4 ADD MLOAD DUP5 DUP3 SUB PUSH1 0x40 DUP7 ADD MSTORE PUSH2 0x3E9B DUP3 DUP3 PUSH2 0x3DEB JUMP JUMPDEST SWAP2 POP POP PUSH1 0x60 DUP4 ADD MLOAD DUP5 DUP3 SUB PUSH1 0x60 DUP7 ADD MSTORE PUSH2 0x3EB5 DUP3 DUP3 PUSH2 0x3DEB JUMP JUMPDEST SWAP2 POP POP PUSH1 0x80 DUP4 ADD MLOAD PUSH2 0x3ECA PUSH1 0x80 DUP7 ADD DUP3 PUSH2 0x3E49 JUMP JUMPDEST POP DUP1 SWAP2 POP POP SWAP3 SWAP2 POP POP JUMP JUMPDEST PUSH1 0x0 PUSH1 0x20 DUP3 ADD SWAP1 POP DUP2 DUP2 SUB PUSH1 0x0 DUP4 ADD MSTORE PUSH2 0x3EEF DUP2 DUP5 PUSH2 0x3E58 JUMP JUMPDEST SWAP1 POP SWAP3 SWAP2 POP POP JUMP JUMPDEST PUSH1 0x0 DUP2 SWAP1 POP SWAP2 SWAP1 POP JUMP JUMPDEST PUSH1 0x0 PUSH2 0x3F1C PUSH2 0x3F17 PUSH2 0x3F12 DUP5 PUSH2 0x3BA7 JUMP JUMPDEST PUSH2 0x3EF7 JUMP JUMPDEST PUSH2 0x3BA7 JUMP JUMPDEST SWAP1 POP SWAP2 SWAP1 POP JUMP JUMPDEST PUSH1 0x0 PUSH2 0x3F2E DUP3 PUSH2 0x3F01 JUMP JUMPDEST SWAP1 POP SWAP2 SWAP1 POP JUMP JUMPDEST PUSH1 0x0 PUSH2 0x3F40 DUP3 PUSH2 0x3F23 JUMP JUMPDEST SWAP1 POP SWAP2 SWAP1 POP JUMP JUMPDEST PUSH2 0x3F50 DUP2 PUSH2 0x3F35 JUMP JUMPDEST DUP3 MSTORE POP POP JUMP JUMPDEST PUSH1 0x0 PUSH1 0x20 DUP3 ADD SWAP1 POP PUSH2 0x3F6B PUSH1 0x0 DUP4 ADD DUP5 PUSH2 0x3F47 JUMP JUMPDEST SWAP3 SWAP2 POP POP JUMP JUMPDEST PUSH1 0x0 PUSH1 0xE0 DUP3 ADD SWAP1 POP PUSH2 0x3F86 PUSH1 0x0 DUP4 ADD DUP11 PUSH2 0x3D1B JUMP JUMPDEST PUSH2 0x3F93 PUSH1 0x20 DUP4 ADD DUP10 PUSH2 0x3CC7 JUMP JUMPDEST PUSH2 0x3FA0 PUSH1 0x40 DUP4 ADD DUP9 PUSH2 0x3CF1 JUMP JUMPDEST PUSH2 0x3FAD PUSH1 0x60 DUP4 ADD DUP8 PUSH2 0x3CC7 JUMP JUMPDEST PUSH2 0x3FBA PUSH1 0x80 DUP4 ADD DUP7 PUSH2 0x3D1B JUMP JUMPDEST PUSH2 0x3FC7 PUSH1 0xA0 DUP4 ADD DUP6 PUSH2 0x3CC7 JUMP JUMPDEST PUSH2 0x3FD4 PUSH1 0xC0 DUP4 ADD DUP5 PUSH2 0x3CF1 JUMP JUMPDEST SWAP9 SWAP8 POP POP POP POP POP POP POP POP JUMP JUMPDEST PUSH1 0x0 PUSH1 0x20 DUP3 DUP5 SUB SLT ISZERO PUSH2 0x3FF6 JUMPI PUSH2 0x3FF5 PUSH2 0x3A63 JUMP JUMPDEST JUMPDEST PUSH1 0x0 PUSH2 0x4004 DUP5 DUP3 DUP6 ADD PUSH2 0x3BF0 JUMP JUMPDEST SWAP2 POP POP SWAP3 SWAP2 POP POP JUMP JUMPDEST PUSH1 0x0 DUP3 DUP3 MSTORE PUSH1 0x20 DUP3 ADD SWAP1 POP SWAP3 SWAP2 POP POP JUMP JUMPDEST PUSH32 0x5072696365206D757374206265203E2030000000000000000000000000000000 PUSH1 0x0 DUP3 ADD MSTORE POP JUMP JUMPDEST PUSH1 0x0 PUSH2 0x4054 PUSH1 0x11 DUP4 PUSH2 0x400D JUMP JUMPDEST SWAP2 POP PUSH2 0x405F DUP3 PUSH2 0x401E JUMP JUMPDEST PUSH1 0x20 DUP3 ADD SWAP1 POP SWAP2 SWAP1 POP JUMP JUMPDEST PUSH1 0x0 PUSH1 0x20 DUP3 ADD SWAP1 POP DUP2 DUP2 SUB PUSH1 0x0 DUP4 ADD MSTORE PUSH2 0x4083 DUP2 PUSH2 0x4047 JUMP JUMPDEST SWAP1 POP SWAP2 SWAP1 POP JUMP JUMPDEST PUSH1 0x0 PUSH1 0x60 DUP3 ADD SWAP1 POP PUSH2 0x409F PUSH1 0x0 DUP4 ADD DUP7 PUSH2 0x3D1B JUMP JUMPDEST PUSH2 0x40AC PUSH1 0x20 DUP4 ADD DUP6 PUSH2 0x3D1B JUMP JUMPDEST PUSH2 0x40B9 PUSH1 0x40 DUP4 ADD DUP5 PUSH2 0x3CC7 JUMP JUMPDEST SWAP5 SWAP4 POP POP POP POP JUMP JUMPDEST PUSH32 0x4E487B7100000000000000000000000000000000000000000000000000000000 PUSH1 0x0 MSTORE PUSH1 0x11 PUSH1 0x4 MSTORE PUSH1 0x24 PUSH1 0x0 REVERT JUMPDEST PUSH1 0x0 PUSH2 0x40FB DUP3 PUSH2 0x3A6D JUMP JUMPDEST SWAP2 POP PUSH2 0x4106 DUP4 PUSH2 0x3A6D JUMP JUMPDEST SWAP3 POP DUP3 DUP3 ADD SWAP1 POP DUP1 DUP3 GT ISZERO PUSH2 0x411E JUMPI PUSH2 0x411D PUSH2 0x40C1 JUMP JUMPDEST JUMPDEST SWAP3 SWAP2 POP POP JUMP JUMPDEST PUSH1 0x0 PUSH1 0x40 DUP3 ADD SWAP1 POP PUSH2 0x4139 PUSH1 0x0 DUP4 ADD DUP6 PUSH2 0x3CC7 JUMP JUMPDEST PUSH2 0x4146 PUSH1 0x20 DUP4 ADD DUP5 PUSH2 0x3CF1 JUMP JUMPDEST SWAP4 SWAP3 POP POP POP JUMP JUMPDEST PUSH32 0x43616E6E6F742073776170206E6F7468696E6720666F72206E6F7468696E6700 PUSH1 0x0 DUP3 ADD MSTORE POP JUMP JUMPDEST PUSH1 0x0 PUSH2 0x4183 PUSH1 0x1F DUP4 PUSH2 0x400D JUMP JUMPDEST SWAP2 POP PUSH2 0x418E DUP3 PUSH2 0x414D JUMP JUMPDEST PUSH1 0x20 DUP3 ADD SWAP1 POP SWAP2 SWAP1 POP JUMP JUMPDEST PUSH1 0x0 PUSH1 0x20 DUP3 ADD SWAP1 POP DUP2 DUP2 SUB PUSH1 0x0 DUP4 ADD MSTORE PUSH2 0x41B2 DUP2 PUSH2 0x4176 JUMP JUMPDEST SWAP1 POP SWAP2 SWAP1 POP JUMP JUMPDEST PUSH32 0x4E487B7100000000000000000000000000000000000000000000000000000000 PUSH1 0x0 MSTORE PUSH1 0x32 PUSH1 0x4 MSTORE PUSH1 0x24 PUSH1 0x0 REVERT JUMPDEST PUSH1 0x0 DUP3 DUP3 MSTORE PUSH1 0x20 DUP3 ADD SWAP1 POP SWAP3 SWAP2 POP POP JUMP JUMPDEST PUSH1 0x0 DUP1 REVERT JUMPDEST DUP3 DUP2 DUP4 CALLDATACOPY POP POP POP JUMP JUMPDEST PUSH1 0x0 PUSH2 0x4213 DUP4 DUP6 PUSH2 0x41E8 JUMP JUMPDEST SWAP4 POP PUSH32 0x7FFFFFFFFFFFFFFFFFFFFFFFFFFFFFFFFFFFFFFFFFFFFFFFFFFFFFFFFFFFFFF DUP4 GT ISZERO PUSH2 0x4246 JUMPI PUSH2 0x4245 PUSH2 0x41F9 JUMP JUMPDEST JUMPDEST PUSH1 0x20 DUP4 MUL SWAP3 POP PUSH2 0x4257 DUP4 DUP6 DUP5 PUSH2 0x41FE JUMP JUMPDEST DUP3 DUP5 ADD SWAP1 POP SWAP4 SWAP3 POP POP POP JUMP JUMPDEST PUSH1 0x0 PUSH1 0x40 DUP3 ADD SWAP1 POP DUP2 DUP2 SUB PUSH1 0x0 DUP4 ADD MSTORE PUSH2 0x427E DUP2 DUP7 DUP9 PUSH2 0x4207 JUMP JUMPDEST SWAP1 POP DUP2 DUP2 SUB PUSH1 0x20 DUP4 ADD MSTORE PUSH2 0x4293 DUP2 DUP5 DUP7 PUSH2 0x4207 JUMP JUMPDEST SWAP1 POP SWAP6 SWAP5 POP POP POP POP POP JUMP JUMPDEST PUSH1 0x0 PUSH2 0x42A9 DUP3 PUSH2 0x3A6D JUMP JUMPDEST SWAP2 POP PUSH32 0xFFFFFFFFFFFFFFFFFFFFFFFFFFFFFFFFFFFFFFFFFFFFFFFFFFFFFFFFFFFFFFFF DUP3 SUB PUSH2 0x42DB JUMPI PUSH2 0x42DA PUSH2 0x40C1 JUMP JUMPDEST JUMPDEST PUSH1 0x1 DUP3 ADD SWAP1 POP SWAP2 SWAP1 POP JUMP JUMPDEST PUSH32 0x4E6F742061637469766500000000000000000000000000000000000000000000 PUSH1 0x0 DUP3 ADD MSTORE POP JUMP JUMPDEST PUSH1 0x0 PUSH2 0x431C PUSH1 0xA DUP4 PUSH2 0x400D JUMP JUMPDEST SWAP2 POP PUSH2 0x4327 DUP3 PUSH2 0x42E6 JUMP JUMPDEST PUSH1 0x20 DUP3 ADD SWAP1 POP SWAP2 SWAP1 POP JUMP JUMPDEST PUSH1 0x0 PUSH1 0x20 DUP3 ADD SWAP1 POP DUP2 DUP2 SUB PUSH1 0x0 DUP4 ADD MSTORE PUSH2 0x434B DUP2 PUSH2 0x430F JUMP JUMPDEST SWAP1 POP SWAP2 SWAP1 POP JUMP JUMPDEST PUSH32 0x4E6F742073656C6C657200000000000000000000000000000000000000000000 PUSH1 0x0 DUP3 ADD MSTORE POP JUMP JUMPDEST PUSH1 0x0 PUSH2 0x4388 PUSH1 0xA DUP4 PUSH2 0x400D JUMP JUMPDEST SWAP2 POP PUSH2 0x4393 DUP3 PUSH2 0x4352 JUMP JUMPDEST PUSH1 0x20 DUP3 ADD SWAP1 POP SWAP2 SWAP1 POP JUMP JUMPDEST PUSH1 0x0 PUSH1 0x20 DUP3 ADD SWAP1 POP DUP2 DUP2 SUB PUSH1 0x0 DUP4 ADD MSTORE PUSH2 0x43B7 DUP2 PUSH2 0x437B JUMP JUMPDEST SWAP1 POP SWAP2 SWAP1 POP JUMP JUMPDEST PUSH32 0x43616E6E6F742063616E63656C2061756374696F6E2077697468206269647300 PUSH1 0x0 DUP3 ADD MSTORE POP JUMP JUMPDEST PUSH1 0x0 PUSH2 0x43F4 PUSH1 0x1F DUP4 PUSH2 0x400D JUMP JUMPDEST SWAP2 POP PUSH2 0x43FF DUP3 PUSH2 0x43BE JUMP JUMPDEST PUSH1 0x20 DUP3 ADD SWAP1 POP SWAP2 SWAP1 POP JUMP JUMPDEST PUSH1 0x0 PUSH1 0x20 DUP3 ADD SWAP1 POP DUP2 DUP2 SUB PUSH1 0x0 DUP4 ADD MSTORE PUSH2 0x4423 DUP2 PUSH2 0x43E7 JUMP JUMPDEST SWAP1 POP SWAP2 SWAP1 POP JUMP JUMPDEST PUSH32 0x4E6F2066756E647320746F207769746864726177000000000000000000000000 PUSH1 0x0 DUP3 ADD MSTORE POP JUMP JUMPDEST PUSH1 0x0 PUSH2 0x4460 PUSH1 0x14 DUP4 PUSH2 0x400D JUMP JUMPDEST SWAP2 POP PUSH2 0x446B DUP3 PUSH2 0x442A JUMP JUMPDEST PUSH1 0x20 DUP3 ADD SWAP1 POP SWAP2 SWAP1 POP JUMP JUMPDEST PUSH1 0x0 PUSH1 0x20 DUP3 ADD SWAP1 POP DUP2 DUP2 SUB PUSH1 0x0 DUP4 ADD MSTORE PUSH2 0x448F DUP2 PUSH2 0x4453 JUMP JUMPDEST SWAP1 POP SWAP2 SWAP1 POP JUMP JUMPDEST PUSH1 0x0 DUP2 SWAP1 POP SWAP3 SWAP2 POP POP JUMP JUMPDEST POP JUMP JUMPDEST PUSH1 0x0 PUSH2 0x44B1 PUSH1 0x0 DUP4 PUSH2 0x4496 JUMP JUMPDEST SWAP2 POP PUSH2 0x44BC DUP3 PUSH2 0x44A1 JUMP JUMPDEST PUSH1 0x0 DUP3 ADD SWAP1 POP SWAP2 SWAP1 POP JUMP JUMPDEST PUSH1 0x0 PUSH2 0x44D2 DUP3 PUSH2 0x44A4 JUMP JUMPDEST SWAP2 POP DUP2 SWAP1 POP SWAP2 SWAP1 POP JUMP JUMPDEST PUSH32 0x5472616E73666572206661696C65640000000000000000000000000000000000 PUSH1 0x0 DUP3 ADD MSTORE POP JUMP JUMPDEST PUSH1 0x0 PUSH2 0x4512 PUSH1 0xF DUP4 PUSH2 0x400D JUMP JUMPDEST SWAP2 POP PUSH2 0x451D DUP3 PUSH2 0x44DC JUMP JUMPDEST PUSH1 0x20 DUP3 ADD SWAP1 POP SWAP2 SWAP1 POP JUMP JUMPDEST PUSH1 0x0 PUSH1 0x20 DUP3 ADD SWAP1 POP DUP2 DUP2 SUB PUSH1 0x0 DUP4 ADD MSTORE PUSH2 0x4541 DUP2 PUSH2 0x4505 JUMP JUMPDEST SWAP1 POP SWAP2 SWAP1 POP JUMP JUMPDEST PUSH32 0x4E6F7420616E206163746976652061756374696F6E0000000000000000000000 PUSH1 0x0 DUP3 ADD MSTORE POP JUMP JUMPDEST PUSH1 0x0 PUSH2 0x457E PUSH1 0x15 DUP4 PUSH2 0x400D JUMP JUMPDEST SWAP2 POP PUSH2 0x4589 DUP3 PUSH2 0x4548 JUMP JUMPDEST PUSH1 0x20 DUP3 ADD SWAP1 POP SWAP2 SWAP1 POP JUMP JUMPDEST PUSH1 0x0 PUSH1 0x20 DUP3 ADD SWAP1 POP DUP2 DUP2 SUB PUSH1 0x0 DUP4 ADD MSTORE PUSH2 0x45AD DUP2 PUSH2 0x4571 JUMP JUMPDEST SWAP1 POP SWAP2 SWAP1 POP JUMP JUMPDEST PUSH32 0x41756374696F6E20656E64656400000000000000000000000000000000000000 PUSH1 0x0 DUP3 ADD MSTORE POP JUMP JUMPDEST PUSH1 0x0 PUSH2 0x45EA PUSH1 0xD DUP4 PUSH2 0x400D JUMP JUMPDEST SWAP2 POP PUSH2 0x45F5 DUP3 PUSH2 0x45B4 JUMP JUMPDEST PUSH1 0x20 DUP3 ADD SWAP1 POP SWAP2 SWAP1 POP JUMP JUMPDEST PUSH1 0x0 PUSH1 0x20 DUP3 ADD SWAP1 POP DUP2 DUP2 SUB PUSH1 0x0 DUP4 ADD MSTORE PUSH2 0x4619 DUP2 PUSH2 0x45DD JUMP JUMPDEST SWAP1 POP SWAP2 SWAP1 POP JUMP JUMPDEST PUSH32 0x42696420746F6F206C6F77000000000000000000000000000000000000000000 PUSH1 0x0 DUP3 ADD MSTORE POP JUMP JUMPDEST PUSH1 0x0 PUSH2 0x4656 PUSH1 0xB DUP4 PUSH2 0x400D JUMP JUMPDEST SWAP2 POP PUSH2 0x4661 DUP3 PUSH2 0x4620 JUMP JUMPDEST PUSH1 0x20 DUP3 ADD SWAP1 POP SWAP2 SWAP1 POP JUMP JUMPDEST PUSH1 0x0 PUSH1 0x20 DUP3 ADD SWAP1 POP DUP2 DUP2 SUB PUSH1 0x0 DUP4 ADD MSTORE PUSH2 0x4685 DUP2 PUSH2 0x4649 JUMP JUMPDEST SWAP1 POP SWAP2 SWAP1 POP JUMP JUMPDEST PUSH32 0x53776170206E6F74206163746976650000000000000000000000000000000000 PUSH1 0x0 DUP3 ADD MSTORE POP JUMP JUMPDEST PUSH1 0x0 PUSH2 0x46C2 PUSH1 0xF DUP4 PUSH2 0x400D JUMP JUMPDEST SWAP2 POP PUSH2 0x46CD DUP3 PUSH2 0x468C JUMP JUMPDEST PUSH1 0x20 DUP3 ADD SWAP1 POP SWAP2 SWAP1 POP JUMP JUMPDEST PUSH1 0x0 PUSH1 0x20 DUP3 ADD SWAP1 POP DUP2 DUP2 SUB PUSH1 0x0 DUP4 ADD MSTORE PUSH2 0x46F1 DUP2 PUSH2 0x46B5 JUMP JUMPDEST SWAP1 POP SWAP2 SWAP1 POP JUMP JUMPDEST PUSH32 0x4E6F7420746865206F66666572206F776E657200000000000000000000000000 PUSH1 0x0 DUP3 ADD MSTORE POP JUMP JUMPDEST PUSH1 0x0 PUSH2 0x472E PUSH1 0x13 DUP4 PUSH2 0x400D JUMP JUMPDEST SWAP2 POP PUSH2 0x4739 DUP3 PUSH2 0x46F8 JUMP JUMPDEST PUSH1 0x20 DUP3 ADD SWAP1 POP SWAP2 SWAP1 POP JUMP JUMPDEST PUSH1 0x0 PUSH1 0x20 DUP3 ADD SWAP1 POP DUP2 DUP2 SUB PUSH1 0x0 DUP4 ADD MSTORE PUSH2 0x475D DUP2 PUSH2 0x4721 JUMP JUMPDEST SWAP1 POP SWAP2 SWAP1 POP JUMP JUMPDEST PUSH32 0x54686973207472616465206973206E6F7420666F7220796F7500000000000000 PUSH1 0x0 DUP3 ADD MSTORE POP JUMP JUMPDEST PUSH1 0x0 PUSH2 0x479A PUSH1 0x19 DUP4 PUSH2 0x400D JUMP JUMPDEST SWAP2 POP PUSH2 0x47A5 DUP3 PUSH2 0x4764 JUMP JUMPDEST PUSH1 0x20 DUP3 ADD SWAP1 POP SWAP2 SWAP1 POP JUMP JUMPDEST PUSH1 0x0 PUSH1 0x20 DUP3 ADD SWAP1 POP DUP2 DUP2 SUB PUSH1 0x0 DUP4 ADD MSTORE PUSH2 0x47C9 DUP2 PUSH2 0x478D JUMP JUMPDEST SWAP1 POP SWAP2 SWAP1 POP JUMP JUMPDEST PUSH32 0x4E6F74206163746976652061756374696F6E0000000000000000000000000000 PUSH1 0x0 DUP3 ADD MSTORE POP JUMP JUMPDEST PUSH1 0x0 PUSH2 0x4806 PUSH1 0x12 DUP4 PUSH2 0x400D JUMP JUMPDEST SWAP2 POP PUSH2 0x4811 DUP3 PUSH2 0x47D0 JUMP JUMPDEST PUSH1 0x20 DUP3 ADD SWAP1 POP SWAP2 SWAP1 POP JUMP JUMPDEST PUSH1 0x0 PUSH1 0x20 DUP3 ADD SWAP1 POP DUP2 DUP2 SUB PUSH1 0x0 DUP4 ADD MSTORE PUSH2 0x4835 DUP2 PUSH2 0x47F9 JUMP JUMPDEST SWAP1 POP SWAP2 SWAP1 POP JUMP JUMPDEST PUSH32 0x41756374696F6E206F6E676F696E670000000000000000000000000000000000 PUSH1 0x0 DUP3 ADD MSTORE POP JUMP JUMPDEST PUSH1 0x0 PUSH2 0x4872 PUSH1 0xF DUP4 PUSH2 0x400D JUMP JUMPDEST SWAP2 POP PUSH2 0x487D DUP3 PUSH2 0x483C JUMP JUMPDEST PUSH1 0x20 DUP3 ADD SWAP1 POP SWAP2 SWAP1 POP JUMP JUMPDEST PUSH1 0x0 PUSH1 0x20 DUP3 ADD SWAP1 POP DUP2 DUP2 SUB PUSH1 0x0 DUP4 ADD MSTORE PUSH2 0x48A1 DUP2 PUSH2 0x4865 JUMP JUMPDEST SWAP1 POP SWAP2 SWAP1 POP JUMP JUMPDEST PUSH32 0x497320616E2061756374696F6E00000000000000000000000000000000000000 PUSH1 0x0 DUP3 ADD MSTORE POP JUMP JUMPDEST PUSH1 0x0 PUSH2 0x48DE PUSH1 0xD DUP4 PUSH2 0x400D JUMP JUMPDEST SWAP2 POP PUSH2 0x48E9 DUP3 PUSH2 0x48A8 JUMP JUMPDEST PUSH1 0x20 DUP3 ADD SWAP1 POP SWAP2 SWAP1 POP JUMP JUMPDEST PUSH1 0x0 PUSH1 0x20 DUP3 ADD SWAP1 POP DUP2 DUP2 SUB PUSH1 0x0 DUP4 ADD MSTORE PUSH2 0x490D DUP2 PUSH2 0x48D1 JUMP JUMPDEST SWAP1 POP SWAP2 SWAP1 POP JUMP JUMPDEST PUSH32 0x496E636F72726563742070726963650000000000000000000000000000000000 PUSH1 0x0 DUP3 ADD MSTORE POP JUMP JUMPDEST PUSH1 0x0 PUSH2 0x494A PUSH1 0xF DUP4 PUSH2 0x400D JUMP JUMPDEST SWAP2 POP PUSH2 0x4955 DUP3 PUSH2 0x4914 JUMP JUMPDEST PUSH1 0x20 DUP3 ADD SWAP1 POP SWAP2 SWAP1 POP JUMP JUMPDEST PUSH1 0x0 PUSH1 0x20 DUP3 ADD SWAP1 POP DUP2 DUP2 SUB PUSH1 0x0 DUP4 ADD MSTORE PUSH2 0x4979 DUP2 PUSH2 0x493D JUMP JUMPDEST SWAP1 POP SWAP2 SWAP1 POP JUMP INVALID LOG2 PUSH5 0x6970667358 0x22 SLT KECCAK256 RETURNDATASIZE 0xAF BASEFEE GASPRICE BASEFEE CALLDATASIZE 0xBB 0xB2 0xF SWAP12 0xB2 GASPRICE 0x1F 0xB5 INVALID PUSH5 0xC438A97C03 CREATE EXTCODECOPY BYTE 0xF7 PUSH29 0xCFB574C8A67464736F6C63430008180033000000000000000000000000 "},"methodIdentifiers":{"bid(uint256)":"454a2ab3","buyCard(uint256)":"c70f5eaa","cancelListing(uint256)":"305a67a8","cancelSwap(uint256)":"54d6a2b7","createSwapOffer(uint256[],uint256[],address)":"2b3c65c3","endAuction(uint256)":"b9a2de3a","executeSwap(uint256)":"a9ab232b","getSwapOffer(uint256)":"b9c52fcc","listCard(uint256,uint256,bool,uint256)":"1e268d88","listings(uint256)":"de74e57b","nftContract()":"d56d229d","owner()":"8da5cb5b","pause()":"8456cb59","paused()":"5c975abb","pendingWithdrawals(address)":"f3f43703","renounceOwnership()":"715018a6","swapCounter()":"33bce8c3","swapOffers(uint256)":"a13f1c62","transferOwnership(address)":"f2fde38b","unpause()":"3f4ba83a","withdraw()":"3ccfd60b"}}}}}