{"contracts/mock/RejectEther.sol":{"RejectEther":{"abi":[{"inputs":[{"internalType":"address","name":"market","type":"address"},{"internalType":"uint256","name":"tokenId","type":"uint256"}],"name":"bidOn","outputs":[],"stateMutability":"payable","type":"function"},{"stateMutability":"payable","type":"receive"}],"evm":{"bytecode":{"linkReferences":{},"object":"608060405234801561001057600080fd5b506102fc806100206000396000f3fe6080604052600436106100225760003560e01c8063c9f845861461007b57610076565b366100765761003b670a38c36241c761f660c01b610097565b6040517f08c379a000000000000000000000000000000000000000000000000000000000815260040161006d906101a3565b60405180910390fd5b600080fd5b6100956004803603810190610090919061025c565b61009a565b005b50565b6100ae676aefa6d5e966bc5a60c01b610097565b6100c2677745294759c1d83d60c01b610097565b6100d667d3ecd997c51d981460c01b610097565b8173ffffffffffffffffffffffffffffffffffffffff1663454a2ab334836040518363ffffffff1660e01b815260040161011091906102ab565b6000604051808303818588803b15801561012957600080fd5b505af115801561013d573d6000803e3d6000fd5b50505050505050565b600082825260208201905092915050565b7f52656a65637445746865723a206e6f2072656365697665000000000000000000600082015250565b600061018d601783610146565b915061019882610157565b602082019050919050565b600060208201905081810360008301526101bc81610180565b9050919050565b600080fd5b600073ffffffffffffffffffffffffffffffffffffffff82169050919050565b60006101f3826101c8565b9050919050565b610203816101e8565b811461020e57600080fd5b50565b600081359050610220816101fa565b92915050565b6000819050919050565b61023981610226565b811461024457600080fd5b50565b60008135905061025681610230565b92915050565b60008060408385031215610273576102726101c3565b5b600061028185828601610211565b925050602061029285828601610247565b9150509250929050565b6102a581610226565b82525050565b60006020820190506102c0600083018461029c565b9291505056fea26469706673582212209f8b124fbe2115a8550a882205b6ada2b3bad72ab1bf0455fc181b41384485d264736f6c63430008180033","opcodes":"PUSH1 0x80 PUSH1 0x40 MSTORE CALLVALUE DUP1 ISZERO PUSH2 0x10 JUMPI PUSH1 0x0 DUP1 REVERT JUMPDEST POP PUSH2 0x2FC DUP1 PUSH2 0x20 PUSH1 0x0 CODECOPY PUSH1 0x0 RETURN INVALID PUSH1 0x80 PUSH1 0x40 MSTORE PUSH1 0x4 CALLDATASIZE LT PUSH2 0x22 JUMPI PUSH1 0x0 CALLDATALOAD PUSH1 0xE0 SHR DUP1 PUSH4 0xC9F84586 EQ PUSH2 0x7B JUMPI PUSH2 0x76 JUMP JUMPDEST CALLDATASIZE PUSH2 0x76 JUMPI PUSH2 0x3B PUSH8 0xA38C36241C761F6 PUSH1 0xC0 SHL PUSH2 0x97 JUMP JUMPDEST PUSH1 0x40 MLOAD PUSH32 0x8C379A000000000000000000000000000000000000000000000000000000000 DUP2 MSTORE PUSH1 0x4 ADD PUSH2 0x6D SWAP1 PUSH2 0x1A3 JUMP JUMPDEST PUSH1 0x40 MLOAD DUP1 SWAP2 SUB SWAP1 REVERT JUMPDEST PUSH1 0x0 DUP1 REVERT JUMPDEST PUSH2 0x95 PUSH1 0x4 DUP1 CALLDATASIZE SUB DUP2 ADD SWAP1 PUSH2 0x90 SWAP2 SWAP1 PUSH2 0x25C JUMP JUMPDEST PUSH2 0x9A JUMP JUMPDEST STOP JUMPDEST POP JUMP JUMPDEST PUSH2 0xAE PUSH8 0x6AEFA6D5E966BC5A PUSH1 0xC0 SHL PUSH2 0x97 JUMP JUMPDEST PUSH2 0xC2 PUSH8 0x7745294759C1D83D PUSH1 0xC0 SHL PUSH2 0x97 JUMP JUMPDEST PUSH2 0xD6 PUSH8 0xD3ECD997C51D9814 PUSH1 0xC0 SHL PUSH2 0x97 JUMP JUMPDEST DUP2 PUSH20 0xFFFFFFFFFFFFFFFFFFFFFFFFFFFFFFFFFFFFFFFF AND PUSH4 0x454A2AB3 CALLVALUE DUP4 PUSH1 0x40 MLOAD DUP4 PUSH4 0xFFFFFFFF AND PUSH1 0xE0 SHL DUP2 MSTORE PUSH1 0x4 ADD PUSH2 0x110 SWAP2 SWAP1 PUSH2 0x2AB JUMP JUMPDEST PUSH1 0x0 PUSH1 0x40 MLOAD DUP1 DUP4 SUB DUP2 DUP6 DUP9 DUP1 EXTCODESIZE ISZERO DUP1 ISZERO PUSH2 0x129 JUMPI PUSH1 0x0 DUP1 REVERT JUMPDEST POP GAS CALL ISZERO DUP1 ISZERO PUSH2 0x13D JUMPI RETURNDATASIZE PUSH1 0x0 DUP1 RETURNDATACOPY RETURNDATASIZE PUSH1 0x0 REVERT JUMPDEST POP POP POP POP POP POP POP JUMP JUMPDEST PUSH1 0x0 DUP3 DUP3 MSTORE PUSH1 0x20 DUP3 ADD SWAP1 POP SWAP3 SWAP2 POP POP JUMP JUMPDEST PUSH32 0x52656A65637445746865723A206E6F2072656365697665000000000000000000 PUSH1 0x0 DUP3 ADD MSTORE POP JUMP JUMPDEST PUSH1 0x0 PUSH2 0x18D PUSH1 0x17 DUP4 PUSH2 0x146 JUMP JUMPDEST SWAP2 POP PUSH2 0x198 DUP3 PUSH2 0x157 JUMP JUMPDEST PUSH1 0x20 DUP3 ADD SWAP1 POP SWAP2 SWAP1 POP JUMP JUMPDEST PUSH1 0x0 PUSH1 0x20 DUP3 ADD SWAP1 POP DUP2 DUP2 SUB PUSH1 0x0 DUP4 ADD MSTORE PUSH2 0x1BC DUP2 PUSH2 0x180 JUMP JUMPDEST SWAP1 POP SWAP2 SWAP1 POP JUMP JUMPDEST PUSH1 0x0 DUP1 REVERT JUMPDEST PUSH1 0x0 PUSH20 0xFFFFFFFFFFFFFFFFFFFFFFFFFFFFFFFFFFFFFFFF DUP3 AND SWAP1 POP SWAP2 SWAP1 POP JUMP JUMPDEST PUSH1 0x0 PUSH2 0x1F3 DUP3 PUSH2 0x1C8 JUMP JUMPDEST SWAP1 POP SWAP2 SWAP1 POP JUMP JUMPDEST PUSH2 0x203 DUP2 PUSH2 0x1E8 JUMP JUMPDEST DUP2 EQ PUSH2 0x20E JUMPI PUSH1 0x0 DUP1 REVERT JUMPDEST POP JUMP JUMPDEST PUSH1 0x0 DUP2 CALLDATALOAD SWAP1 POP PUSH2 0x220 DUP2 PUSH2 0x1FA JUMP JUMPDEST SWAP3 SWAP2 POP POP JUMP JUMPDEST PUSH1 0x0 DUP2 SWAP1 POP SWAP2 SWAP1 POP JUMP JUMPDEST PUSH2 0x239 DUP2 PUSH2 0x226 JUMP JUMPDEST DUP2 EQ PUSH2 0x244 JUMPI PUSH1 0x0 DUP1 REVERT JUMPDEST POP JUMP JUMPDEST PUSH1 0x0 DUP2 CALLDATALOAD SWAP1 POP PUSH2 0x256 DUP2 PUSH2 0x230 JUMP JUMPDEST SWAP3 SWAP2 POP POP JUMP JUMPDEST PUSH1 0x0 DUP1 PUSH1 0x40 DUP4 DUP6 SUB SLT ISZERO PUSH2 0x273 JUMPI PUSH2 0x272 PUSH2 0x1C3 JUMP JUMPDEST JUMPDEST PUSH1 0x0 PUSH2 0x281 DUP6 DUP3 DUP7 ADD PUSH2 0x211 JUMP JUMPDEST SWAP3 POP POP PUSH1 0x20 PUSH2 0x292 DUP6 DUP3 DUP7 ADD PUSH2 0x247 JUMP JUMPDEST SWAP2 POP POP SWAP3 POP SWAP3 SWAP1 POP JUMP JUMPDEST PUSH2 0x2A5 DUP2 PUSH2 0x226 JUMP JUMPDEST DUP3 MSTORE POP POP JUMP JUMPDEST PUSH1 0x0 PUSH1 0x20 DUP3 ADD SWAP1 POP PUSH2 0x2C0 PUSH1 0x0 DUP4 ADD DUP5 PUSH2 0x29C JUMP JUMPDEST SWAP3 SWAP2 POP POP JUMP INVALID LOG2 PUSH5 0x6970667358 0x22 SLT KECCAK256 SWAP16 DUP12 SLT 0x4F 0xBE 0x21 ISZERO 0xA8 SSTORE EXP DUP9 0x22 SDIV 0xB6 0xAD LOG2 0xB3 0xBA 0xD7 0x2A 0xB1 0xBF DIV SSTORE 0xFC XOR SHL COINBASE CODESIZE PREVRANDAO DUP6 0xD2 PUSH5 0x736F6C6343 STOP ADDMOD XOR STOP CALLER "},"methodIdentifiers":{"bidOn(address,uint256)":"c9f84586"}}}}}