{
  "_format": "hh-sol-artifact-1",
  "contractName": "PokemonCard",
  "sourceName": "contracts/PokemonCard.sol",
  "abi": [
    {
      "inputs": [],
      "stateMutability": "nonpayable",
      "type": "constructor"
    },
    {
      "inputs": [
        {
          "internalType": "address",
          "name": "sender",
          "type": "address"
        },
        {
          "internalType": "uint256",
          "name": "tokenId",
          "type": "uint256"
        },
        {
          "internalType": "address",
          "name": "owner",
          "type": "address"
        }
      ],
      "name": "ERC721IncorrectOwner",
      "type": "error"
    },
    {
      "inputs": [
        {
          "internalType": "address",
          "name": "operator",
          "type": "address"
        },
        {
          "internalType": "uint256",
          "name": "tokenId",
          "type": "uint256"
        }
      ],
      "name": "ERC721InsufficientApproval",
      "type": "error"
    },
    {
      "inputs": [
        {
          "internalType": "address",
          "name": "approver",
          "type": "address"
        }
      ],
      "name": "ERC721InvalidApprover",
      "type": "error"
    },
    {
      "inputs": [
        {
          "internalType": "address",
          "name": "operator",
          "type": "address"
        }
      ],
      "name": "ERC721InvalidOperator",
      "type": "error"
    },
    {
      "inputs": [
        {
          "internalType": "address",
          "name": "owner",
          "type": "address"
        }
      ],
      "name": "ERC721InvalidOwner",
      "type": "error"
    },
    {
      "inputs": [
        {
          "internalType": "address",
          "name": "receiver",
          "type": "address"
        }
      ],
      "name": "ERC721InvalidReceiver",
      "type": "error"
    },
    {
      "inputs": [
        {
          "internalType": "address",
          "name": "sender",
          "type": "address"
        }
      ],
      "name": "ERC721InvalidSender",
      "type": "error"
    },
    {
      "inputs": [
        {
          "internalType": "uint256",
          "name": "tokenId",
          "type": "uint256"
        }
      ],
      "name": "ERC721NonexistentToken",
      "type": "error"
    },
    {
      "inputs": [
        {
          "internalType": "address",
          "name": "owner",
          "type": "address"
        }
      ],
      "name": "OwnableInvalidOwner",
      "type": "error"
    },
    {
      "inputs": [
        {
          "internalType": "address",
          "name": "account",
          "type": "address"
        }
      ],
      "name": "OwnableUnauthorizedAccount",
      "type": "error"
    },
    {
      "anonymous": false,
      "inputs": [
        {
          "indexed": true,
          "internalType": "address",
          "name": "owner",
          "type": "address"
        },
        {
          "indexed": true,
          "internalType": "address",
          "name": "approved",
          "type": "address"
        },
        {
          "indexed": true,
          "internalType": "uint256",
          "name": "tokenId",
          "type": "uint256"
        }
      ],
      "name": "Approval",
      "type": "event"
    },
    {
      "anonymous": false,
      "inputs": [
        {
          "indexed": true,
          "internalType": "address",
          "name": "owner",
          "type": "address"
        },
        {
          "indexed": true,
          "internalType": "address",
          "name": "operator",
          "type": "address"
        },
        {
          "indexed": false,
          "internalType": "bool",
          "name": "approved",
          "type": "bool"
        }
      ],
      "name": "ApprovalForAll",
      "type": "event"
    },
    {
      "anonymous": false,
      "inputs": [
        {
          "indexed": false,
          "internalType": "uint256",
          "name": "_fromTokenId",
          "type": "uint256"
        },
        {
          "indexed": false,
          "internalType": "uint256",
          "name": "_toTokenId",
          "type": "uint256"
        }
      ],
      "name": "BatchMetadataUpdate",
      "type": "event"
    },
    {
      "anonymous": false,
      "inputs": [
        {
          "indexed": true,
          "internalType": "uint256",
          "name": "tokenId",
          "type": "uint256"
        },
        {
          "indexed": false,
          "internalType": "string",
          "name": "name",
          "type": "string"
        },
        {
          "indexed": false,
          "internalType": "uint256",
          "name": "powerLevel",
          "type": "uint256"
        }
      ],
      "name": "CardCreated",
      "type": "event"
    },
    {
      "anonymous": false,
      "inputs": [
        {
          "indexed": false,
          "internalType": "uint256",
          "name": "_tokenId",
          "type": "uint256"
        }
      ],
      "name": "MetadataUpdate",
      "type": "event"
    },
    {
      "anonymous": false,
      "inputs": [
        {
          "indexed": true,
          "internalType": "address",
          "name": "previousOwner",
          "type": "address"
        },
        {
          "indexed": true,
          "internalType": "address",
          "name": "newOwner",
          "type": "address"
        }
      ],
      "name": "OwnershipTransferred",
      "type": "event"
    },
    {
      "anonymous": false,
      "inputs": [
        {
          "indexed": true,
          "internalType": "address",
          "name": "from",
          "type": "address"
        },
        {
          "indexed": true,
          "internalType": "address",
          "name": "to",
          "type": "address"
        },
        {
          "indexed": true,
          "internalType": "uint256",
          "name": "tokenId",
          "type": "uint256"
        }
      ],
      "name": "Transfer",
      "type": "event"
    },
    {
      "inputs": [
        {
          "internalType": "address",
          "name": "to",
          "type": "address"
        },
        {
          "internalType": "uint256",
          "name": "tokenId",
          "type": "uint256"
        }
      ],
      "name": "approve",
      "outputs": [],
      "stateMutability": "nonpayable",
      "type": "function"
    },
    {
      "inputs": [
        {
          "internalType": "address",
          "name": "owner",
          "type": "address"
        }
      ],
      "name": "balanceOf",
      "outputs": [
        {
          "internalType": "uint256",
          "name": "",
          "type": "uint256"
        }
      ],
      "stateMutability": "view",
      "type": "function"
    },
    {
      "inputs": [
        {
          "internalType": "uint256",
          "name": "tokenId",
          "type": "uint256"
        }
      ],
      "name": "getApproved",
      "outputs": [
        {
          "internalType": "address",
          "name": "",
          "type": "address"
        }
      ],
      "stateMutability": "view",
      "type": "function"
    },
    {
      "inputs": [
        {
          "internalType": "address",
          "name": "owner",
          "type": "address"
        },
        {
          "internalType": "address",
          "name": "operator",
          "type": "address"
        }
      ],
      "name": "isApprovedForAll",
      "outputs": [
        {
          "internalType": "bool",
          "name": "",
          "type": "bool"
        }
      ],
      "stateMutability": "view",
      "type": "function"
    },
    {
      "inputs": [],
      "name": "name",
      "outputs": [
        {
          "internalType": "string",
          "name": "",
          "type": "string"
        }
      ],
      "stateMutability": "view",
      "type": "function"
    },
    {
      "inputs": [],
      "name": "owner",
      "outputs": [
        {
          "internalType": "address",
          "name": "",
          "type": "address"
        }
      ],
      "stateMutability": "view",
      "type": "function"
    },
    {
      "inputs": [
        {
          "internalType": "uint256",
          "name": "tokenId",
          "type": "uint256"
        }
      ],
      "name": "ownerOf",
      "outputs": [
        {
          "internalType": "address",
          "name": "",
          "type": "address"
        }
      ],
      "stateMutability": "view",
      "type": "function"
    },
    {
      "inputs": [
        {
          "internalType": "uint256",
          "name": "",
          "type": "uint256"
        }
      ],
      "name": "pokemonDetails",
      "outputs": [
        {
          "internalType": "string",
          "name": "name",
          "type": "string"
        },
        {
          "internalType": "string",
          "name": "element",
          "type": "string"
        },
        {
          "internalType": "uint256",
          "name": "powerLevel",
          "type": "uint256"
        }
      ],
      "stateMutability": "view",
      "type": "function"
    },
    {
      "inputs": [],
      "name": "renounceOwnership",
      "outputs": [],
      "stateMutability": "nonpayable",
      "type": "function"
    },
    {
      "inputs": [
        {
          "internalType": "address",
          "name": "to",
          "type": "address"
        },
        {
          "internalType": "string",
          "name": "tokenURI",
          "type": "string"
        },
        {
          "internalType": "string",
          "name": "name",
          "type": "string"
        },
        {
          "internalType": "string",
          "name": "element",
          "type": "string"
        },
        {
          "internalType": "uint256",
          "name": "powerLevel",
          "type": "uint256"
        }
      ],
      "name": "safeMint",
      "outputs": [],
      "stateMutability": "nonpayable",
      "type": "function"
    },
    {
      "inputs": [
        {
          "internalType": "address",
          "name": "from",
          "type": "address"
        },
        {
          "internalType": "address",
          "name": "to",
          "type": "address"
        },
        {
          "internalType": "uint256",
          "name": "tokenId",
          "type": "uint256"
        }
      ],
      "name": "safeTransferFrom",
      "outputs": [],
      "stateMutability": "nonpayable",
      "type": "function"
    },
    {
      "inputs": [
        {
          "internalType": "address",
          "name": "from",
          "type": "address"
        },
        {
          "internalType": "address",
          "name": "to",
          "type": "address"
        },
        {
          "internalType": "uint256",
          "name": "tokenId",
          "type": "uint256"
        },
        {
          "internalType": "bytes",
          "name": "data",
          "type": "bytes"
        }
      ],
      "name": "safeTransferFrom",
      "outputs": [],
      "stateMutability": "nonpayable",
      "type": "function"
    },
    {
      "inputs": [
        {
          "internalType": "address",
          "name": "operator",
          "type": "address"
        },
        {
          "internalType": "bool",
          "name": "approved",
          "type": "bool"
        }
      ],
      "name": "setApprovalForAll",
      "outputs": [],
      "stateMutability": "nonpayable",
      "type": "function"
    },
    {
      "inputs": [
        {
          "internalType": "bytes4",
          "name": "interfaceId",
          "type": "bytes4"
        }
      ],
      "name": "supportsInterface",
      "outputs": [
        {
          "internalType": "bool",
          "name": "",
          "type": "bool"
        }
      ],
      "stateMutability": "view",
      "type": "function"
    },
    {
      "inputs": [],
      "name": "symbol",
      "outputs": [
        {
          "internalType": "string",
          "name": "",
          "type": "string"
        }
      ],
      "stateMutability": "view",
      "type": "function"
    },
    {
      "inputs": [
        {
          "internalType": "uint256",
          "name": "tokenId",
          "type": "uint256"
        }
      ],
      "name": "tokenURI",
      "outputs": [
        {
          "internalType": "string",
          "name": "",
          "type": "string"
        }
      ],
      "stateMutability": "view",
      "type": "function"
    },
    {
      "inputs": [
        {
          "internalType": "address",
          "name": "from",
          "type": "address"
        },
        {
          "internalType": "address",
          "name": "to",
          "type": "address"
        },
        {
          "internalType": "uint256",
          "name": "tokenId",
          "type": "uint256"
        }
      ],
      "name": "transferFrom",
      "outputs": [],
      "stateMutability": "nonpayable",
      "type": "function"
    },
    {
      "inputs": [
        {
          "internalType": "address",
          "name": "newOwner",
          "type": "address"
        }
      ],
      "name": "transferOwnership",
      "outputs": [],
      "stateMutability": "nonpayable",
      "type": "function"
    }
  ],
  "bytecode": "0x60806040523480156200001157600080fd5b50336040518060400160405280600b81526020016a141bdad95b5bdb90d85c9960aa1b81525060405180604001604052806003815260200162504b4d60e81b8152508160009081620000649190620001b0565b506001620000738282620001b0565b5050506001600160a01b038116620000a557604051631e4fbdf760e01b81526000600482015260240160405180910390fd5b620000b081620000b7565b506200027c565b600780546001600160a01b038381166001600160a01b0319831681179093556040519116919082907f8be0079c531659141344cd1fd0a4f28419497f9722a3daafe3b4186f6b6457e090600090a35050565b634e487b7160e01b600052604160045260246000fd5b600181811c908216806200013457607f821691505b6020821081036200015557634e487b7160e01b600052602260045260246000fd5b50919050565b601f821115620001ab576000816000526020600020601f850160051c81016020861015620001865750805b601f850160051c820191505b81811015620001a75782815560010162000192565b5050505b505050565b81516001600160401b03811115620001cc57620001cc62000109565b620001e481620001dd84546200011f565b846200015b565b602080601f8311600181146200021c5760008415620002035750858301515b600019600386901b1c1916600185901b178555620001a7565b600085815260208120601f198616915b828110156200024d578886015182559484019460019091019084016200022c565b50858210156200026c5787850151600019600388901b60f8161c191681555b5050505050600190811b01905550565b6116de806200028c6000396000f3fe608060405234801561001057600080fd5b50600436106101165760003560e01c8063715018a6116100a2578063b03ad3b211610071578063b03ad3b214610248578063b88d4fde1461025b578063c87b56dd1461026e578063e985e9c514610281578063f2fde38b1461029457600080fd5b8063715018a6146102145780638da5cb5b1461021c57806395d89b411461022d578063a22cb4651461023557600080fd5b806323b872dd116100e957806323b872dd1461019857806342842e0e146101ab5780634e357c9d146101be5780636352211e146101e057806370a08231146101f357600080fd5b806301ffc9a71461011b57806306fdde0314610143578063081812fc14610158578063095ea7b314610183575b600080fd5b61012e6101293660046110f0565b6102a7565b60405190151581526020015b60405180910390f35b61014b6102b8565b60405161013a919061115d565b61016b610166366004611170565b61034a565b6040516001600160a01b03909116815260200161013a565b6101966101913660046111a5565b610373565b005b6101966101a63660046111cf565b610382565b6101966101b93660046111cf565b610412565b6101d16101cc366004611170565b610432565b60405161013a9392919061120b565b61016b6101ee366004611170565b610564565b610206610201366004611241565b61056f565b60405190815260200161013a565b6101966105b7565b6007546001600160a01b031661016b565b61014b6105cb565b61019661024336600461125c565b6105da565b610196610256366004611344565b6105e5565b6101966102693660046113e5565b6106b4565b61014b61027c366004611170565b6106cc565b61012e61028f366004611461565b6107dd565b6101966102a2366004611241565b61080b565b60006102b282610849565b92915050565b6060600080546102c790611494565b80601f01602080910402602001604051908101604052809291908181526020018280546102f390611494565b80156103405780601f1061031557610100808354040283529160200191610340565b820191906000526020600020905b81548152906001019060200180831161032357829003601f168201915b5050505050905090565b60006103558261086e565b506000828152600460205260409020546001600160a01b03166102b2565b61037e8282336108a7565b5050565b6001600160a01b0382166103b157604051633250574960e11b8152600060048201526024015b60405180910390fd5b60006103be8383336108b4565b9050836001600160a01b0316816001600160a01b03161461040c576040516364283d7b60e01b81526001600160a01b03808616600483015260248201849052821660448201526064016103a8565b50505050565b61042d838383604051806020016040528060008152506106b4565b505050565b60096020526000908152604090208054819061044d90611494565b80601f016020809104026020016040519081016040528092919081815260200182805461047990611494565b80156104c65780601f1061049b576101008083540402835291602001916104c6565b820191906000526020600020905b8154815290600101906020018083116104a957829003601f168201915b5050505050908060010180546104db90611494565b80601f016020809104026020016040519081016040528092919081815260200182805461050790611494565b80156105545780601f1061052957610100808354040283529160200191610554565b820191906000526020600020905b81548152906001019060200180831161053757829003601f168201915b5050505050908060020154905083565b60006102b28261086e565b60006001600160a01b03821661059b576040516322718ad960e21b8152600060048201526024016103a8565b506001600160a01b031660009081526003602052604090205490565b6105bf6109ad565b6105c960006109da565b565b6060600180546102c790611494565b61037e338383610a2c565b6105ed6109ad565b60088054600091826105fe836114ce565b91905055905061060e8682610acb565b6106188186610ae5565b60408051606081018252858152602080820186905281830185905260008481526009909152919091208151819061064f908261153d565b5060208201516001820190610664908261153d565b5060408201518160020155905050807fbb2c04bc0a1ee0b08c9997a587d889fdaefd62e63dbbad6b199d4144bf16bc1b85846040516106a49291906115fd565b60405180910390a2505050505050565b6106bf848484610382565b61040c3385858585610b35565b60606106d78261086e565b50600082815260066020526040812080546106f190611494565b80601f016020809104026020016040519081016040528092919081815260200182805461071d90611494565b801561076a5780601f1061073f5761010080835404028352916020019161076a565b820191906000526020600020905b81548152906001019060200180831161074d57829003601f168201915b50505050509050600061078860408051602081019091526000815290565b9050805160000361079a575092915050565b8151156107cc5780826040516020016107b492919061161f565b60405160208183030381529060405292505050919050565b6107d584610c60565b949350505050565b6001600160a01b03918216600090815260056020908152604080832093909416825291909152205460ff1690565b6108136109ad565b6001600160a01b03811661083d57604051631e4fbdf760e01b8152600060048201526024016103a8565b610846816109da565b50565b60006001600160e01b03198216632483248360e11b14806102b257506102b282610cd5565b6000818152600260205260408120546001600160a01b0316806102b257604051637e27328960e01b8152600481018490526024016103a8565b61042d8383836001610d25565b6000828152600260205260408120546001600160a01b03908116908316156108e1576108e1818486610e2b565b6001600160a01b0381161561091f576108fe600085600080610d25565b6001600160a01b038116600090815260036020526040902080546000190190555b6001600160a01b0385161561094e576001600160a01b0385166000908152600360205260409020805460010190555b60008481526002602052604080822080546001600160a01b0319166001600160a01b0389811691821790925591518793918516917fddf252ad1be2c89b69c2b068fc378daa952ba7f163c4a11628f55a4df523b3ef91a4949350505050565b6007546001600160a01b031633146105c95760405163118cdaa760e01b81523360048201526024016103a8565b600780546001600160a01b038381166001600160a01b0319831681179093556040519116919082907f8be0079c531659141344cd1fd0a4f28419497f9722a3daafe3b4186f6b6457e090600090a35050565b6001600160a01b038216610a5e57604051630b61174360e31b81526001600160a01b03831660048201526024016103a8565b6001600160a01b03838116600081815260056020908152604080832094871680845294825291829020805460ff191686151590811790915591519182527f17307eab39ab6107e8899845ad3d59bd9653f200f220920489ca2b5937696c31910160405180910390a3505050565b61037e828260405180602001604052806000815250610e8f565b6000828152600660205260409020610afd828261153d565b506040518281527ff8e1a15aba9398e019f0b49df1a4fde98ee17ae345cb5f6b5e2c27f5033e8ce79060200160405180910390a15050565b6001600160a01b0383163b15610c5957604051630a85bd0160e11b81526001600160a01b0384169063150b7a0290610b7790889088908790879060040161164e565b6020604051808303816000875af1925050508015610bb2575060408051601f3d908101601f19168201909252610baf9181019061168b565b60015b610c1b573d808015610be0576040519150601f19603f3d011682016040523d82523d6000602084013e610be5565b606091505b508051600003610c1357604051633250574960e11b81526001600160a01b03851660048201526024016103a8565b805160208201fd5b6001600160e01b03198116630a85bd0160e11b14610c5757604051633250574960e11b81526001600160a01b03851660048201526024016103a8565b505b5050505050565b6060610c6b8261086e565b506000610c8360408051602081019091526000815290565b90506000815111610ca35760405180602001604052806000815250610cce565b80610cad84610ea7565b604051602001610cbe92919061161f565b6040516020818303038152906040525b9392505050565b60006001600160e01b031982166380ac58cd60e01b1480610d0657506001600160e01b03198216635b5e139f60e01b145b806102b257506301ffc9a760e01b6001600160e01b03198316146102b2565b8080610d3957506001600160a01b03821615155b15610dfb576000610d498461086e565b90506001600160a01b03831615801590610d755750826001600160a01b0316816001600160a01b031614155b8015610d885750610d8681846107dd565b155b15610db15760405163a9fbf51f60e01b81526001600160a01b03841660048201526024016103a8565b8115610df95783856001600160a01b0316826001600160a01b03167f8c5be1e5ebec7d5bd14f71427d1e84f3dd0314c0f7b2291e5b200ac8c7c3b92560405160405180910390a45b505b5050600090815260046020526040902080546001600160a01b0319166001600160a01b0392909216919091179055565b610e36838383610f3a565b61042d576001600160a01b038316610e6457604051637e27328960e01b8152600481018290526024016103a8565b60405163177e802f60e01b81526001600160a01b0383166004820152602481018290526044016103a8565b610e998383610f9d565b61042d336000858585610b35565b60606000610eb483611002565b600101905060008167ffffffffffffffff811115610ed457610ed4611298565b6040519080825280601f01601f191660200182016040528015610efe576020820181803683370190505b5090508181016020015b600019016f181899199a1a9b1b9c1cb0b131b232b360811b600a86061a8153600a8504945084610f0857509392505050565b60006001600160a01b038316158015906107d55750826001600160a01b0316846001600160a01b03161480610f745750610f7484846107dd565b806107d55750506000908152600460205260409020546001600160a01b03908116911614919050565b6001600160a01b038216610fc757604051633250574960e11b8152600060048201526024016103a8565b6000610fd5838360006108b4565b90506001600160a01b0381161561042d576040516339e3563760e11b8152600060048201526024016103a8565b60008072184f03e93ff9f4daa797ed6e38ed64bf6a1f0160401b83106110415772184f03e93ff9f4daa797ed6e38ed64bf6a1f0160401b830492506040015b6d04ee2d6d415b85acef8100000000831061106d576d04ee2d6d415b85acef8100000000830492506020015b662386f26fc10000831061108b57662386f26fc10000830492506010015b6305f5e10083106110a3576305f5e100830492506008015b61271083106110b757612710830492506004015b606483106110c9576064830492506002015b600a83106102b25760010192915050565b6001600160e01b03198116811461084657600080fd5b60006020828403121561110257600080fd5b8135610cce816110da565b60005b83811015611128578181015183820152602001611110565b50506000910152565b6000815180845261114981602086016020860161110d565b601f01601f19169290920160200192915050565b602081526000610cce6020830184611131565b60006020828403121561118257600080fd5b5035919050565b80356001600160a01b03811681146111a057600080fd5b919050565b600080604083850312156111b857600080fd5b6111c183611189565b946020939093013593505050565b6000806000606084860312156111e457600080fd5b6111ed84611189565b92506111fb60208501611189565b9150604084013590509250925092565b60608152600061121e6060830186611131565b82810360208401526112308186611131565b915050826040830152949350505050565b60006020828403121561125357600080fd5b610cce82611189565b6000806040838503121561126f57600080fd5b61127883611189565b91506020830135801515811461128d57600080fd5b809150509250929050565b634e487b7160e01b600052604160045260246000fd5b600067ffffffffffffffff808411156112c9576112c9611298565b604051601f8501601f19908116603f011681019082821181831017156112f1576112f1611298565b8160405280935085815286868601111561130a57600080fd5b858560208301376000602087830101525050509392505050565b600082601f83011261133557600080fd5b610cce838335602085016112ae565b600080600080600060a0868803121561135c57600080fd5b61136586611189565b9450602086013567ffffffffffffffff8082111561138257600080fd5b61138e89838a01611324565b955060408801359150808211156113a457600080fd5b6113b089838a01611324565b945060608801359150808211156113c657600080fd5b506113d388828901611324565b95989497509295608001359392505050565b600080600080608085870312156113fb57600080fd5b61140485611189565b935061141260208601611189565b925060408501359150606085013567ffffffffffffffff81111561143557600080fd5b8501601f8101871361144657600080fd5b611455878235602084016112ae565b91505092959194509250565b6000806040838503121561147457600080fd5b61147d83611189565b915061148b60208401611189565b90509250929050565b600181811c908216806114a857607f821691505b6020821081036114c857634e487b7160e01b600052602260045260246000fd5b50919050565b6000600182016114ee57634e487b7160e01b600052601160045260246000fd5b5060010190565b601f82111561042d576000816000526020600020601f850160051c8101602086101561151e5750805b601f850160051c820191505b81811015610c575782815560010161152a565b815167ffffffffffffffff81111561155757611557611298565b61156b816115658454611494565b846114f5565b602080601f8311600181146115a057600084156115885750858301515b600019600386901b1c1916600185901b178555610c57565b600085815260208120601f198616915b828110156115cf578886015182559484019460019091019084016115b0565b50858210156115ed5787850151600019600388901b60f8161c191681555b5050505050600190811b01905550565b6040815260006116106040830185611131565b90508260208301529392505050565b6000835161163181846020880161110d565b83519083019061164581836020880161110d565b01949350505050565b6001600160a01b038581168252841660208201526040810183905260806060820181905260009061168190830184611131565b9695505050505050565b60006020828403121561169d57600080fd5b8151610cce816110da56fea264697066735822122011aad079b1753af35cba3c22afeaba333989efb9da0249ac9abd417e84e0d91464736f6c63430008180033",
  "linkReferences": {},
  "deployedLinkReferences": {}
}