{
  "_format": "hh-sol-artifact-1",
  "contractName": "PokemonCard",
  "sourceName": "contracts/PokemonCard.sol",
  "abi": [
    {
      "inputs": [],
      "stateMutability": "nonpayable",
      "type": "constructor"
    },
    {
      "inputs": [
        {
          "internalType": "address",
          "name": "sender",
          "type": "address"
        },
        {
          "internalType": "uint256",
          "name": "tokenId",
          "type": "uint256"
        },
        {
          "internalType": "address",
          "name": "owner",
          "type": "address"
        }
      ],
      "name": "ERC721IncorrectOwner",
      "type": "error"
    },
    {
      "inputs": [
        {
          "internalType": "address",
          "name": "operator",
          "type": "address"
        },
        {
          "internalType": "uint256",
          "name": "tokenId",
          "type": "uint256"
        }
      ],
      "name": "ERC721InsufficientApproval",
      "type": "error"
    },
    {
      "inputs": [
        {
          "internalType": "address",
          "name": "approver",
          "type": "address"
        }
      ],
      "name": "ERC721InvalidApprover",
      "type": "error"
    },
    {
      "inputs": [
        {
          "internalType": "address",
          "name": "operator",
          "type": "address"
        }
      ],
      "name": "ERC721InvalidOperator",
      "type": "error"
    },
    {
      "inputs": [
        {
          "internalType": "address",
          "name": "owner",
          "type": "address"
        }
      ],
      "name": "ERC721InvalidOwner",
      "type": "error"
    },
    {
      "inputs": [
        {
          "internalType": "address",
          "name": "receiver",
          "type": "address"
        }
      ],
      "name": "ERC721InvalidReceiver",
      "type": "error"
    },
    {
      "inputs": [
        {
          "internalType": "address",
          "name": "sender",
          "type": "address"
        }
      ],
      "name": "ERC721InvalidSender",
      "type": "error"
    },
    {
      "inputs": [
        {
          "internalType": "uint256",
          "name": "tokenId",
          "type": "uint256"
        }
      ],
      "name": "ERC721NonexistentToken",
      "type": "error"
    },
    {
      "inputs": [
        {
          "internalType": "address",
          "name": "owner",
          "type": "address"
        }
      ],
      "name": "OwnableInvalidOwner",
      "type": "error"
    },
    {
      "inputs": [
        {
          "internalType": "address",
          "name": "account",
          "type": "address"
        }
      ],
      "name": "OwnableUnauthorizedAccount",
      "type": "error"
    },
    {
      "anonymous": false,
      "inputs": [
        {
          "indexed": true,
          "internalType": "address",
          "name": "owner",
          "type": "address"
        },
        {
          "indexed": true,
          "internalType": "address",
          "name": "approved",
          "type": "address"
        },
        {
          "indexed": true,
          "internalType": "uint256",
          "name": "tokenId",
          "type": "uint256"
        }
      ],
      "name": "Approval",
      "type": "event"
    },
    {
      "anonymous": false,
      "inputs": [
        {
          "indexed": true,
          "internalType": "address",
          "name": "owner",
          "type": "address"
        },
        {
          "indexed": true,
          "internalType": "address",
          "name": "operator",
          "type": "address"
        },
        {
          "indexed": false,
          "internalType": "bool",
          "name": "approved",
          "type": "bool"
        }
      ],
      "name": "ApprovalForAll",
      "type": "event"
    },
    {
      "anonymous": false,
      "inputs": [
        {
          "indexed": false,
          "internalType": "uint256",
          "name": "_fromTokenId",
          "type": "uint256"
        },
        {
          "indexed": false,
          "internalType": "uint256",
          "name": "_toTokenId",
          "type": "uint256"
        }
      ],
      "name": "BatchMetadataUpdate",
      "type": "event"
    },
    {
      "anonymous": false,
      "inputs": [
        {
          "indexed": true,
          "internalType": "uint256",
          "name": "tokenId",
          "type": "uint256"
        },
        {
          "indexed": false,
          "internalType": "string",
          "name": "name",
          "type": "string"
        },
        {
          "indexed": false,
          "internalType": "uint256",
          "name": "powerLevel",
          "type": "uint256"
        }
      ],
      "name": "CardCreated",
      "type": "event"
    },
    {
      "anonymous": false,
      "inputs": [
        {
          "indexed": false,
          "internalType": "uint256",
          "name": "_tokenId",
          "type": "uint256"
        }
      ],
      "name": "MetadataUpdate",
      "type": "event"
    },
    {
      "anonymous": false,
      "inputs": [
        {
          "indexed": true,
          "internalType": "address",
          "name": "previousOwner",
          "type": "address"
        },
        {
          "indexed": true,
          "internalType": "address",
          "name": "newOwner",
          "type": "address"
        }
      ],
      "name": "OwnershipTransferred",
      "type": "event"
    },
    {
      "anonymous": false,
      "inputs": [
        {
          "indexed": true,
          "internalType": "address",
          "name": "from",
          "type": "address"
        },
        {
          "indexed": true,
          "internalType": "address",
          "name": "to",
          "type": "address"
        },
        {
          "indexed": true,
          "internalType": "uint256",
          "name": "tokenId",
          "type": "uint256"
        }
      ],
      "name": "Transfer",
      "type": "event"
    },
    {
      "inputs": [
        {
          "internalType": "address",
          "name": "to",
          "type": "address"
        },
        {
          "internalType": "uint256",
          "name": "tokenId",
          "type": "uint256"
        }
      ],
      "name": "approve",
      "outputs": [],
      "stateMutability": "nonpayable",
      "type": "function"
    },
    {
      "inputs": [
        {
          "internalType": "address",
          "name": "owner",
          "type": "address"
        }
      ],
      "name": "balanceOf",
      "outputs": [
        {
          "internalType": "uint256",
          "name": "",
          "type": "uint256"
        }
      ],
      "stateMutability": "view",
      "type": "function"
    },
    {
      "inputs": [
        {
          "internalType": "uint256",
          "name": "tokenId",
          "type": "uint256"
        }
      ],
      "name": "getApproved",
      "outputs": [
        {
          "internalType": "address",
          "name": "",
          "type": "address"
        }
      ],
      "stateMutability": "view",
      "type": "function"
    },
    {
      "inputs": [
        {
          "internalType": "address",
          "name": "owner",
          "type": "address"
        },
        {
          "internalType": "address",
          "name": "operator",
          "type": "address"
        }
      ],
      "name": "isApprovedForAll",
      "outputs": [
        {
          "internalType": "bool",
          "name": "",
          "type": "bool"
        }
      ],
      "stateMutability": "view",
      "type": "function"
    },
    {
      "inputs": [],
      "name": "name",
      "outputs": [
        {
          "internalType": "string",
          "name": "",
          "type": "string"
        }
      ],
      "stateMutability": "view",
      "type": "function"
    },
    {
      "inputs": [],
      "name": "owner",
      "outputs": [
        {
          "internalType": "address",
          "name": "",
          "type": "address"
        }
      ],
      "stateMutability": "view",
      "type": "function"
    },
    {
      "inputs": [
        {
          "internalType": "uint256",
          "name": "tokenId",
          "type": "uint256"
        }
      ],
      "name": "ownerOf",
      "outputs": [
        {
          "internalType": "address",
          "name": "",
          "type": "address"
        }
      ],
      "stateMutability": "view",
      "type": "function"
    },
    {
      "inputs": [
        {
          "internalType": "uint256",
          "name": "",
          "type": "uint256"
        }
      ],
      "name": "pokemonDetails",
      "outputs": [
        {
          "internalType": "string",
          "name": "name",
          "type": "string"
        },
        {
          "internalType": "string",
          "name": "element",
          "type": "string"
        },
        {
          "internalType": "uint256",
          "name": "powerLevel",
          "type": "uint256"
        }
      ],
      "stateMutability": "view",
      "type": "function"
    },
    {
      "inputs": [],
      "name": "renounceOwnership",
      "outputs": [],
      "stateMutability": "nonpayable",
      "type": "function"
    },
    {
      "inputs": [
        {
          "internalType": "address",
          "name": "to",
          "type": "address"
        },
        {
          "internalType": "string",
          "name": "tokenURI",
          "type": "string"
        },
        {
          "internalType": "string",
          "name": "name",
          "type": "string"
        },
        {
          "internalType": "string",
          "name": "element",
          "type": "string"
        },
        {
          "internalType": "uint256",
          "name": "powerLevel",
          "type": "uint256"
        }
      ],
      "name": "safeMint",
      "outputs": [],
      "stateMutability": "nonpayable",
      "type": "function"
    },
    {
      "inputs": [
        {
          "internalType": "address",
          "name": "from",
          "type": "address"
        },
        {
          "internalType": "address",
          "name": "to",
          "type": "address"
        },
        {
          "internalType": "uint256",
          "name": "tokenId",
          "type": "uint256"
        }
      ],
      "name": "safeTransferFrom",
      "outputs": [],
      "stateMutability": "nonpayable",
      "type": "function"
    },
    {
      "inputs": [
        {
          "internalType": "address",
          "name": "from",
          "type": "address"
        },
        {
          "internalType": "address",
          "name": "to",
          "type": "address"
        },
        {
          "internalType": "uint256",
          "name": "tokenId",
          "type": "uint256"
        },
        {
          "internalType": "bytes",
          "name": "data",
          "type": "bytes"
        }
      ],
      "name": "safeTransferFrom",
      "outputs": [],
      "stateMutability": "nonpayable",
      "type": "function"
    },
    {
      "inputs": [
        {
          "internalType": "address",
          "name": "operator",
          "type": "address"
        },
        {
          "internalType": "bool",
          "name": "approved",
          "type": "bool"
        }
      ],
      "name": "setApprovalForAll",
      "outputs": [],
      "stateMutability": "nonpayable",
      "type": "function"
    },
    {
      "inputs": [
        {
          "internalType": "bytes4",
          "name": "interfaceId",
          "type": "bytes4"
        }
      ],
      "name": "supportsInterface",
      "outputs": [
        {
          "internalType": "bool",
          "name": "",
          "type": "bool"
        }
      ],
      "stateMutability": "view",
      "type": "function"
    },
    {
      "inputs": [],
      "name": "symbol",
      "outputs": [
        {
          "internalType": "string",
          "name": "",
          "type": "string"
        }
      ],
      "stateMutability": "view",
      "type": "function"
    },
    {
      "inputs": [
        {
          "internalType": "uint256",
          "name": "tokenId",
          "type": "uint256"
        }
      ],
      "name": "tokenURI",
      "outputs": [
        {
          "internalType": "string",
          "name": "",
          "type": "string"
        }
      ],
      "stateMutability": "view",
      "type": "function"
    },
    {
      "inputs": [
        {
          "internalType": "address",
          "name": "from",
          "type": "address"
        },
        {
          "internalType": "address",
          "name": "to",
          "type": "address"
        },
        {
          "internalType": "uint256",
          "name": "tokenId",
          "type": "uint256"
        }
      ],
      "name": "transferFrom",
      "outputs": [],
      "stateMutability": "nonpayable",
      "type": "function"
    },
    {
      "inputs": [
        {
          "internalType": "address",
          "name": "newOwner",
          "type": "address"
        }
      ],
      "name": "transferOwnership",
      "outputs": [],
      "stateMutability": "nonpayable",
      "type": "function"
    }
  ],
  "bytecode": "0x60806040523480156200001157600080fd5b50336040518060400160405280600b81526020017f506f6b656d6f6e436172640000000000000000000000000000000000000000008152506040518060400160405280600381526020017f504b4d0000000000000000000000000000000000000000000000000000000000815250816000908162000090919062000491565b508060019081620000a2919062000491565b505050600073ffffffffffffffffffffffffffffffffffffffff168173ffffffffffffffffffffffffffffffffffffffff16036200011a5760006040517f1e4fbdf7000000000000000000000000000000000000000000000000000000008152600401620001119190620005bd565b60405180910390fd5b6200012b816200014e60201b60201c565b506200014867a9db204b17c65a9860c01b6200021460201b60201c565b620005da565b6000600760009054906101000a900473ffffffffffffffffffffffffffffffffffffffff16905081600760006101000a81548173ffffffffffffffffffffffffffffffffffffffff021916908373ffffffffffffffffffffffffffffffffffffffff1602179055508173ffffffffffffffffffffffffffffffffffffffff168173ffffffffffffffffffffffffffffffffffffffff167f8be0079c531659141344cd1fd0a4f28419497f9722a3daafe3b4186f6b6457e060405160405180910390a35050565b50565b600081519050919050565b7f4e487b7100000000000000000000000000000000000000000000000000000000600052604160045260246000fd5b7f4e487b7100000000000000000000000000000000000000000000000000000000600052602260045260246000fd5b600060028204905060018216806200029957607f821691505b602082108103620002af57620002ae62000251565b5b50919050565b60008190508160005260206000209050919050565b60006020601f8301049050919050565b600082821b905092915050565b600060088302620003197fffffffffffffffffffffffffffffffffffffffffffffffffffffffffffffffff82620002da565b620003258683620002da565b95508019841693508086168417925050509392505050565b6000819050919050565b6000819050919050565b6000620003726200036c62000366846200033d565b62000347565b6200033d565b9050919050565b6000819050919050565b6200038e8362000351565b620003a66200039d8262000379565b848454620002e7565b825550505050565b600090565b620003bd620003ae565b620003ca81848462000383565b505050565b5b81811015620003f257620003e6600082620003b3565b600181019050620003d0565b5050565b601f82111562000441576200040b81620002b5565b6200041684620002ca565b8101602085101562000426578190505b6200043e6200043585620002ca565b830182620003cf565b50505b505050565b600082821c905092915050565b6000620004666000198460080262000446565b1980831691505092915050565b600062000481838362000453565b9150826002028217905092915050565b6200049c8262000217565b67ffffffffffffffff811115620004b857620004b762000222565b5b620004c4825462000280565b620004d1828285620003f6565b600060209050601f831160018114620005095760008415620004f4578287015190505b62000500858262000473565b86555062000570565b601f1984166200051986620002b5565b60005b8281101562000543578489015182556001820191506020850194506020810190506200051c565b868310156200056357848901516200055f601f89168262000453565b8355505b6001600288020188555050505b505050505050565b600073ffffffffffffffffffffffffffffffffffffffff82169050919050565b6000620005a58262000578565b9050919050565b620005b78162000598565b82525050565b6000602082019050620005d46000830184620005ac565b92915050565b612aa880620005ea6000396000f3fe608060405234801561001057600080fd5b50600436106101165760003560e01c8063715018a6116100a2578063b03ad3b211610071578063b03ad3b2146102e1578063b88d4fde146102fd578063c87b56dd14610319578063e985e9c514610349578063f2fde38b1461037957610116565b8063715018a61461027f5780638da5cb5b1461028957806395d89b41146102a7578063a22cb465146102c557610116565b806323b872dd116100e957806323b872dd146101b557806342842e0e146101d15780634e357c9d146101ed5780636352211e1461021f57806370a082311461024f57610116565b806301ffc9a71461011b57806306fdde031461014b578063081812fc14610169578063095ea7b314610199575b600080fd5b61013560048036038101906101309190611e18565b610395565b6040516101429190611e60565b60405180910390f35b6101536103e3565b6040516101609190611f0b565b60405180910390f35b610183600480360381019061017e9190611f63565b610475565b6040516101909190611fd1565b60405180910390f35b6101b360048036038101906101ae9190612018565b610491565b005b6101cf60048036038101906101ca9190612058565b6104a7565b005b6101eb60048036038101906101e69190612058565b6105a9565b005b61020760048036038101906102029190611f63565b6105c9565b604051610216939291906120ba565b60405180910390f35b61023960048036038101906102349190611f63565b610703565b6040516102469190611fd1565b60405180910390f35b610269600480360381019061026491906120ff565b610715565b604051610276919061212c565b60405180910390f35b6102876107cf565b005b6102916107e3565b60405161029e9190611fd1565b60405180910390f35b6102af61080d565b6040516102bc9190611f0b565b60405180910390f35b6102df60048036038101906102da9190612173565b61089f565b005b6102fb60048036038101906102f691906122e8565b6108b5565b005b61031760048036038101906103129190612458565b610a85565b005b610333600480360381019061032e9190611f63565b610aaa565b6040516103409190611f0b565b60405180910390f35b610363600480360381019061035e91906124db565b610bbd565b6040516103709190611e60565b60405180910390f35b610393600480360381019061038e91906120ff565b610c51565b005b60006103ab670ddfc906927cc49760c01b610cd7565b6103bf6773c4af03f0ce766b60c01b610cd7565b6103d367495379a2b4f083c060c01b610cd7565b6103dc82610cda565b9050919050565b6060600080546103f29061254a565b80601f016020809104026020016040519081016040528092919081815260200182805461041e9061254a565b801561046b5780601f106104405761010080835404028352916020019161046b565b820191906000526020600020905b81548152906001019060200180831161044e57829003601f168201915b5050505050905090565b600061048082610d3b565b5061048a82610dc3565b9050919050565b6104a3828261049e610e00565b610e08565b5050565b600073ffffffffffffffffffffffffffffffffffffffff168273ffffffffffffffffffffffffffffffffffffffff16036105195760006040517f64a0ae920000000000000000000000000000000000000000000000000000000081526004016105109190611fd1565b60405180910390fd5b600061052d8383610528610e00565b610e1a565b90508373ffffffffffffffffffffffffffffffffffffffff168173ffffffffffffffffffffffffffffffffffffffff16146105a3578382826040517f64283d7b00000000000000000000000000000000000000000000000000000000815260040161059a9392919061257b565b60405180910390fd5b50505050565b6105c483838360405180602001604052806000815250610a85565b505050565b60096020528060005260406000206000915090508060000180546105ec9061254a565b80601f01602080910402602001604051908101604052809291908181526020018280546106189061254a565b80156106655780601f1061063a57610100808354040283529160200191610665565b820191906000526020600020905b81548152906001019060200180831161064857829003601f168201915b50505050509080600101805461067a9061254a565b80601f01602080910402602001604051908101604052809291908181526020018280546106a69061254a565b80156106f35780601f106106c8576101008083540402835291602001916106f3565b820191906000526020600020905b8154815290600101906020018083116106d657829003601f168201915b5050505050908060020154905083565b600061070e82610d3b565b9050919050565b60008073ffffffffffffffffffffffffffffffffffffffff168273ffffffffffffffffffffffffffffffffffffffff16036107885760006040517f89c62b6400000000000000000000000000000000000000000000000000000000815260040161077f9190611fd1565b60405180910390fd5b600360008373ffffffffffffffffffffffffffffffffffffffff1673ffffffffffffffffffffffffffffffffffffffff168152602001908152602001600020549050919050565b6107d7611034565b6107e160006110bb565b565b6000600760009054906101000a900473ffffffffffffffffffffffffffffffffffffffff16905090565b60606001805461081c9061254a565b80601f01602080910402602001604051908101604052809291908181526020018280546108489061254a565b80156108955780601f1061086a57610100808354040283529160200191610895565b820191906000526020600020905b81548152906001019060200180831161087857829003601f168201915b5050505050905090565b6108b16108aa610e00565b8383611181565b5050565b6108c967b304f7c5f72305d260c01b610cd7565b6108d1611034565b6108e567a0c5579d8d8a483f60c01b610cd7565b6108f9679a24df19f6905d6760c01b610cd7565b61090d674ad5ff533138704360c01b610cd7565b6109216716315fb1b76de6f060c01b610cd7565b600060086000815480929190610936906125e1565b91905055905061095067c849358ad023874060c01b610cd7565b610964677ab49f8748ae611e60c01b610cd7565b61096e86826112f0565b61098267d25b1f0a15d46c7660c01b610cd7565b6109966718ff79965ee7e2a660c01b610cd7565b6109a0818661130e565b6109b46768d3a8ae8e5a4c9860c01b610cd7565b6040518060600160405280858152602001848152602001838152506009600083815260200190815260200160002060008201518160000190816109f791906127d5565b506020820151816001019081610a0d91906127d5565b5060408201518160020155905050610a2f67239dddc87f6d1fd260c01b610cd7565b610a436790b15dad676c0c9a60c01b610cd7565b807fbb2c04bc0a1ee0b08c9997a587d889fdaefd62e63dbbad6b199d4144bf16bc1b8584604051610a759291906128a7565b60405180910390a2505050505050565b610a908484846104a7565b610aa4610a9b610e00565b8585858561136a565b50505050565b6060610ab582610d3b565b506000600660008481526020019081526020016000208054610ad69061254a565b80601f0160208091040260200160405190810160405280929190818152602001828054610b029061254a565b8015610b4f5780601f10610b2457610100808354040283529160200191610b4f565b820191906000526020600020905b815481529060010190602001808311610b3257829003601f168201915b505050505090506000610b6061151b565b90506000815103610b75578192505050610bb8565b600082511115610baa578082604051602001610b92929190612913565b60405160208183030381529060405292505050610bb8565b610bb384611532565b925050505b919050565b6000600560008473ffffffffffffffffffffffffffffffffffffffff1673ffffffffffffffffffffffffffffffffffffffff16815260200190815260200160002060008373ffffffffffffffffffffffffffffffffffffffff1673ffffffffffffffffffffffffffffffffffffffff16815260200190815260200160002060009054906101000a900460ff16905092915050565b610c59611034565b600073ffffffffffffffffffffffffffffffffffffffff168173ffffffffffffffffffffffffffffffffffffffff1603610ccb5760006040517f1e4fbdf7000000000000000000000000000000000000000000000000000000008152600401610cc29190611fd1565b60405180910390fd5b610cd4816110bb565b50565b50565b6000634906490660e01b7bffffffffffffffffffffffffffffffffffffffffffffffffffffffff1916827bffffffffffffffffffffffffffffffffffffffffffffffffffffffff19161480610d345750610d338261159b565b5b9050919050565b600080610d478361167d565b9050600073ffffffffffffffffffffffffffffffffffffffff168173ffffffffffffffffffffffffffffffffffffffff1603610dba57826040517f7e273289000000000000000000000000000000000000000000000000000000008152600401610db1919061212c565b60405180910390fd5b80915050919050565b60006004600083815260200190815260200160002060009054906101000a900473ffffffffffffffffffffffffffffffffffffffff169050919050565b600033905090565b610e1583838360016116ba565b505050565b600080610e268461167d565b9050600073ffffffffffffffffffffffffffffffffffffffff168373ffffffffffffffffffffffffffffffffffffffff1614610e6857610e6781848661187f565b5b600073ffffffffffffffffffffffffffffffffffffffff168173ffffffffffffffffffffffffffffffffffffffff1614610ef957610eaa6000856000806116ba565b6001600360008373ffffffffffffffffffffffffffffffffffffffff1673ffffffffffffffffffffffffffffffffffffffff168152602001908152602001600020600082825403925050819055505b600073ffffffffffffffffffffffffffffffffffffffff168573ffffffffffffffffffffffffffffffffffffffff1614610f7c576001600360008773ffffffffffffffffffffffffffffffffffffffff1673ffffffffffffffffffffffffffffffffffffffff168152602001908152602001600020600082825401925050819055505b846002600086815260200190815260200160002060006101000a81548173ffffffffffffffffffffffffffffffffffffffff021916908373ffffffffffffffffffffffffffffffffffffffff160217905550838573ffffffffffffffffffffffffffffffffffffffff168273ffffffffffffffffffffffffffffffffffffffff167fddf252ad1be2c89b69c2b068fc378daa952ba7f163c4a11628f55a4df523b3ef60405160405180910390a4809150509392505050565b61103c610e00565b73ffffffffffffffffffffffffffffffffffffffff1661105a6107e3565b73ffffffffffffffffffffffffffffffffffffffff16146110b95761107d610e00565b6040517f118cdaa70000000000000000000000000000000000000000000000000000000081526004016110b09190611fd1565b60405180910390fd5b565b6000600760009054906101000a900473ffffffffffffffffffffffffffffffffffffffff16905081600760006101000a81548173ffffffffffffffffffffffffffffffffffffffff021916908373ffffffffffffffffffffffffffffffffffffffff1602179055508173ffffffffffffffffffffffffffffffffffffffff168173ffffffffffffffffffffffffffffffffffffffff167f8be0079c531659141344cd1fd0a4f28419497f9722a3daafe3b4186f6b6457e060405160405180910390a35050565b600073ffffffffffffffffffffffffffffffffffffffff168273ffffffffffffffffffffffffffffffffffffffff16036111f257816040517f5b08ba180000000000000000000000000000000000000000000000000000000081526004016111e99190611fd1565b60405180910390fd5b80600560008573ffffffffffffffffffffffffffffffffffffffff1673ffffffffffffffffffffffffffffffffffffffff16815260200190815260200160002060008473ffffffffffffffffffffffffffffffffffffffff1673ffffffffffffffffffffffffffffffffffffffff16815260200190815260200160002060006101000a81548160ff0219169083151502179055508173ffffffffffffffffffffffffffffffffffffffff168373ffffffffffffffffffffffffffffffffffffffff167f17307eab39ab6107e8899845ad3d59bd9653f200f220920489ca2b5937696c31836040516112e39190611e60565b60405180910390a3505050565b61130a828260405180602001604052806000815250611943565b5050565b8060066000848152602001908152602001600020908161132e91906127d5565b507ff8e1a15aba9398e019f0b49df1a4fde98ee17ae345cb5f6b5e2c27f5033e8ce78260405161135e919061212c565b60405180910390a15050565b60008373ffffffffffffffffffffffffffffffffffffffff163b1115611514578273ffffffffffffffffffffffffffffffffffffffff1663150b7a02868685856040518563ffffffff1660e01b81526004016113c9949392919061298c565b6020604051808303816000875af192505050801561140557506040513d601f19601f8201168201806040525081019061140291906129ed565b60015b611489573d8060008114611435576040519150601f19603f3d011682016040523d82523d6000602084013e61143a565b606091505b50600081510361148157836040517f64a0ae920000000000000000000000000000000000000000000000000000000081526004016114789190611fd1565b60405180910390fd5b805160208201fd5b63150b7a0260e01b7bffffffffffffffffffffffffffffffffffffffffffffffffffffffff1916817bffffffffffffffffffffffffffffffffffffffffffffffffffffffff19161461151257836040517f64a0ae920000000000000000000000000000000000000000000000000000000081526004016115099190611fd1565b60405180910390fd5b505b5050505050565b606060405180602001604052806000815250905090565b606061153d82610d3b565b50600061154861151b565b905060008151116115685760405180602001604052806000815250611593565b8061157284611967565b604051602001611583929190612913565b6040516020818303038152906040525b915050919050565b60007f80ac58cd000000000000000000000000000000000000000000000000000000007bffffffffffffffffffffffffffffffffffffffffffffffffffffffff1916827bffffffffffffffffffffffffffffffffffffffffffffffffffffffff1916148061166657507f5b5e139f000000000000000000000000000000000000000000000000000000007bffffffffffffffffffffffffffffffffffffffffffffffffffffffff1916827bffffffffffffffffffffffffffffffffffffffffffffffffffffffff1916145b80611676575061167582611a35565b5b9050919050565b60006002600083815260200190815260200160002060009054906101000a900473ffffffffffffffffffffffffffffffffffffffff169050919050565b80806116f35750600073ffffffffffffffffffffffffffffffffffffffff168273ffffffffffffffffffffffffffffffffffffffff1614155b1561182757600061170384610d3b565b9050600073ffffffffffffffffffffffffffffffffffffffff168373ffffffffffffffffffffffffffffffffffffffff161415801561176e57508273ffffffffffffffffffffffffffffffffffffffff168173ffffffffffffffffffffffffffffffffffffffff1614155b8015611781575061177f8184610bbd565b155b156117c357826040517fa9fbf51f0000000000000000000000000000000000000000000000000000000081526004016117ba9190611fd1565b60405180910390fd5b811561182557838573ffffffffffffffffffffffffffffffffffffffff168273ffffffffffffffffffffffffffffffffffffffff167f8c5be1e5ebec7d5bd14f71427d1e84f3dd0314c0f7b2291e5b200ac8c7c3b92560405160405180910390a45b505b836004600085815260200190815260200160002060006101000a81548173ffffffffffffffffffffffffffffffffffffffff021916908373ffffffffffffffffffffffffffffffffffffffff16021790555050505050565b61188a838383611a9f565b61193e57600073ffffffffffffffffffffffffffffffffffffffff168373ffffffffffffffffffffffffffffffffffffffff16036118ff57806040517f7e2732890000000000000000000000000000000000000000000000000000000081526004016118f6919061212c565b60405180910390fd5b81816040517f177e802f000000000000000000000000000000000000000000000000000000008152600401611935929190612a1a565b60405180910390fd5b505050565b61194d8383611b60565b611962611958610e00565b600085858561136a565b505050565b60606000600161197684611c59565b01905060008167ffffffffffffffff811115611995576119946121bd565b5b6040519080825280601f01601f1916602001820160405280156119c75781602001600182028036833780820191505090505b509050600082602083010190505b600115611a2a578080600190039150507f3031323334353637383961626364656600000000000000000000000000000000600a86061a8153600a8581611a1e57611a1d612a43565b5b049450600085036119d5575b819350505050919050565b60007f01ffc9a7000000000000000000000000000000000000000000000000000000007bffffffffffffffffffffffffffffffffffffffffffffffffffffffff1916827bffffffffffffffffffffffffffffffffffffffffffffffffffffffff1916149050919050565b60008073ffffffffffffffffffffffffffffffffffffffff168373ffffffffffffffffffffffffffffffffffffffff1614158015611b5757508273ffffffffffffffffffffffffffffffffffffffff168473ffffffffffffffffffffffffffffffffffffffff161480611b185750611b178484610bbd565b5b80611b5657508273ffffffffffffffffffffffffffffffffffffffff16611b3e83610dc3565b73ffffffffffffffffffffffffffffffffffffffff16145b5b90509392505050565b600073ffffffffffffffffffffffffffffffffffffffff168273ffffffffffffffffffffffffffffffffffffffff1603611bd25760006040517f64a0ae92000000000000000000000000000000000000000000000000000000008152600401611bc99190611fd1565b60405180910390fd5b6000611be083836000610e1a565b9050600073ffffffffffffffffffffffffffffffffffffffff168173ffffffffffffffffffffffffffffffffffffffff1614611c545760006040517f73c6ac6e000000000000000000000000000000000000000000000000000000008152600401611c4b9190611fd1565b60405180910390fd5b505050565b600080600090507a184f03e93ff9f4daa797ed6e38ed64bf6a1f0100000000000000008310611cb7577a184f03e93ff9f4daa797ed6e38ed64bf6a1f0100000000000000008381611cad57611cac612a43565b5b0492506040810190505b6d04ee2d6d415b85acef81000000008310611cf4576d04ee2d6d415b85acef81000000008381611cea57611ce9612a43565b5b0492506020810190505b662386f26fc100008310611d2357662386f26fc100008381611d1957611d18612a43565b5b0492506010810190505b6305f5e1008310611d4c576305f5e1008381611d4257611d41612a43565b5b0492506008810190505b6127108310611d71576127108381611d6757611d66612a43565b5b0492506004810190505b60648310611d945760648381611d8a57611d89612a43565b5b0492506002810190505b600a8310611da3576001810190505b80915050919050565b6000604051905090565b600080fd5b600080fd5b60007fffffffff0000000000000000000000000000000000000000000000000000000082169050919050565b611df581611dc0565b8114611e0057600080fd5b50565b600081359050611e1281611dec565b92915050565b600060208284031215611e2e57611e2d611db6565b5b6000611e3c84828501611e03565b91505092915050565b60008115159050919050565b611e5a81611e45565b82525050565b6000602082019050611e756000830184611e51565b92915050565b600081519050919050565b600082825260208201905092915050565b60005b83811015611eb5578082015181840152602081019050611e9a565b60008484015250505050565b6000601f19601f8301169050919050565b6000611edd82611e7b565b611ee78185611e86565b9350611ef7818560208601611e97565b611f0081611ec1565b840191505092915050565b60006020820190508181036000830152611f258184611ed2565b905092915050565b6000819050919050565b611f4081611f2d565b8114611f4b57600080fd5b50565b600081359050611f5d81611f37565b92915050565b600060208284031215611f7957611f78611db6565b5b6000611f8784828501611f4e565b91505092915050565b600073ffffffffffffffffffffffffffffffffffffffff82169050919050565b6000611fbb82611f90565b9050919050565b611fcb81611fb0565b82525050565b6000602082019050611fe66000830184611fc2565b92915050565b611ff581611fb0565b811461200057600080fd5b50565b60008135905061201281611fec565b92915050565b6000806040838503121561202f5761202e611db6565b5b600061203d85828601612003565b925050602061204e85828601611f4e565b9150509250929050565b60008060006060848603121561207157612070611db6565b5b600061207f86828701612003565b935050602061209086828701612003565b92505060406120a186828701611f4e565b9150509250925092565b6120b481611f2d565b82525050565b600060608201905081810360008301526120d48186611ed2565b905081810360208301526120e88185611ed2565b90506120f760408301846120ab565b949350505050565b60006020828403121561211557612114611db6565b5b600061212384828501612003565b91505092915050565b600060208201905061214160008301846120ab565b92915050565b61215081611e45565b811461215b57600080fd5b50565b60008135905061216d81612147565b92915050565b6000806040838503121561218a57612189611db6565b5b600061219885828601612003565b92505060206121a98582860161215e565b9150509250929050565b600080fd5b600080fd5b7f4e487b7100000000000000000000000000000000000000000000000000000000600052604160045260246000fd5b6121f582611ec1565b810181811067ffffffffffffffff82111715612214576122136121bd565b5b80604052505050565b6000612227611dac565b905061223382826121ec565b919050565b600067ffffffffffffffff821115612253576122526121bd565b5b61225c82611ec1565b9050602081019050919050565b82818337600083830152505050565b600061228b61228684612238565b61221d565b9050828152602081018484840111156122a7576122a66121b8565b5b6122b2848285612269565b509392505050565b600082601f8301126122cf576122ce6121b3565b5b81356122df848260208601612278565b91505092915050565b600080600080600060a0868803121561230457612303611db6565b5b600061231288828901612003565b955050602086013567ffffffffffffffff81111561233357612332611dbb565b5b61233f888289016122ba565b945050604086013567ffffffffffffffff8111156123605761235f611dbb565b5b61236c888289016122ba565b935050606086013567ffffffffffffffff81111561238d5761238c611dbb565b5b612399888289016122ba565b92505060806123aa88828901611f4e565b9150509295509295909350565b600067ffffffffffffffff8211156123d2576123d16121bd565b5b6123db82611ec1565b9050602081019050919050565b60006123fb6123f6846123b7565b61221d565b905082815260208101848484011115612417576124166121b8565b5b612422848285612269565b509392505050565b600082601f83011261243f5761243e6121b3565b5b813561244f8482602086016123e8565b91505092915050565b6000806000806080858703121561247257612471611db6565b5b600061248087828801612003565b945050602061249187828801612003565b93505060406124a287828801611f4e565b925050606085013567ffffffffffffffff8111156124c3576124c2611dbb565b5b6124cf8782880161242a565b91505092959194509250565b600080604083850312156124f2576124f1611db6565b5b600061250085828601612003565b925050602061251185828601612003565b9150509250929050565b7f4e487b7100000000000000000000000000000000000000000000000000000000600052602260045260246000fd5b6000600282049050600182168061256257607f821691505b6020821081036125755761257461251b565b5b50919050565b60006060820190506125906000830186611fc2565b61259d60208301856120ab565b6125aa6040830184611fc2565b949350505050565b7f4e487b7100000000000000000000000000000000000000000000000000000000600052601160045260246000fd5b60006125ec82611f2d565b91507fffffffffffffffffffffffffffffffffffffffffffffffffffffffffffffffff820361261e5761261d6125b2565b5b600182019050919050565b60008190508160005260206000209050919050565b60006020601f8301049050919050565b600082821b905092915050565b60006008830261268b7fffffffffffffffffffffffffffffffffffffffffffffffffffffffffffffffff8261264e565b612695868361264e565b95508019841693508086168417925050509392505050565b6000819050919050565b60006126d26126cd6126c884611f2d565b6126ad565b611f2d565b9050919050565b6000819050919050565b6126ec836126b7565b6127006126f8826126d9565b84845461265b565b825550505050565b600090565b612715612708565b6127208184846126e3565b505050565b5b818110156127445761273960008261270d565b600181019050612726565b5050565b601f8211156127895761275a81612629565b6127638461263e565b81016020851015612772578190505b61278661277e8561263e565b830182612725565b50505b505050565b600082821c905092915050565b60006127ac6000198460080261278e565b1980831691505092915050565b60006127c5838361279b565b9150826002028217905092915050565b6127de82611e7b565b67ffffffffffffffff8111156127f7576127f66121bd565b5b612801825461254a565b61280c828285612748565b600060209050601f83116001811461283f576000841561282d578287015190505b61283785826127b9565b86555061289f565b601f19841661284d86612629565b60005b8281101561287557848901518255600182019150602085019450602081019050612850565b86831015612892578489015161288e601f89168261279b565b8355505b6001600288020188555050505b505050505050565b600060408201905081810360008301526128c18185611ed2565b90506128d060208301846120ab565b9392505050565b600081905092915050565b60006128ed82611e7b565b6128f781856128d7565b9350612907818560208601611e97565b80840191505092915050565b600061291f82856128e2565b915061292b82846128e2565b91508190509392505050565b600081519050919050565b600082825260208201905092915050565b600061295e82612937565b6129688185612942565b9350612978818560208601611e97565b61298181611ec1565b840191505092915050565b60006080820190506129a16000830187611fc2565b6129ae6020830186611fc2565b6129bb60408301856120ab565b81810360608301526129cd8184612953565b905095945050505050565b6000815190506129e781611dec565b92915050565b600060208284031215612a0357612a02611db6565b5b6000612a11848285016129d8565b91505092915050565b6000604082019050612a2f6000830185611fc2565b612a3c60208301846120ab565b9392505050565b7f4e487b7100000000000000000000000000000000000000000000000000000000600052601260045260246000fdfea2646970667358221220b23378fae36834ac3a31d211a4bc732308c961110c0bb47ec07430dcc03585d664736f6c63430008180033",
  "linkReferences": {},
  "deployedLinkReferences": {}
}