{
  "_format": "hh-sol-artifact-1",
  "contractName": "PokemonMarketplace",
  "sourceName": "contracts/PokemonMarketplace.sol",
  "abi": [
    {
      "inputs": [
        {
          "internalType": "address",
          "name": "_nftContract",
          "type": "address"
        }
      ],
      "stateMutability": "nonpayable",
      "type": "constructor"
    },
    {
      "inputs": [],
      "name": "EnforcedPause",
      "type": "error"
    },
    {
      "inputs": [],
      "name": "ExpectedPause",
      "type": "error"
    },
    {
      "inputs": [
        {
          "internalType": "address",
          "name": "owner",
          "type": "address"
        }
      ],
      "name": "OwnableInvalidOwner",
      "type": "error"
    },
    {
      "inputs": [
        {
          "internalType": "address",
          "name": "account",
          "type": "address"
        }
      ],
      "name": "OwnableUnauthorizedAccount",
      "type": "error"
    },
    {
      "inputs": [],
      "name": "ReentrancyGuardReentrantCall",
      "type": "error"
    },
    {
      "anonymous": false,
      "inputs": [
        {
          "indexed": true,
          "internalType": "uint256",
          "name": "tokenId",
          "type": "uint256"
        },
        {
          "indexed": true,
          "internalType": "address",
          "name": "winner",
          "type": "address"
        },
        {
          "indexed": false,
          "internalType": "uint256",
          "name": "amount",
          "type": "uint256"
        }
      ],
      "name": "AuctionEnded",
      "type": "event"
    },
    {
      "anonymous": false,
      "inputs": [
        {
          "indexed": true,
          "internalType": "uint256",
          "name": "tokenId",
          "type": "uint256"
        },
        {
          "indexed": true,
          "internalType": "address",
          "name": "seller",
          "type": "address"
        },
        {
          "indexed": false,
          "internalType": "uint256",
          "name": "price",
          "type": "uint256"
        },
        {
          "indexed": false,
          "internalType": "bool",
          "name": "isAuction",
          "type": "bool"
        }
      ],
      "name": "ItemListed",
      "type": "event"
    },
    {
      "anonymous": false,
      "inputs": [
        {
          "indexed": true,
          "internalType": "uint256",
          "name": "tokenId",
          "type": "uint256"
        },
        {
          "indexed": true,
          "internalType": "address",
          "name": "buyer",
          "type": "address"
        },
        {
          "indexed": false,
          "internalType": "uint256",
          "name": "price",
          "type": "uint256"
        }
      ],
      "name": "ItemSold",
      "type": "event"
    },
    {
      "anonymous": false,
      "inputs": [
        {
          "indexed": true,
          "internalType": "uint256",
          "name": "tokenId",
          "type": "uint256"
        },
        {
          "indexed": true,
          "internalType": "address",
          "name": "seller",
          "type": "address"
        }
      ],
      "name": "ListingCancelled",
      "type": "event"
    },
    {
      "anonymous": false,
      "inputs": [
        {
          "indexed": true,
          "internalType": "uint256",
          "name": "tokenId",
          "type": "uint256"
        },
        {
          "indexed": true,
          "internalType": "address",
          "name": "bidder",
          "type": "address"
        },
        {
          "indexed": false,
          "internalType": "uint256",
          "name": "amount",
          "type": "uint256"
        }
      ],
      "name": "NewBid",
      "type": "event"
    },
    {
      "anonymous": false,
      "inputs": [
        {
          "indexed": true,
          "internalType": "address",
          "name": "previousOwner",
          "type": "address"
        },
        {
          "indexed": true,
          "internalType": "address",
          "name": "newOwner",
          "type": "address"
        }
      ],
      "name": "OwnershipTransferred",
      "type": "event"
    },
    {
      "anonymous": false,
      "inputs": [
        {
          "indexed": false,
          "internalType": "address",
          "name": "account",
          "type": "address"
        }
      ],
      "name": "Paused",
      "type": "event"
    },
    {
      "anonymous": false,
      "inputs": [
        {
          "indexed": true,
          "internalType": "uint256",
          "name": "swapId",
          "type": "uint256"
        }
      ],
      "name": "SwapCancelled",
      "type": "event"
    },
    {
      "anonymous": false,
      "inputs": [
        {
          "indexed": true,
          "internalType": "uint256",
          "name": "swapId",
          "type": "uint256"
        },
        {
          "indexed": true,
          "internalType": "address",
          "name": "responder",
          "type": "address"
        }
      ],
      "name": "SwapCompleted",
      "type": "event"
    },
    {
      "anonymous": false,
      "inputs": [
        {
          "indexed": true,
          "internalType": "uint256",
          "name": "swapId",
          "type": "uint256"
        },
        {
          "indexed": true,
          "internalType": "address",
          "name": "owner",
          "type": "address"
        },
        {
          "indexed": true,
          "internalType": "address",
          "name": "counterparty",
          "type": "address"
        },
        {
          "indexed": false,
          "internalType": "uint256[]",
          "name": "offeredIds",
          "type": "uint256[]"
        },
        {
          "indexed": false,
          "internalType": "uint256[]",
          "name": "desiredIds",
          "type": "uint256[]"
        }
      ],
      "name": "SwapCreated",
      "type": "event"
    },
    {
      "anonymous": false,
      "inputs": [
        {
          "indexed": false,
          "internalType": "address",
          "name": "account",
          "type": "address"
        }
      ],
      "name": "Unpaused",
      "type": "event"
    },
    {
      "inputs": [
        {
          "internalType": "uint256",
          "name": "tokenId",
          "type": "uint256"
        }
      ],
      "name": "bid",
      "outputs": [],
      "stateMutability": "payable",
      "type": "function"
    },
    {
      "inputs": [
        {
          "internalType": "uint256",
          "name": "tokenId",
          "type": "uint256"
        }
      ],
      "name": "buyCard",
      "outputs": [],
      "stateMutability": "payable",
      "type": "function"
    },
    {
      "inputs": [
        {
          "internalType": "uint256",
          "name": "tokenId",
          "type": "uint256"
        }
      ],
      "name": "cancelListing",
      "outputs": [],
      "stateMutability": "nonpayable",
      "type": "function"
    },
    {
      "inputs": [
        {
          "internalType": "uint256",
          "name": "swapId",
          "type": "uint256"
        }
      ],
      "name": "cancelSwap",
      "outputs": [],
      "stateMutability": "nonpayable",
      "type": "function"
    },
    {
      "inputs": [
        {
          "internalType": "uint256[]",
          "name": "_offeredTokenIds",
          "type": "uint256[]"
        },
        {
          "internalType": "uint256[]",
          "name": "_desiredTokenIds",
          "type": "uint256[]"
        },
        {
          "internalType": "address",
          "name": "_counterparty",
          "type": "address"
        }
      ],
      "name": "createSwapOffer",
      "outputs": [],
      "stateMutability": "nonpayable",
      "type": "function"
    },
    {
      "inputs": [
        {
          "internalType": "uint256",
          "name": "tokenId",
          "type": "uint256"
        }
      ],
      "name": "endAuction",
      "outputs": [],
      "stateMutability": "nonpayable",
      "type": "function"
    },
    {
      "inputs": [
        {
          "internalType": "uint256",
          "name": "swapId",
          "type": "uint256"
        }
      ],
      "name": "executeSwap",
      "outputs": [],
      "stateMutability": "nonpayable",
      "type": "function"
    },
    {
      "inputs": [
        {
          "internalType": "uint256",
          "name": "_swapId",
          "type": "uint256"
        }
      ],
      "name": "getSwapOffer",
      "outputs": [
        {
          "components": [
            {
              "internalType": "address",
              "name": "owner",
              "type": "address"
            },
            {
              "internalType": "address",
              "name": "counterparty",
              "type": "address"
            },
            {
              "internalType": "uint256[]",
              "name": "offeredTokenIds",
              "type": "uint256[]"
            },
            {
              "internalType": "uint256[]",
              "name": "desiredTokenIds",
              "type": "uint256[]"
            },
            {
              "internalType": "bool",
              "name": "active",
              "type": "bool"
            }
          ],
          "internalType": "struct PokemonMarketplace.SwapOffer",
          "name": "",
          "type": "tuple"
        }
      ],
      "stateMutability": "view",
      "type": "function"
    },
    {
      "inputs": [
        {
          "internalType": "uint256",
          "name": "tokenId",
          "type": "uint256"
        },
        {
          "internalType": "uint256",
          "name": "price",
          "type": "uint256"
        },
        {
          "internalType": "bool",
          "name": "isAuction",
          "type": "bool"
        },
        {
          "internalType": "uint256",
          "name": "durationInSeconds",
          "type": "uint256"
        }
      ],
      "name": "listCard",
      "outputs": [],
      "stateMutability": "nonpayable",
      "type": "function"
    },
    {
      "inputs": [
        {
          "internalType": "uint256",
          "name": "",
          "type": "uint256"
        }
      ],
      "name": "listings",
      "outputs": [
        {
          "internalType": "address",
          "name": "seller",
          "type": "address"
        },
        {
          "internalType": "uint256",
          "name": "price",
          "type": "uint256"
        },
        {
          "internalType": "bool",
          "name": "isAuction",
          "type": "bool"
        },
        {
          "internalType": "uint256",
          "name": "endTime",
          "type": "uint256"
        },
        {
          "internalType": "address",
          "name": "highestBidder",
          "type": "address"
        },
        {
          "internalType": "uint256",
          "name": "highestBid",
          "type": "uint256"
        },
        {
          "internalType": "bool",
          "name": "active",
          "type": "bool"
        }
      ],
      "stateMutability": "view",
      "type": "function"
    },
    {
      "inputs": [],
      "name": "nftContract",
      "outputs": [
        {
          "internalType": "contract IERC721",
          "name": "",
          "type": "address"
        }
      ],
      "stateMutability": "view",
      "type": "function"
    },
    {
      "inputs": [],
      "name": "owner",
      "outputs": [
        {
          "internalType": "address",
          "name": "",
          "type": "address"
        }
      ],
      "stateMutability": "view",
      "type": "function"
    },
    {
      "inputs": [],
      "name": "pause",
      "outputs": [],
      "stateMutability": "nonpayable",
      "type": "function"
    },
    {
      "inputs": [],
      "name": "paused",
      "outputs": [
        {
          "internalType": "bool",
          "name": "",
          "type": "bool"
        }
      ],
      "stateMutability": "view",
      "type": "function"
    },
    {
      "inputs": [
        {
          "internalType": "address",
          "name": "",
          "type": "address"
        }
      ],
      "name": "pendingWithdrawals",
      "outputs": [
        {
          "internalType": "uint256",
          "name": "",
          "type": "uint256"
        }
      ],
      "stateMutability": "view",
      "type": "function"
    },
    {
      "inputs": [],
      "name": "renounceOwnership",
      "outputs": [],
      "stateMutability": "nonpayable",
      "type": "function"
    },
    {
      "inputs": [],
      "name": "swapCounter",
      "outputs": [
        {
          "internalType": "uint256",
          "name": "",
          "type": "uint256"
        }
      ],
      "stateMutability": "view",
      "type": "function"
    },
    {
      "inputs": [
        {
          "internalType": "uint256",
          "name": "",
          "type": "uint256"
        }
      ],
      "name": "swapOffers",
      "outputs": [
        {
          "internalType": "address",
          "name": "owner",
          "type": "address"
        },
        {
          "internalType": "address",
          "name": "counterparty",
          "type": "address"
        },
        {
          "internalType": "bool",
          "name": "active",
          "type": "bool"
        }
      ],
      "stateMutability": "view",
      "type": "function"
    },
    {
      "inputs": [
        {
          "internalType": "address",
          "name": "newOwner",
          "type": "address"
        }
      ],
      "name": "transferOwnership",
      "outputs": [],
      "stateMutability": "nonpayable",
      "type": "function"
    },
    {
      "inputs": [],
      "name": "unpause",
      "outputs": [],
      "stateMutability": "nonpayable",
      "type": "function"
    },
    {
      "inputs": [],
      "name": "withdraw",
      "outputs": [],
      "stateMutability": "nonpayable",
      "type": "function"
    }
  ],
  "bytecode": "0x60806040523480156200001157600080fd5b5060405162004ca038038062004ca083398181016040528101906200003791906200027a565b336001600081905550600073ffffffffffffffffffffffffffffffffffffffff168173ffffffffffffffffffffffffffffffffffffffff1603620000b55760006040517f1e4fbdf7000000000000000000000000000000000000000000000000000000008152600401620000ac9190620002bd565b60405180910390fd5b620000c6816200014760201b60201c565b50620000e367cae1d4ebc941bfd960c01b6200020d60201b60201c565b620000ff67025b26bf6b2c5cbc60c01b6200020d60201b60201c565b80600260006101000a81548173ffffffffffffffffffffffffffffffffffffffff021916908373ffffffffffffffffffffffffffffffffffffffff16021790555050620002da565b6000600160009054906101000a900473ffffffffffffffffffffffffffffffffffffffff16905081600160006101000a81548173ffffffffffffffffffffffffffffffffffffffff021916908373ffffffffffffffffffffffffffffffffffffffff1602179055508173ffffffffffffffffffffffffffffffffffffffff168173ffffffffffffffffffffffffffffffffffffffff167f8be0079c531659141344cd1fd0a4f28419497f9722a3daafe3b4186f6b6457e060405160405180910390a35050565b50565b600080fd5b600073ffffffffffffffffffffffffffffffffffffffff82169050919050565b6000620002428262000215565b9050919050565b620002548162000235565b81146200026057600080fd5b50565b600081519050620002748162000249565b92915050565b60006020828403121562000293576200029262000210565b5b6000620002a38482850162000263565b91505092915050565b620002b78162000235565b82525050565b6000602082019050620002d46000830184620002ac565b92915050565b6149b680620002ea6000396000f3fe60806040526004361061012a5760003560e01c80638456cb59116100ab578063b9c52fcc1161006f578063b9c52fcc1461035d578063c70f5eaa1461039a578063d56d229d146103b6578063de74e57b146103e1578063f2fde38b14610424578063f3f437031461044d5761012a565b80638456cb591461028a5780638da5cb5b146102a1578063a13f1c62146102cc578063a9ab232b1461030b578063b9a2de3a146103345761012a565b80633f4ba83a116100f25780633f4ba83a146101ec578063454a2ab31461020357806354d6a2b71461021f5780635c975abb14610248578063715018a6146102735761012a565b80631e268d881461012f5780632b3c65c314610158578063305a67a81461018157806333bce8c3146101aa5780633ccfd60b146101d5575b600080fd5b34801561013b57600080fd5b5061015660048036038101906101519190613adb565b61048a565b005b34801561016457600080fd5b5061017f600480360381019061017a9190613c05565b6108ca565b005b34801561018d57600080fd5b506101a860048036038101906101a39190613c9a565b610ded565b005b3480156101b657600080fd5b506101bf611289565b6040516101cc9190613cd6565b60405180910390f35b3480156101e157600080fd5b506101ea61128f565b005b3480156101f857600080fd5b5061020161158b565b005b61021d60048036038101906102189190613c9a565b611601565b005b34801561022b57600080fd5b5061024660048036038101906102419190613c9a565b611c09565b005b34801561025457600080fd5b5061025d611ff2565b60405161026a9190613d00565b60405180910390f35b34801561027f57600080fd5b50610288612009565b005b34801561029657600080fd5b5061029f61201d565b005b3480156102ad57600080fd5b506102b6612093565b6040516102c39190613d2a565b60405180910390f35b3480156102d857600080fd5b506102f360048036038101906102ee9190613c9a565b6120bd565b60405161030293929190613d45565b60405180910390f35b34801561031757600080fd5b50610332600480360381019061032d9190613c9a565b612134565b005b34801561034057600080fd5b5061035b60048036038101906103569190613c9a565b612727565b005b34801561036957600080fd5b50610384600480360381019061037f9190613c9a565b612e1a565b6040516103919190613ed5565b60405180910390f35b6103b460048036038101906103af9190613c9a565b612ffa565b005b3480156103c257600080fd5b506103cb61353c565b6040516103d89190613f56565b60405180910390f35b3480156103ed57600080fd5b5061040860048036038101906104039190613c9a565b613562565b60405161041b9796959493929190613f71565b60405180910390f35b34801561043057600080fd5b5061044b60048036038101906104469190613fe0565b6135fe565b005b34801561045957600080fd5b50610474600480360381019061046f9190613fe0565b613684565b6040516104819190613cd6565b60405180910390f35b61049e672a4a0b18c4c3704f60c01b61369c565b6104a661369f565b6104ba676621892fb74b82bb60c01b61369c565b6104ce67e24479d2f593853060c01b61369c565b6104d66136e5565b6104ea673e64c0b92641ffae60c01b61369c565b6104fe672917f52702a428b160c01b61369c565b610512676d766321f58ea6a660c01b61369c565b61052667f86975d1edbd870e60c01b61369c565b61053a6705fbd46efe339deb60c01b61369c565b6000831161057d576040517f08c379a00000000000000000000000000000000000000000000000000000000081526004016105749061406a565b60405180910390fd5b6105916764ec2f37a03da2da60c01b61369c565b6105a5679cf5e69e5c5a7da460c01b61369c565b6105b967d7b2162e2a3da0a960c01b61369c565b600260009054906101000a900473ffffffffffffffffffffffffffffffffffffffff1673ffffffffffffffffffffffffffffffffffffffff166323b872dd3330876040518463ffffffff1660e01b81526004016106189392919061408a565b600060405180830381600087803b15801561063257600080fd5b505af1158015610646573d6000803e3d6000fd5b5050505061065e67de385bd96b169e7860c01b61369c565b6106726737c8163f9102de1160c01b61369c565b60008280610690575061068f6715c171ade34054fb60c01b613726565b5b80156106ac57506106ab678c399ad7fb318ca660c01b61372d565b5b6106b75760006106c4565b81426106c391906140f0565b5b90506106da67a53a5333c826fcd060c01b61369c565b6040518060e001604052803373ffffffffffffffffffffffffffffffffffffffff1681526020018581526020018415158152602001828152602001600073ffffffffffffffffffffffffffffffffffffffff16815260200160008152602001600115158152506003600087815260200190815260200160002060008201518160000160006101000a81548173ffffffffffffffffffffffffffffffffffffffff021916908373ffffffffffffffffffffffffffffffffffffffff1602179055506020820151816001015560408201518160020160006101000a81548160ff0219169083151502179055506060820151816003015560808201518160040160006101000a81548173ffffffffffffffffffffffffffffffffffffffff021916908373ffffffffffffffffffffffffffffffffffffffff16021790555060a0820151816005015560c08201518160060160006101000a81548160ff02191690831515021790555090505061085667b090f1928d73270360c01b61369c565b61086a67f2e0b5a33a3eb9b460c01b61369c565b3373ffffffffffffffffffffffffffffffffffffffff16857fde26dae6625b1e67b90231db575f3aea0809a265b75b7f6aef09e9b73f19f0a186866040516108b3929190614124565b60405180910390a3506108c4613738565b50505050565b6108de67d9fcd0888e01628660c01b61369c565b6108e661369f565b6108fa67011fe64e9e346b9060c01b61369c565b61090e6717e82edcf24d0b1b60c01b61369c565b6109166136e5565b61092a6790cf243dffa040ae60c01b61369c565b61093e67e5c91fa95b3c42d760c01b61369c565b610952675b8b57a6a972a64660c01b61369c565b61096667639b407f2d7fd16460c01b61369c565b61097a673c7c5a3c2ebd496d60c01b61369c565b60008585905011801561099d575061099c67bc758bf08213523d60c01b61372d565b5b806109c757506000838390501180156109c657506109c567abb9a8d924999d9c60c01b61372d565b5b5b610a06576040517f08c379a00000000000000000000000000000000000000000000000000000000081526004016109fd90614199565b60405180910390fd5b610a1a67163cd83fbccfe6e060c01b61369c565b610a2e67744b4dfb71e9da1b60c01b61369c565b610a4267dc8ee1023accd81760c01b61369c565b60005b85859050811015610b2f57610a64672f0f46492be1e89760c01b61369c565b610a78671376e4bd9c01ba5360c01b61369c565b600260009054906101000a900473ffffffffffffffffffffffffffffffffffffffff1673ffffffffffffffffffffffffffffffffffffffff166323b872dd3330898986818110610acb57610aca6141b9565b5b905060200201356040518463ffffffff1660e01b8152600401610af09392919061408a565b600060405180830381600087803b158015610b0a57600080fd5b505af1158015610b1e573d6000803e3d6000fd5b505050508080600101915050610a45565b50610b44676b87a46cb917a01760c01b61369c565b6040518060a001604052803373ffffffffffffffffffffffffffffffffffffffff1681526020018273ffffffffffffffffffffffffffffffffffffffff168152602001868680806020026020016040519081016040528093929190818152602001838360200280828437600081840152601f19601f820116905080830192505050505050508152602001848480806020026020016040519081016040528093929190818152602001838360200280828437600081840152601f19601f8201169050808301925050505050505081526020016001151581525060056000600654815260200190815260200160002060008201518160000160006101000a81548173ffffffffffffffffffffffffffffffffffffffff021916908373ffffffffffffffffffffffffffffffffffffffff16021790555060208201518160010160006101000a81548173ffffffffffffffffffffffffffffffffffffffff021916908373ffffffffffffffffffffffffffffffffffffffff1602179055506040820151816002019080519060200190610cdb92919061399c565b506060820151816003019080519060200190610cf892919061399c565b5060808201518160040160006101000a81548160ff021916908315150217905550905050610d3067ba72da3c0eb9484560c01b61369c565b610d44679289a3c5b5ecac9c60c01b61369c565b8073ffffffffffffffffffffffffffffffffffffffff163373ffffffffffffffffffffffffffffffffffffffff166006547f3de13318be2b735f2bcd30511bc7d0705cdb59d81fc79bb7bf5b140a06db503088888888604051610daa9493929190614263565b60405180910390a4610dc667e0b5771ae739ea4360c01b61369c565b60066000815480929190610dd99061429e565b9190505550610de6613738565b5050505050565b610e01674ad18e209b9467a160c01b61369c565b610e0961369f565b610e1d674cb3c29f606ec60c60c01b61369c565b610e316788c5081bbb74d7dc60c01b61369c565b610e396136e5565b610e4d6711647496ecf3c7e760c01b61369c565b610e6167f83a0511463fea2b60c01b61369c565b610e7567fc7c348ea8383a3760c01b61369c565b610e89671a42afaef47caec260c01b61369c565b6000600360008381526020019081526020016000209050610eb467ffd7a61143c4b42d60c01b61369c565b610ec8678965c62c8af9e9ad60c01b61369c565b610edc67d0cac82fa71a7b0260c01b61369c565b8060060160009054906101000a900460ff16610f2d576040517f08c379a0000000000000000000000000000000000000000000000000000000008152600401610f2490614332565b60405180910390fd5b610f4167a0fce07ef03530f760c01b61369c565b610f55678bcd0a6dc0647e8a60c01b61369c565b610f69678c1b1c80692c595d60c01b61369c565b610f7d677bdcec594e2c187360c01b61369c565b3373ffffffffffffffffffffffffffffffffffffffff168160000160009054906101000a900473ffffffffffffffffffffffffffffffffffffffff1673ffffffffffffffffffffffffffffffffffffffff161461100f576040517f08c379a00000000000000000000000000000000000000000000000000000000081526004016110069061439e565b60405180910390fd5b61102367e651215470bc907660c01b61369c565b6110376723a73eb514fa8ffa60c01b61369c565b61104b6729a39ead3ae84d4760c01b61369c565b8060020160009054906101000a900460ff161561111257611076674a7c76fdab3f247d60c01b61369c565b61108a6796ab5213a6ce6e9960c01b61369c565b61109e6796cf787e35823e9160c01b61369c565b6110b2679957e8f18f1424d060c01b61369c565b60008160050154146110f9576040517f08c379a00000000000000000000000000000000000000000000000000000000081526004016110f09061440a565b60405180910390fd5b61110d67a6aeb3e480e7d2d460c01b61369c565b611127565b611126677ae19d4adb80f64160c01b61369c565b5b61113b670f1871ac4f78ac6060c01b61369c565b60008160060160006101000a81548160ff02191690831515021790555061116c67ac3df2a55255320160c01b61369c565b6111806720baae262a77a20060c01b61369c565b600260009054906101000a900473ffffffffffffffffffffffffffffffffffffffff1673ffffffffffffffffffffffffffffffffffffffff166323b872dd3033856040518463ffffffff1660e01b81526004016111df9392919061408a565b600060405180830381600087803b1580156111f957600080fd5b505af115801561120d573d6000803e3d6000fd5b5050505061122567d850d1f8cec5b0fa60c01b61369c565b6112396740d05786e43a6ce060c01b61369c565b3373ffffffffffffffffffffffffffffffffffffffff16827f8e25282255ab31897df2b0456bb993ac7f84d376861aefd84901d2d63a7428a260405160405180910390a350611286613738565b50565b60065481565b6112a367b1b311118b679c3d60c01b61369c565b6112ab61369f565b6112bf679aad17449931e90c60c01b61369c565b6112d367103ff4070095de2d60c01b61369c565b6112db6136e5565b6112ef670ea13163b1572ec660c01b61369c565b611303675ce01c39189f69b560c01b61369c565b611317670bae8e9ab1a2459060c01b61369c565b61132b67819f51d179d9d9e160c01b61369c565b6000600460003373ffffffffffffffffffffffffffffffffffffffff1673ffffffffffffffffffffffffffffffffffffffff168152602001908152602001600020549050611383677ccc8a01b24479ad60c01b61369c565b61139767e00a0c04c2bfef9460c01b61369c565b6113ab678c39ad8107b0fb8760c01b61369c565b600081116113ee576040517f08c379a00000000000000000000000000000000000000000000000000000000081526004016113e590614476565b60405180910390fd5b61140267be50fd6c1af6a13e60c01b61369c565b6114166781e671271809685a60c01b61369c565b6000600460003373ffffffffffffffffffffffffffffffffffffffff1673ffffffffffffffffffffffffffffffffffffffff1681526020019081526020016000208190555061146f67772c32ad836eaf7460c01b61369c565b6114836791582c87e2a4593f60c01b61369c565b60003373ffffffffffffffffffffffffffffffffffffffff16826040516114a9906144c7565b60006040518083038185875af1925050503d80600081146114e6576040519150601f19603f3d011682016040523d82523d6000602084013e6114eb565b606091505b50509050611503679822409d3a2f1b4b60c01b61369c565b6115176744092972637fb8e160c01b61369c565b61152b675c32aee289da3aab60c01b61369c565b8061156b576040517f08c379a000000000000000000000000000000000000000000000000000000000815260040161156290614528565b60405180910390fd5b61157f67887266e106022ba460c01b61369c565b5050611589613738565b565b61159f67ca9bd4134d4c78c360c01b61369c565b6115a7613742565b6115bb67a5bc27f95a6bd2e760c01b61369c565b6115cf67b37c91b9f4bf9c1560c01b61369c565b6115e3670f67fb60473e43a060c01b61369c565b6115f767ed0da06429790b9460c01b61369c565b6115ff6137c9565b565b611615673e0db18faf592b6760c01b61369c565b61161d61369f565b6116316722cd728b330d213560c01b61369c565b61164567edb5c3faff55bdcb60c01b61369c565b61164d6136e5565b61166167be5b7474ae13c7b860c01b61369c565b61167567ff8e4a18f07b6a6660c01b61369c565b6116896789f7e7431938357b60c01b61369c565b61169d67fb1ec996e42046e260c01b61369c565b60006003600083815260200190815260200160002090506116c867f4c4f234d4006bda60c01b61369c565b6116dc67ffa705bf3e32f15660c01b61369c565b6116f067442964aac379cb9d60c01b61369c565b8060060160009054906101000a900460ff16801561171c57508060020160009054906101000a900460ff165b61175b576040517f08c379a000000000000000000000000000000000000000000000000000000000815260040161175290614594565b60405180910390fd5b61176f67afe40a44c64a525260c01b61369c565b61178367c8c45518fdc8968960c01b61369c565b6117976753e9cb438a1251c660c01b61369c565b6117ab675bd66a8c1f41b88c60c01b61369c565b806003015442106117f1576040517f08c379a00000000000000000000000000000000000000000000000000000000081526004016117e890614600565b60405180910390fd5b61180567c3e6db977287571960c01b61369c565b61181967ba858dc07f96596a60c01b61369c565b61182d67b4e089cc1eeade9160c01b61369c565b61184167a81a8f0e70baa3fd60c01b61369c565b8060010154341180156118575750806005015434115b611896576040517f08c379a000000000000000000000000000000000000000000000000000000000815260040161188d9061466c565b60405180910390fd5b6118aa673af85debca79d54a60c01b61369c565b6118be673d0133ff7daaa39560c01b61369c565b6118d267bc30199510bea68d60c01b61369c565b60008160040160009054906101000a900473ffffffffffffffffffffffffffffffffffffffff16905061190f674ee1d526db4926fe60c01b61369c565b611923677de68e3ecaf3de2d60c01b61369c565b60008260050154905061194067289386465280decd60c01b61369c565b338360040160006101000a81548173ffffffffffffffffffffffffffffffffffffffff021916908373ffffffffffffffffffffffffffffffffffffffff16021790555061199767a6662065fb6bd44960c01b61369c565b3483600501819055506119b467fc4e556e0378b06060c01b61369c565b6119c8679bf51733a6d6a70260c01b61369c565b600073ffffffffffffffffffffffffffffffffffffffff168273ffffffffffffffffffffffffffffffffffffffff1614611b6f57611a1067d70fa89cb4bdb88d60c01b61369c565b611a246703be3160c2dbc73160c01b61369c565b611a38677a3e5db70f84d57060c01b61369c565b60008273ffffffffffffffffffffffffffffffffffffffff1682604051611a5e906144c7565b60006040518083038185875af1925050503d8060008114611a9b576040519150601f19603f3d011682016040523d82523d6000602084013e611aa0565b606091505b50509050611ab867b3d18749376e2d9f60c01b61369c565b611acc67cc8b486714fe124660c01b61369c565b80611b5457611ae567b08de9b54036401160c01b61369c565b611af96701569983f5418d6d60c01b61369c565b81600460008573ffffffffffffffffffffffffffffffffffffffff1673ffffffffffffffffffffffffffffffffffffffff1681526020019081526020016000206000828254611b4891906140f0565b92505081905550611b69565b611b68675a146257425af4d660c01b61369c565b5b50611b84565b611b836731a4b78036b6dbd160c01b61369c565b5b611b986713a4bc4df3df71e360c01b61369c565b611bac67b28f91786245450960c01b61369c565b3373ffffffffffffffffffffffffffffffffffffffff16847f558a0d5d5468d74b0db24c74eb348b42271c2ebb4c9e953ced38aaed95fa436134604051611bf39190613cd6565b60405180910390a3505050611c06613738565b50565b611c1d67c9549bcc1f72fdfe60c01b61369c565b611c2561369f565b611c3967bdd81852bffda9cd60c01b61369c565b611c4d67f6b3a0f1810c410360c01b61369c565b611c556136e5565b611c6967a49382e52d3420b160c01b61369c565b611c7d67b603795cc016be6660c01b61369c565b611c9167e828ca4423f8e48660c01b61369c565b611ca567f37414be5c264c4b60c01b61369c565b6000600560008381526020019081526020016000209050611cd067fa04a068bafb285160c01b61369c565b611ce467b08e23a1d6afb74560c01b61369c565b611cf8673fe3d0a74c133ead60c01b61369c565b8060040160009054906101000a900460ff16611d49576040517f08c379a0000000000000000000000000000000000000000000000000000000008152600401611d40906146d8565b60405180910390fd5b611d5d677a70743efca2e47b60c01b61369c565b611d7167650ade8c04c629ae60c01b61369c565b611d8567102abb8b79eb654a60c01b61369c565b611d99670a3d4c4570d3d59660c01b61369c565b3373ffffffffffffffffffffffffffffffffffffffff168160000160009054906101000a900473ffffffffffffffffffffffffffffffffffffffff1673ffffffffffffffffffffffffffffffffffffffff1614611e2b576040517f08c379a0000000000000000000000000000000000000000000000000000000008152600401611e2290614744565b60405180910390fd5b611e3f6739002c875462a0c460c01b61369c565b611e536717a669363d6aa44f60c01b61369c565b611e676759a7ba45c9204c2860c01b61369c565b60005b8160020180549050811015611f5f57611e8d671caf22ae895674d060c01b61369c565b611ea16734831832ee5a973f60c01b61369c565b600260009054906101000a900473ffffffffffffffffffffffffffffffffffffffff1673ffffffffffffffffffffffffffffffffffffffff166323b872dd3033856002018581548110611ef757611ef66141b9565b5b90600052602060002001546040518463ffffffff1660e01b8152600401611f209392919061408a565b600060405180830381600087803b158015611f3a57600080fd5b505af1158015611f4e573d6000803e3d6000fd5b505050508080600101915050611e6a565b50611f746722a6cb3781767bd660c01b61369c565b60008160040160006101000a81548160ff021916908315150217905550611fa567af616431b869fd4960c01b61369c565b611fb967914e16a54808037a60c01b61369c565b817ff6b6b4f7a13f02512c1b3aa8dcc4a07d7775a6a4becbd439efcbd37c5408e67f60405160405180910390a250611fef613738565b50565b6000600160149054906101000a900460ff16905090565b612011613742565b61201b600061382c565b565b6120316762dcf433e1ef039c60c01b61369c565b612039613742565b61204d67310619b1501abce360c01b61369c565b61206167a257614f79a96f5960c01b61369c565b612075676c39655cd8ee060f60c01b61369c565b612089672423ec2d72b84dc560c01b61369c565b6120916138f2565b565b6000600160009054906101000a900473ffffffffffffffffffffffffffffffffffffffff16905090565b60056020528060005260406000206000915090508060000160009054906101000a900473ffffffffffffffffffffffffffffffffffffffff16908060010160009054906101000a900473ffffffffffffffffffffffffffffffffffffffff16908060040160009054906101000a900460ff16905083565b612148677fb61d65d4603a6c60c01b61369c565b61215061369f565b612164672f5f1424b18d73da60c01b61369c565b61217867a6c39eb763f7a6d160c01b61369c565b6121806136e5565b61219467a903c964fe43259160c01b61369c565b6121a86763bfc0e3411d640660c01b61369c565b6121bc67d4a3941342ceee6260c01b61369c565b6121d067cc1fb4ac060c0eb160c01b61369c565b60006005600083815260200190815260200160002090506121fb671854765b0701d85b60c01b61369c565b61220f671300797c3a843bef60c01b61369c565b6122236738cf5da25a48e4fe60c01b61369c565b8060040160009054906101000a900460ff16612274576040517f08c379a000000000000000000000000000000000000000000000000000000000815260040161226b906146d8565b60405180910390fd5b6122886721015abdc799d64d60c01b61369c565b61229c67718b3065311538ee60c01b61369c565b6122b067b4cde5f876746bf060c01b61369c565b600073ffffffffffffffffffffffffffffffffffffffff168160010160009054906101000a900473ffffffffffffffffffffffffffffffffffffffff1673ffffffffffffffffffffffffffffffffffffffff16146124035761231c6774b0271e0d1e8d5f60c01b61369c565b6123306701cb3da9008dd06b60c01b61369c565b61234467fbb89e32d2fbc9ea60c01b61369c565b6123586788692e8f025eda9660c01b61369c565b8060010160009054906101000a900473ffffffffffffffffffffffffffffffffffffffff1673ffffffffffffffffffffffffffffffffffffffff163373ffffffffffffffffffffffffffffffffffffffff16146123ea576040517f08c379a00000000000000000000000000000000000000000000000000000000081526004016123e1906147b0565b60405180910390fd5b6123fe67c0fad6523649ff0660c01b61369c565b612418565b612417671c2ab39910efa76b60c01b61369c565b5b61242c67dbd29ff9d775fa7f60c01b61369c565b6124406727e1566e6dfe804660c01b61369c565b60005b816003018054905081101561255c57612466671bdd396f2be4d46260c01b61369c565b61247a67f5be1a96b625624060c01b61369c565b600260009054906101000a900473ffffffffffffffffffffffffffffffffffffffff1673ffffffffffffffffffffffffffffffffffffffff166323b872dd338460000160009054906101000a900473ffffffffffffffffffffffffffffffffffffffff168560030185815481106124f4576124f36141b9565b5b90600052602060002001546040518463ffffffff1660e01b815260040161251d9392919061408a565b600060405180830381600087803b15801561253757600080fd5b505af115801561254b573d6000803e3d6000fd5b505050508080600101915050612443565b506125716799ed9397f1b2fb7b60c01b61369c565b612585679640c0de296f801d60c01b61369c565b60005b816002018054905081101561267d576125ab67bb12a32145903f9f60c01b61369c565b6125bf678a321dcd83ab4dde60c01b61369c565b600260009054906101000a900473ffffffffffffffffffffffffffffffffffffffff1673ffffffffffffffffffffffffffffffffffffffff166323b872dd3033856002018581548110612615576126146141b9565b5b90600052602060002001546040518463ffffffff1660e01b815260040161263e9392919061408a565b600060405180830381600087803b15801561265857600080fd5b505af115801561266c573d6000803e3d6000fd5b505050508080600101915050612588565b506126926701bc4164d2bec26b60c01b61369c565b60008160040160006101000a81548160ff0219169083151502179055506126c367e0917496a894d3ea60c01b61369c565b6126d767dce35c9ce2a062b960c01b61369c565b3373ffffffffffffffffffffffffffffffffffffffff16827f393e9e4b16bb0310a90c21f5a14d4320ed1cd5800ced3216d7351e0e5dacd35660405160405180910390a350612724613738565b50565b61273b677fdeedf86472164360c01b61369c565b61274361369f565b612757678798e28d29f490b560c01b61369c565b61276b6736ffebf881b5051260c01b61369c565b6127736136e5565b61278767f26141ffd21ce05060c01b61369c565b61279b6728c1ffb1d83af7a960c01b61369c565b6127af6782ee66021f7e3f7060c01b61369c565b6127c3673435e88fba6b73d160c01b61369c565b60006003600083815260200190815260200160002090506127ee67343c0ac6d0df2c9160c01b61369c565b61280267b950d0705e5f559860c01b61369c565b61281667cc861b9d0f2d033d60c01b61369c565b8060060160009054906101000a900460ff16801561284257508060020160009054906101000a900460ff165b612881576040517f08c379a00000000000000000000000000000000000000000000000000000000081526004016128789061481c565b60405180910390fd5b61289567694b987f130a897760c01b61369c565b6128a967a23550fc9f82e84f60c01b61369c565b6128bd6763922daaca5a61de60c01b61369c565b6128d16741858d446c8e6f6d60c01b61369c565b8060030154421015612918576040517f08c379a000000000000000000000000000000000000000000000000000000000815260040161290f90614888565b60405180910390fd5b61292c6715ae986a7d1ca24560c01b61369c565b61294067695e9993c4ea410a60c01b61369c565b60008160060160006101000a81548160ff02191690831515021790555061297167558a218f4442547e60c01b61369c565b61298567e8ac7eefc65ee11d60c01b61369c565b600073ffffffffffffffffffffffffffffffffffffffff168160040160009054906101000a900473ffffffffffffffffffffffffffffffffffffffff1673ffffffffffffffffffffffffffffffffffffffff1614612d1c576129f1671a1f2b62e2144ae960c01b61369c565b612a0567ad49f6fdb9fe054960c01b61369c565b612a1967f263adf2bd8b638e60c01b61369c565b60008160000160009054906101000a900473ffffffffffffffffffffffffffffffffffffffff1673ffffffffffffffffffffffffffffffffffffffff168260050154604051612a67906144c7565b60006040518083038185875af1925050503d8060008114612aa4576040519150601f19603f3d011682016040523d82523d6000602084013e612aa9565b606091505b50509050612ac1674a2d2cb562c325f160c01b61369c565b612ad5671446c5a8471992da60c01b61369c565b80612b8557612aee670402e2462d34153760c01b61369c565b612b0267273c5675e08d92b860c01b61369c565b8160050154600460008460000160009054906101000a900473ffffffffffffffffffffffffffffffffffffffff1673ffffffffffffffffffffffffffffffffffffffff1673ffffffffffffffffffffffffffffffffffffffff1681526020019081526020016000206000828254612b7991906140f0565b92505081905550612b9a565b612b9967ae9eb368aa9c9df960c01b61369c565b5b612bae677515a41586e8652160c01b61369c565b612bc2671e73c4573640db0960c01b61369c565b600260009054906101000a900473ffffffffffffffffffffffffffffffffffffffff1673ffffffffffffffffffffffffffffffffffffffff166323b872dd308460040160009054906101000a900473ffffffffffffffffffffffffffffffffffffffff16866040518463ffffffff1660e01b8152600401612c459392919061408a565b600060405180830381600087803b158015612c5f57600080fd5b505af1158015612c73573d6000803e3d6000fd5b50505050612c8b67d4daa1c1b43b00c060c01b61369c565b612c9f67db640a66370927c360c01b61369c565b8160040160009054906101000a900473ffffffffffffffffffffffffffffffffffffffff1673ffffffffffffffffffffffffffffffffffffffff16837fd2aa34a4fdbbc6dff6a3e56f46e0f3ae2a31d7785ff3487aa5c95c642acea5018460050154604051612d0e9190613cd6565b60405180910390a350612e0e565b612d30674224f8f3b90751b460c01b61369c565b612d446772567d46ac7c7b0860c01b61369c565b612d58671887c17b8ff7297960c01b61369c565b600260009054906101000a900473ffffffffffffffffffffffffffffffffffffffff1673ffffffffffffffffffffffffffffffffffffffff166323b872dd308360000160009054906101000a900473ffffffffffffffffffffffffffffffffffffffff16856040518463ffffffff1660e01b8152600401612ddb9392919061408a565b600060405180830381600087803b158015612df557600080fd5b505af1158015612e09573d6000803e3d6000fd5b505050505b50612e17613738565b50565b612e226139e9565b612e3667f7bc2990251e8d8d60c01b61369c565b612e4a67d1aef429f2d909c160c01b61369c565b612e5e675cb265632e2769f260c01b61369c565b600560008381526020019081526020016000206040518060a00160405290816000820160009054906101000a900473ffffffffffffffffffffffffffffffffffffffff1673ffffffffffffffffffffffffffffffffffffffff1673ffffffffffffffffffffffffffffffffffffffff1681526020016001820160009054906101000a900473ffffffffffffffffffffffffffffffffffffffff1673ffffffffffffffffffffffffffffffffffffffff1673ffffffffffffffffffffffffffffffffffffffff16815260200160028201805480602002602001604051908101604052809291908181526020018280548015612f7757602002820191906000526020600020905b815481526020019060010190808311612f63575b5050505050815260200160038201805480602002602001604051908101604052809291908181526020018280548015612fcf57602002820191906000526020600020905b815481526020019060010190808311612fbb575b505050505081526020016004820160009054906101000a900460ff1615151515815250509050919050565b61300e67aefde2860d75b95560c01b61369c565b61301661369f565b61302a67bbd02860952dc2db60c01b61369c565b61303e6787993b3ec1eff4d960c01b61369c565b6130466136e5565b61305a676caa7b90da10bcb960c01b61369c565b61306e67dbff334df0f769d460c01b61369c565b613082673dedaafa28fed7c860c01b61369c565b61309667f8c752b6fbaae45c60c01b61369c565b60006003600083815260200190815260200160002090506130c1674885b5b6cab3257960c01b61369c565b6130d56755d05aae3274ef2160c01b61369c565b6130e967693bf40727d6553460c01b61369c565b8060060160009054906101000a900460ff1661313a576040517f08c379a000000000000000000000000000000000000000000000000000000000815260040161313190614332565b60405180910390fd5b61314e67984b6bd7fa1de73b60c01b61369c565b61316267ce2c9229b1561fca60c01b61369c565b613176673aca933f3da6062f60c01b61369c565b61318a672bf0ba948c3ab85f60c01b61369c565b8060020160009054906101000a900460ff16156131dc576040517f08c379a00000000000000000000000000000000000000000000000000000000081526004016131d3906148f4565b60405180910390fd5b6131f067104a7332c8560cd560c01b61369c565b613204674e906cb1fe09afc160c01b61369c565b61321867e18775ab1133786e60c01b61369c565b61322c67cb2a8ef740d1f08460c01b61369c565b80600101543414613272576040517f08c379a000000000000000000000000000000000000000000000000000000000815260040161326990614960565b60405180910390fd5b613286679fb9bd31e7f2304360c01b61369c565b61329a67cdaaa3e5e8e0945c60c01b61369c565b60008160060160006101000a81548160ff0219169083151502179055506132cb670cbdc3973a172b3860c01b61369c565b6132df67c6b70a0dcae8cd4760c01b61369c565b60008160000160009054906101000a900473ffffffffffffffffffffffffffffffffffffffff1673ffffffffffffffffffffffffffffffffffffffff1634604051613329906144c7565b60006040518083038185875af1925050503d8060008114613366576040519150601f19603f3d011682016040523d82523d6000602084013e61336b565b606091505b5050905061338367bd890ef3d225271860c01b61369c565b61339767c669ffbb446285a660c01b61369c565b6133ab679805b6bd550b930b60c01b61369c565b806133eb576040517f08c379a00000000000000000000000000000000000000000000000000000000081526004016133e290614528565b60405180910390fd5b6133ff6757a6b684fb126eb060c01b61369c565b613413677b482fe7b20c9f9860c01b61369c565b6134276717f2292fbf28db5260c01b61369c565b600260009054906101000a900473ffffffffffffffffffffffffffffffffffffffff1673ffffffffffffffffffffffffffffffffffffffff166323b872dd3033866040518463ffffffff1660e01b81526004016134869392919061408a565b600060405180830381600087803b1580156134a057600080fd5b505af11580156134b4573d6000803e3d6000fd5b505050506134cc67c0226d019a8469ee60c01b61369c565b6134e0674a7ae70b60c06aad60c01b61369c565b3373ffffffffffffffffffffffffffffffffffffffff16837fa574c741071bb18f51fa88c17aeefec514bebf670ca22a3736fba6504ecbb763346040516135279190613cd6565b60405180910390a35050613539613738565b50565b600260009054906101000a900473ffffffffffffffffffffffffffffffffffffffff1681565b60036020528060005260406000206000915090508060000160009054906101000a900473ffffffffffffffffffffffffffffffffffffffff16908060010154908060020160009054906101000a900460ff16908060030154908060040160009054906101000a900473ffffffffffffffffffffffffffffffffffffffff16908060050154908060060160009054906101000a900460ff16905087565b613606613742565b600073ffffffffffffffffffffffffffffffffffffffff168173ffffffffffffffffffffffffffffffffffffffff16036136785760006040517f1e4fbdf700000000000000000000000000000000000000000000000000000000815260040161366f9190613d2a565b60405180910390fd5b6136818161382c565b50565b60046020528060005260406000206000915090505481565b50565b6002600054036136db576040517f3ee5aeb500000000000000000000000000000000000000000000000000000000815260040160405180910390fd5b6002600081905550565b6136ed611ff2565b15613724576040517fd93c066500000000000000000000000000000000000000000000000000000000815260040160405180910390fd5b565b6000919050565b600060019050919050565b6001600081905550565b61374a613954565b73ffffffffffffffffffffffffffffffffffffffff16613768612093565b73ffffffffffffffffffffffffffffffffffffffff16146137c75761378b613954565b6040517f118cdaa70000000000000000000000000000000000000000000000000000000081526004016137be9190613d2a565b60405180910390fd5b565b6137d161395c565b6000600160146101000a81548160ff0219169083151502179055507f5db9ee0a495bf2e6ff9c91a7834c1ba4fdd244a5e8aa4e537bd38aeae4b073aa613815613954565b6040516138229190613d2a565b60405180910390a1565b6000600160009054906101000a900473ffffffffffffffffffffffffffffffffffffffff16905081600160006101000a81548173ffffffffffffffffffffffffffffffffffffffff021916908373ffffffffffffffffffffffffffffffffffffffff1602179055508173ffffffffffffffffffffffffffffffffffffffff168173ffffffffffffffffffffffffffffffffffffffff167f8be0079c531659141344cd1fd0a4f28419497f9722a3daafe3b4186f6b6457e060405160405180910390a35050565b6138fa6136e5565b60018060146101000a81548160ff0219169083151502179055507f62e78cea01bee320cd4e420270b5ea74000d11b0c9f74754ebdbfc544b05a25861393d613954565b60405161394a9190613d2a565b60405180910390a1565b600033905090565b613964611ff2565b61399a576040517f8dfc202b00000000000000000000000000000000000000000000000000000000815260040160405180910390fd5b565b8280548282559060005260206000209081019282156139d8579160200282015b828111156139d75782518255916020019190600101906139bc565b5b5090506139e59190613a46565b5090565b6040518060a00160405280600073ffffffffffffffffffffffffffffffffffffffff168152602001600073ffffffffffffffffffffffffffffffffffffffff16815260200160608152602001606081526020016000151581525090565b5b80821115613a5f576000816000905550600101613a47565b5090565b600080fd5b600080fd5b6000819050919050565b613a8081613a6d565b8114613a8b57600080fd5b50565b600081359050613a9d81613a77565b92915050565b60008115159050919050565b613ab881613aa3565b8114613ac357600080fd5b50565b600081359050613ad581613aaf565b92915050565b60008060008060808587031215613af557613af4613a63565b5b6000613b0387828801613a8e565b9450506020613b1487828801613a8e565b9350506040613b2587828801613ac6565b9250506060613b3687828801613a8e565b91505092959194509250565b600080fd5b600080fd5b600080fd5b60008083601f840112613b6757613b66613b42565b5b8235905067ffffffffffffffff811115613b8457613b83613b47565b5b602083019150836020820283011115613ba057613b9f613b4c565b5b9250929050565b600073ffffffffffffffffffffffffffffffffffffffff82169050919050565b6000613bd282613ba7565b9050919050565b613be281613bc7565b8114613bed57600080fd5b50565b600081359050613bff81613bd9565b92915050565b600080600080600060608688031215613c2157613c20613a63565b5b600086013567ffffffffffffffff811115613c3f57613c3e613a68565b5b613c4b88828901613b51565b9550955050602086013567ffffffffffffffff811115613c6e57613c6d613a68565b5b613c7a88828901613b51565b93509350506040613c8d88828901613bf0565b9150509295509295909350565b600060208284031215613cb057613caf613a63565b5b6000613cbe84828501613a8e565b91505092915050565b613cd081613a6d565b82525050565b6000602082019050613ceb6000830184613cc7565b92915050565b613cfa81613aa3565b82525050565b6000602082019050613d156000830184613cf1565b92915050565b613d2481613bc7565b82525050565b6000602082019050613d3f6000830184613d1b565b92915050565b6000606082019050613d5a6000830186613d1b565b613d676020830185613d1b565b613d746040830184613cf1565b949350505050565b613d8581613bc7565b82525050565b600081519050919050565b600082825260208201905092915050565b6000819050602082019050919050565b613dc081613a6d565b82525050565b6000613dd28383613db7565b60208301905092915050565b6000602082019050919050565b6000613df682613d8b565b613e008185613d96565b9350613e0b83613da7565b8060005b83811015613e3c578151613e238882613dc6565b9750613e2e83613dde565b925050600181019050613e0f565b5085935050505092915050565b613e5281613aa3565b82525050565b600060a083016000830151613e706000860182613d7c565b506020830151613e836020860182613d7c565b5060408301518482036040860152613e9b8282613deb565b91505060608301518482036060860152613eb58282613deb565b9150506080830151613eca6080860182613e49565b508091505092915050565b60006020820190508181036000830152613eef8184613e58565b905092915050565b6000819050919050565b6000613f1c613f17613f1284613ba7565b613ef7565b613ba7565b9050919050565b6000613f2e82613f01565b9050919050565b6000613f4082613f23565b9050919050565b613f5081613f35565b82525050565b6000602082019050613f6b6000830184613f47565b92915050565b600060e082019050613f86600083018a613d1b565b613f936020830189613cc7565b613fa06040830188613cf1565b613fad6060830187613cc7565b613fba6080830186613d1b565b613fc760a0830185613cc7565b613fd460c0830184613cf1565b98975050505050505050565b600060208284031215613ff657613ff5613a63565b5b600061400484828501613bf0565b91505092915050565b600082825260208201905092915050565b7f5072696365206d757374206265203e2030000000000000000000000000000000600082015250565b600061405460118361400d565b915061405f8261401e565b602082019050919050565b6000602082019050818103600083015261408381614047565b9050919050565b600060608201905061409f6000830186613d1b565b6140ac6020830185613d1b565b6140b96040830184613cc7565b949350505050565b7f4e487b7100000000000000000000000000000000000000000000000000000000600052601160045260246000fd5b60006140fb82613a6d565b915061410683613a6d565b925082820190508082111561411e5761411d6140c1565b5b92915050565b60006040820190506141396000830185613cc7565b6141466020830184613cf1565b9392505050565b7f43616e6e6f742073776170206e6f7468696e6720666f72206e6f7468696e6700600082015250565b6000614183601f8361400d565b915061418e8261414d565b602082019050919050565b600060208201905081810360008301526141b281614176565b9050919050565b7f4e487b7100000000000000000000000000000000000000000000000000000000600052603260045260246000fd5b600082825260208201905092915050565b600080fd5b82818337505050565b600061421383856141e8565b93507f07ffffffffffffffffffffffffffffffffffffffffffffffffffffffffffffff831115614246576142456141f9565b5b6020830292506142578385846141fe565b82840190509392505050565b6000604082019050818103600083015261427e818688614207565b90508181036020830152614293818486614207565b905095945050505050565b60006142a982613a6d565b91507fffffffffffffffffffffffffffffffffffffffffffffffffffffffffffffffff82036142db576142da6140c1565b5b600182019050919050565b7f4e6f742061637469766500000000000000000000000000000000000000000000600082015250565b600061431c600a8361400d565b9150614327826142e6565b602082019050919050565b6000602082019050818103600083015261434b8161430f565b9050919050565b7f4e6f742073656c6c657200000000000000000000000000000000000000000000600082015250565b6000614388600a8361400d565b915061439382614352565b602082019050919050565b600060208201905081810360008301526143b78161437b565b9050919050565b7f43616e6e6f742063616e63656c2061756374696f6e2077697468206269647300600082015250565b60006143f4601f8361400d565b91506143ff826143be565b602082019050919050565b60006020820190508181036000830152614423816143e7565b9050919050565b7f4e6f2066756e647320746f207769746864726177000000000000000000000000600082015250565b600061446060148361400d565b915061446b8261442a565b602082019050919050565b6000602082019050818103600083015261448f81614453565b9050919050565b600081905092915050565b50565b60006144b1600083614496565b91506144bc826144a1565b600082019050919050565b60006144d2826144a4565b9150819050919050565b7f5472616e73666572206661696c65640000000000000000000000000000000000600082015250565b6000614512600f8361400d565b915061451d826144dc565b602082019050919050565b6000602082019050818103600083015261454181614505565b9050919050565b7f4e6f7420616e206163746976652061756374696f6e0000000000000000000000600082015250565b600061457e60158361400d565b915061458982614548565b602082019050919050565b600060208201905081810360008301526145ad81614571565b9050919050565b7f41756374696f6e20656e64656400000000000000000000000000000000000000600082015250565b60006145ea600d8361400d565b91506145f5826145b4565b602082019050919050565b60006020820190508181036000830152614619816145dd565b9050919050565b7f42696420746f6f206c6f77000000000000000000000000000000000000000000600082015250565b6000614656600b8361400d565b915061466182614620565b602082019050919050565b6000602082019050818103600083015261468581614649565b9050919050565b7f53776170206e6f74206163746976650000000000000000000000000000000000600082015250565b60006146c2600f8361400d565b91506146cd8261468c565b602082019050919050565b600060208201905081810360008301526146f1816146b5565b9050919050565b7f4e6f7420746865206f66666572206f776e657200000000000000000000000000600082015250565b600061472e60138361400d565b9150614739826146f8565b602082019050919050565b6000602082019050818103600083015261475d81614721565b9050919050565b7f54686973207472616465206973206e6f7420666f7220796f7500000000000000600082015250565b600061479a60198361400d565b91506147a582614764565b602082019050919050565b600060208201905081810360008301526147c98161478d565b9050919050565b7f4e6f74206163746976652061756374696f6e0000000000000000000000000000600082015250565b600061480660128361400d565b9150614811826147d0565b602082019050919050565b60006020820190508181036000830152614835816147f9565b9050919050565b7f41756374696f6e206f6e676f696e670000000000000000000000000000000000600082015250565b6000614872600f8361400d565b915061487d8261483c565b602082019050919050565b600060208201905081810360008301526148a181614865565b9050919050565b7f497320616e2061756374696f6e00000000000000000000000000000000000000600082015250565b60006148de600d8361400d565b91506148e9826148a8565b602082019050919050565b6000602082019050818103600083015261490d816148d1565b9050919050565b7f496e636f72726563742070726963650000000000000000000000000000000000600082015250565b600061494a600f8361400d565b915061495582614914565b602082019050919050565b600060208201905081810360008301526149798161493d565b905091905056fea26469706673582212203daf483a4836bbb20f9bb23a1fb5fe64c438a97c03f03c1af77ccfb574c8a67464736f6c63430008180033",
  "linkReferences": {},
  "deployedLinkReferences": {}
}