{
  "_format": "hh-sol-artifact-1",
  "contractName": "PokemonMarketplace",
  "sourceName": "contracts/PokemonMarketplace.sol",
  "abi": [
    {
      "inputs": [
        {
          "internalType": "address",
          "name": "_nftContract",
          "type": "address"
        }
      ],
      "stateMutability": "nonpayable",
      "type": "constructor"
    },
    {
      "inputs": [],
      "name": "EnforcedPause",
      "type": "error"
    },
    {
      "inputs": [],
      "name": "ExpectedPause",
      "type": "error"
    },
    {
      "inputs": [
        {
          "internalType": "address",
          "name": "owner",
          "type": "address"
        }
      ],
      "name": "OwnableInvalidOwner",
      "type": "error"
    },
    {
      "inputs": [
        {
          "internalType": "address",
          "name": "account",
          "type": "address"
        }
      ],
      "name": "OwnableUnauthorizedAccount",
      "type": "error"
    },
    {
      "inputs": [],
      "name": "ReentrancyGuardReentrantCall",
      "type": "error"
    },
    {
      "anonymous": false,
      "inputs": [
        {
          "indexed": true,
          "internalType": "uint256",
          "name": "tokenId",
          "type": "uint256"
        },
        {
          "indexed": true,
          "internalType": "address",
          "name": "winner",
          "type": "address"
        },
        {
          "indexed": false,
          "internalType": "uint256",
          "name": "amount",
          "type": "uint256"
        }
      ],
      "name": "AuctionEnded",
      "type": "event"
    },
    {
      "anonymous": false,
      "inputs": [
        {
          "indexed": true,
          "internalType": "uint256",
          "name": "tokenId",
          "type": "uint256"
        },
        {
          "indexed": true,
          "internalType": "address",
          "name": "seller",
          "type": "address"
        },
        {
          "indexed": false,
          "internalType": "uint256",
          "name": "price",
          "type": "uint256"
        },
        {
          "indexed": false,
          "internalType": "bool",
          "name": "isAuction",
          "type": "bool"
        }
      ],
      "name": "ItemListed",
      "type": "event"
    },
    {
      "anonymous": false,
      "inputs": [
        {
          "indexed": true,
          "internalType": "uint256",
          "name": "tokenId",
          "type": "uint256"
        },
        {
          "indexed": true,
          "internalType": "address",
          "name": "buyer",
          "type": "address"
        },
        {
          "indexed": false,
          "internalType": "uint256",
          "name": "price",
          "type": "uint256"
        }
      ],
      "name": "ItemSold",
      "type": "event"
    },
    {
      "anonymous": false,
      "inputs": [
        {
          "indexed": true,
          "internalType": "uint256",
          "name": "tokenId",
          "type": "uint256"
        },
        {
          "indexed": true,
          "internalType": "address",
          "name": "seller",
          "type": "address"
        }
      ],
      "name": "ListingCancelled",
      "type": "event"
    },
    {
      "anonymous": false,
      "inputs": [
        {
          "indexed": true,
          "internalType": "uint256",
          "name": "tokenId",
          "type": "uint256"
        },
        {
          "indexed": true,
          "internalType": "address",
          "name": "bidder",
          "type": "address"
        },
        {
          "indexed": false,
          "internalType": "uint256",
          "name": "amount",
          "type": "uint256"
        }
      ],
      "name": "NewBid",
      "type": "event"
    },
    {
      "anonymous": false,
      "inputs": [
        {
          "indexed": true,
          "internalType": "address",
          "name": "previousOwner",
          "type": "address"
        },
        {
          "indexed": true,
          "internalType": "address",
          "name": "newOwner",
          "type": "address"
        }
      ],
      "name": "OwnershipTransferred",
      "type": "event"
    },
    {
      "anonymous": false,
      "inputs": [
        {
          "indexed": false,
          "internalType": "address",
          "name": "account",
          "type": "address"
        }
      ],
      "name": "Paused",
      "type": "event"
    },
    {
      "anonymous": false,
      "inputs": [
        {
          "indexed": true,
          "internalType": "uint256",
          "name": "swapId",
          "type": "uint256"
        }
      ],
      "name": "SwapCancelled",
      "type": "event"
    },
    {
      "anonymous": false,
      "inputs": [
        {
          "indexed": true,
          "internalType": "uint256",
          "name": "swapId",
          "type": "uint256"
        },
        {
          "indexed": true,
          "internalType": "address",
          "name": "responder",
          "type": "address"
        }
      ],
      "name": "SwapCompleted",
      "type": "event"
    },
    {
      "anonymous": false,
      "inputs": [
        {
          "indexed": true,
          "internalType": "uint256",
          "name": "swapId",
          "type": "uint256"
        },
        {
          "indexed": true,
          "internalType": "address",
          "name": "owner",
          "type": "address"
        },
        {
          "indexed": true,
          "internalType": "address",
          "name": "counterparty",
          "type": "address"
        },
        {
          "indexed": false,
          "internalType": "uint256[]",
          "name": "offeredIds",
          "type": "uint256[]"
        },
        {
          "indexed": false,
          "internalType": "uint256[]",
          "name": "desiredIds",
          "type": "uint256[]"
        }
      ],
      "name": "SwapCreated",
      "type": "event"
    },
    {
      "anonymous": false,
      "inputs": [
        {
          "indexed": false,
          "internalType": "address",
          "name": "account",
          "type": "address"
        }
      ],
      "name": "Unpaused",
      "type": "event"
    },
    {
      "inputs": [
        {
          "internalType": "uint256",
          "name": "tokenId",
          "type": "uint256"
        }
      ],
      "name": "bid",
      "outputs": [],
      "stateMutability": "payable",
      "type": "function"
    },
    {
      "inputs": [
        {
          "internalType": "uint256",
          "name": "tokenId",
          "type": "uint256"
        }
      ],
      "name": "buyCard",
      "outputs": [],
      "stateMutability": "payable",
      "type": "function"
    },
    {
      "inputs": [
        {
          "internalType": "uint256",
          "name": "tokenId",
          "type": "uint256"
        }
      ],
      "name": "cancelListing",
      "outputs": [],
      "stateMutability": "nonpayable",
      "type": "function"
    },
    {
      "inputs": [
        {
          "internalType": "uint256",
          "name": "swapId",
          "type": "uint256"
        }
      ],
      "name": "cancelSwap",
      "outputs": [],
      "stateMutability": "nonpayable",
      "type": "function"
    },
    {
      "inputs": [
        {
          "internalType": "uint256[]",
          "name": "_offeredTokenIds",
          "type": "uint256[]"
        },
        {
          "internalType": "uint256[]",
          "name": "_desiredTokenIds",
          "type": "uint256[]"
        },
        {
          "internalType": "address",
          "name": "_counterparty",
          "type": "address"
        }
      ],
      "name": "createSwapOffer",
      "outputs": [],
      "stateMutability": "nonpayable",
      "type": "function"
    },
    {
      "inputs": [
        {
          "internalType": "uint256",
          "name": "tokenId",
          "type": "uint256"
        }
      ],
      "name": "endAuction",
      "outputs": [],
      "stateMutability": "nonpayable",
      "type": "function"
    },
    {
      "inputs": [
        {
          "internalType": "uint256",
          "name": "swapId",
          "type": "uint256"
        }
      ],
      "name": "executeSwap",
      "outputs": [],
      "stateMutability": "nonpayable",
      "type": "function"
    },
    {
      "inputs": [
        {
          "internalType": "uint256",
          "name": "_swapId",
          "type": "uint256"
        }
      ],
      "name": "getSwapOffer",
      "outputs": [
        {
          "components": [
            {
              "internalType": "address",
              "name": "owner",
              "type": "address"
            },
            {
              "internalType": "address",
              "name": "counterparty",
              "type": "address"
            },
            {
              "internalType": "uint256[]",
              "name": "offeredTokenIds",
              "type": "uint256[]"
            },
            {
              "internalType": "uint256[]",
              "name": "desiredTokenIds",
              "type": "uint256[]"
            },
            {
              "internalType": "bool",
              "name": "active",
              "type": "bool"
            }
          ],
          "internalType": "struct PokemonMarketplace.SwapOffer",
          "name": "",
          "type": "tuple"
        }
      ],
      "stateMutability": "view",
      "type": "function"
    },
    {
      "inputs": [
        {
          "internalType": "uint256",
          "name": "tokenId",
          "type": "uint256"
        },
        {
          "internalType": "uint256",
          "name": "price",
          "type": "uint256"
        },
        {
          "internalType": "bool",
          "name": "isAuction",
          "type": "bool"
        },
        {
          "internalType": "uint256",
          "name": "durationInSeconds",
          "type": "uint256"
        }
      ],
      "name": "listCard",
      "outputs": [],
      "stateMutability": "nonpayable",
      "type": "function"
    },
    {
      "inputs": [
        {
          "internalType": "uint256",
          "name": "",
          "type": "uint256"
        }
      ],
      "name": "listings",
      "outputs": [
        {
          "internalType": "address",
          "name": "seller",
          "type": "address"
        },
        {
          "internalType": "uint256",
          "name": "price",
          "type": "uint256"
        },
        {
          "internalType": "bool",
          "name": "isAuction",
          "type": "bool"
        },
        {
          "internalType": "uint256",
          "name": "endTime",
          "type": "uint256"
        },
        {
          "internalType": "address",
          "name": "highestBidder",
          "type": "address"
        },
        {
          "internalType": "uint256",
          "name": "highestBid",
          "type": "uint256"
        },
        {
          "internalType": "bool",
          "name": "active",
          "type": "bool"
        }
      ],
      "stateMutability": "view",
      "type": "function"
    },
    {
      "inputs": [],
      "name": "nftContract",
      "outputs": [
        {
          "internalType": "contract IERC721",
          "name": "",
          "type": "address"
        }
      ],
      "stateMutability": "view",
      "type": "function"
    },
    {
      "inputs": [],
      "name": "owner",
      "outputs": [
        {
          "internalType": "address",
          "name": "",
          "type": "address"
        }
      ],
      "stateMutability": "view",
      "type": "function"
    },
    {
      "inputs": [],
      "name": "pause",
      "outputs": [],
      "stateMutability": "nonpayable",
      "type": "function"
    },
    {
      "inputs": [],
      "name": "paused",
      "outputs": [
        {
          "internalType": "bool",
          "name": "",
          "type": "bool"
        }
      ],
      "stateMutability": "view",
      "type": "function"
    },
    {
      "inputs": [
        {
          "internalType": "address",
          "name": "",
          "type": "address"
        }
      ],
      "name": "pendingWithdrawals",
      "outputs": [
        {
          "internalType": "uint256",
          "name": "",
          "type": "uint256"
        }
      ],
      "stateMutability": "view",
      "type": "function"
    },
    {
      "inputs": [],
      "name": "renounceOwnership",
      "outputs": [],
      "stateMutability": "nonpayable",
      "type": "function"
    },
    {
      "inputs": [],
      "name": "swapCounter",
      "outputs": [
        {
          "internalType": "uint256",
          "name": "",
          "type": "uint256"
        }
      ],
      "stateMutability": "view",
      "type": "function"
    },
    {
      "inputs": [
        {
          "internalType": "uint256",
          "name": "",
          "type": "uint256"
        }
      ],
      "name": "swapOffers",
      "outputs": [
        {
          "internalType": "address",
          "name": "owner",
          "type": "address"
        },
        {
          "internalType": "address",
          "name": "counterparty",
          "type": "address"
        },
        {
          "internalType": "bool",
          "name": "active",
          "type": "bool"
        }
      ],
      "stateMutability": "view",
      "type": "function"
    },
    {
      "inputs": [
        {
          "internalType": "address",
          "name": "newOwner",
          "type": "address"
        }
      ],
      "name": "transferOwnership",
      "outputs": [],
      "stateMutability": "nonpayable",
      "type": "function"
    },
    {
      "inputs": [],
      "name": "unpause",
      "outputs": [],
      "stateMutability": "nonpayable",
      "type": "function"
    },
    {
      "inputs": [],
      "name": "withdraw",
      "outputs": [],
      "stateMutability": "nonpayable",
      "type": "function"
    }
  ],
  "bytecode": "0x60806040523480156200001157600080fd5b5060405162001f5538038062001f558339810160408190526200003491620000e4565b600160005533806200006057604051631e4fbdf760e01b81526000600482015260240160405180910390fd5b6200006b8162000092565b50600280546001600160a01b0319166001600160a01b039290921691909117905562000116565b600180546001600160a01b038381166001600160a01b0319831681179093556040519116919082907f8be0079c531659141344cd1fd0a4f28419497f9722a3daafe3b4186f6b6457e090600090a35050565b600060208284031215620000f757600080fd5b81516001600160a01b03811681146200010f57600080fd5b9392505050565b611e2f80620001266000396000f3fe60806040526004361061012a5760003560e01c80638456cb59116100ab578063b9c52fcc1161006f578063b9c52fcc14610351578063c70f5eaa1461037e578063d56d229d14610391578063de74e57b146103b1578063f2fde38b14610467578063f3f437031461048757600080fd5b80638456cb59146102565780638da5cb5b1461026b578063a13f1c621461029d578063a9ab232b14610311578063b9a2de3a1461033157600080fd5b80633f4ba83a116100f25780633f4ba83a146101cf578063454a2ab3146101e457806354d6a2b7146101f75780635c975abb14610217578063715018a61461024157600080fd5b80631e268d881461012f5780632b3c65c314610151578063305a67a81461017157806333bce8c3146101915780633ccfd60b146101ba575b600080fd5b34801561013b57600080fd5b5061014f61014a366004611afd565b6104b4565b005b34801561015d57600080fd5b5061014f61016c366004611ba9565b610707565b34801561017d57600080fd5b5061014f61018c366004611c2a565b6109ac565b34801561019d57600080fd5b506101a760065481565b6040519081526020015b60405180910390f35b3480156101c657600080fd5b5061014f610b5d565b3480156101db57600080fd5b5061014f610c68565b61014f6101f2366004611c2a565b610c78565b34801561020357600080fd5b5061014f610212366004611c2a565b610e83565b34801561022357600080fd5b50600154600160a01b900460ff1660405190151581526020016101b1565b34801561024d57600080fd5b5061014f61102a565b34801561026257600080fd5b5061014f61103c565b34801561027757600080fd5b506001546001600160a01b03165b6040516001600160a01b0390911681526020016101b1565b3480156102a957600080fd5b506102e96102b8366004611c2a565b6005602052600090815260409020805460018201546004909201546001600160a01b03918216929091169060ff1683565b604080516001600160a01b0394851681529390921660208401521515908201526060016101b1565b34801561031d57600080fd5b5061014f61032c366004611c2a565b61104c565b34801561033d57600080fd5b5061014f61034c366004611c2a565b6112be565b34801561035d57600080fd5b5061037161036c366004611c2a565b61155e565b6040516101b19190611c7f565b61014f61038c366004611c2a565b61169a565b34801561039d57600080fd5b50600254610285906001600160a01b031681565b3480156103bd57600080fd5b5061041c6103cc366004611c2a565b600360208190526000918252604090912080546001820154600283015493830154600484015460058501546006909501546001600160a01b0394851696939560ff94851695939493909216921687565b604080516001600160a01b0398891681526020810197909752941515948601949094526060850192909252909316608083015260a082019290925290151560c082015260e0016101b1565b34801561047357600080fd5b5061014f610482366004611cf1565b6118cc565b34801561049357600080fd5b506101a76104a2366004611cf1565b60046020526000908152604090205481565b6104bc611907565b6104c4611931565b6000831161050d5760405162461bcd60e51b815260206004820152601160248201527005072696365206d757374206265203e203607c1b60448201526064015b60405180910390fd5b6002546040516323b872dd60e01b81526001600160a01b03909116906323b872dd9061054190339030908990600401611d13565b600060405180830381600087803b15801561055b57600080fd5b505af115801561056f573d6000803e3d6000fd5b5050505060008261058157600061058b565b61058b8242611d4d565b90506040518060e00160405280336001600160a01b03168152602001858152602001841515815260200182815260200160006001600160a01b0316815260200160008152602001600115158152506003600087815260200190815260200160002060008201518160000160006101000a8154816001600160a01b0302191690836001600160a01b031602179055506020820151816001015560408201518160020160006101000a81548160ff0219169083151502179055506060820151816003015560808201518160040160006101000a8154816001600160a01b0302191690836001600160a01b0316021790555060a0820151816005015560c08201518160060160006101000a81548160ff021916908315150217905550905050336001600160a01b0316857fde26dae6625b1e67b90231db575f3aea0809a265b75b7f6aef09e9b73f19f0a186866040516106ee9291909182521515602082015260400190565b60405180910390a3506107016001600055565b50505050565b61070f611907565b610717611931565b8315158061072457508115155b6107705760405162461bcd60e51b815260206004820152601f60248201527f43616e6e6f742073776170206e6f7468696e6720666f72206e6f7468696e67006044820152606401610504565b60005b84811015610803576002546001600160a01b03166323b872dd33308989868181106107a0576107a0611d66565b905060200201356040518463ffffffff1660e01b81526004016107c593929190611d13565b600060405180830381600087803b1580156107df57600080fd5b505af11580156107f3573d6000803e3d6000fd5b5050600190920191506107739050565b506040518060a00160405280336001600160a01b03168152602001826001600160a01b0316815260200186868080602002602001604051908101604052809392919081815260200183836020028082843760009201919091525050509082525060408051602086810282810182019093528682529283019290918791879182918501908490808284376000920182905250938552505060016020938401819052600654835260058452604092839020855181546001600160a01b039182166001600160a01b031991821617835587870151938301805494909216931692909217909155918401518051929361090093600286019350910190611a9d565b506060820151805161091c916003840191602090910190611a9d565b50608091909101516004909101805460ff19169115159190911790556006546040516001600160a01b0383169133917f3de13318be2b735f2bcd30511bc7d0705cdb59d81fc79bb7bf5b140a06db50309061097e908a908a908a908a90611dae565b60405180910390a46006805490600061099683611de0565b91905055506109a56001600055565b5050505050565b6109b4611907565b6109bc611931565b6000818152600360205260409020600681015460ff16610a0b5760405162461bcd60e51b815260206004820152600a6024820152694e6f742061637469766560b01b6044820152606401610504565b80546001600160a01b03163314610a515760405162461bcd60e51b815260206004820152600a6024820152692737ba1039b2b63632b960b11b6044820152606401610504565b600281015460ff1615610ab057600581015415610ab05760405162461bcd60e51b815260206004820152601f60248201527f43616e6e6f742063616e63656c2061756374696f6e20776974682062696473006044820152606401610504565b60068101805460ff191690556002546040516323b872dd60e01b81526001600160a01b03909116906323b872dd90610af090309033908790600401611d13565b600060405180830381600087803b158015610b0a57600080fd5b505af1158015610b1e573d6000803e3d6000fd5b50506040513392508491507f8e25282255ab31897df2b0456bb993ac7f84d376861aefd84901d2d63a7428a290600090a350610b5a6001600055565b50565b610b65611907565b610b6d611931565b3360009081526004602052604090205480610bc15760405162461bcd60e51b81526020600482015260146024820152734e6f2066756e647320746f20776974686472617760601b6044820152606401610504565b336000818152600460205260408082208290555190919083908381818185875af1925050503d8060008114610c12576040519150601f19603f3d011682016040523d82523d6000602084013e610c17565b606091505b5050905080610c5a5760405162461bcd60e51b815260206004820152600f60248201526e151c985b9cd9995c8819985a5b1959608a1b6044820152606401610504565b5050610c666001600055565b565b610c7061195c565b610c66611989565b610c80611907565b610c88611931565b6000818152600360205260409020600681015460ff168015610cae5750600281015460ff165b610cf25760405162461bcd60e51b81526020600482015260156024820152742737ba1030b71030b1ba34bb329030bab1ba34b7b760591b6044820152606401610504565b80600301544210610d355760405162461bcd60e51b815260206004820152600d60248201526c105d58dd1a5bdb88195b991959609a1b6044820152606401610504565b806001015434118015610d4b5750806005015434115b610d855760405162461bcd60e51b815260206004820152600b60248201526a42696420746f6f206c6f7760a81b6044820152606401610504565b6004810180546005830180546001600160a01b0319831633179093553490556001600160a01b0316908115610e3f576000826001600160a01b03168260405160006040518083038185875af1925050503d8060008114610e01576040519150601f19603f3d011682016040523d82523d6000602084013e610e06565b606091505b5050905080610e3d576001600160a01b03831660009081526004602052604081208054849290610e37908490611d4d565b90915550505b505b604051348152339085907f558a0d5d5468d74b0db24c74eb348b42271c2ebb4c9e953ced38aaed95fa43619060200160405180910390a3505050610b5a6001600055565b610e8b611907565b610e93611931565b6000818152600560205260409020600481015460ff16610ee75760405162461bcd60e51b815260206004820152600f60248201526e53776170206e6f742061637469766560881b6044820152606401610504565b80546001600160a01b03163314610f365760405162461bcd60e51b81526020600482015260136024820152722737ba103a34329037b33332b91037bbb732b960691b6044820152606401610504565b60005b6002820154811015610fe757600260009054906101000a90046001600160a01b03166001600160a01b03166323b872dd3033856002018581548110610f8057610f80611d66565b90600052602060002001546040518463ffffffff1660e01b8152600401610fa993929190611d13565b600060405180830381600087803b158015610fc357600080fd5b505af1158015610fd7573d6000803e3d6000fd5b505060019092019150610f399050565b5060048101805460ff1916905560405182907ff6b6b4f7a13f02512c1b3aa8dcc4a07d7775a6a4becbd439efcbd37c5408e67f90600090a250610b5a6001600055565b61103261195c565b610c6660006119de565b61104461195c565b610c66611a30565b611054611907565b61105c611931565b6000818152600560205260409020600481015460ff166110b05760405162461bcd60e51b815260206004820152600f60248201526e53776170206e6f742061637469766560881b6044820152606401610504565b60018101546001600160a01b03161561111f5760018101546001600160a01b0316331461111f5760405162461bcd60e51b815260206004820152601960248201527f54686973207472616465206973206e6f7420666f7220796f75000000000000006044820152606401610504565b60005b60038201548110156111c75760025482546003840180546001600160a01b03938416936323b872dd9333939116918690811061116057611160611d66565b90600052602060002001546040518463ffffffff1660e01b815260040161118993929190611d13565b600060405180830381600087803b1580156111a357600080fd5b505af11580156111b7573d6000803e3d6000fd5b5050600190920191506111229050565b5060005b600282015481101561127957600260009054906101000a90046001600160a01b03166001600160a01b03166323b872dd303385600201858154811061121257611212611d66565b90600052602060002001546040518463ffffffff1660e01b815260040161123b93929190611d13565b600060405180830381600087803b15801561125557600080fd5b505af1158015611269573d6000803e3d6000fd5b5050600190920191506111cb9050565b5060048101805460ff19169055604051339083907f393e9e4b16bb0310a90c21f5a14d4320ed1cd5800ced3216d7351e0e5dacd35690600090a350610b5a6001600055565b6112c6611907565b6112ce611931565b6000818152600360205260409020600681015460ff1680156112f45750600281015460ff165b6113355760405162461bcd60e51b81526020600482015260126024820152712737ba1030b1ba34bb329030bab1ba34b7b760711b6044820152606401610504565b806003015442101561137b5760405162461bcd60e51b815260206004820152600f60248201526e41756374696f6e206f6e676f696e6760881b6044820152606401610504565b60068101805460ff1916905560048101546001600160a01b0316156114e857805460058201546040516000926001600160a01b031691908381818185875af1925050503d80600081146113ea576040519150601f19603f3d011682016040523d82523d6000602084013e6113ef565b606091505b505090508061142c57600582015482546001600160a01b031660009081526004602052604081208054909190611426908490611d4d565b90915550505b6002546004808401546040516323b872dd60e01b81526001600160a01b03938416936323b872dd93611465933093921691899101611d13565b600060405180830381600087803b15801561147f57600080fd5b505af1158015611493573d6000803e3d6000fd5b50505050600482015460058301546040519081526001600160a01b039091169084907fd2aa34a4fdbbc6dff6a3e56f46e0f3ae2a31d7785ff3487aa5c95c642acea5019060200160405180910390a350611553565b60025481546040516323b872dd60e01b81526001600160a01b03928316926323b872dd92611520923092909116908790600401611d13565b600060405180830381600087803b15801561153a57600080fd5b505af115801561154e573d6000803e3d6000fd5b505050505b50610b5a6001600055565b6115a46040518060a0016040528060006001600160a01b0316815260200160006001600160a01b0316815260200160608152602001606081526020016000151581525090565b600082815260056020908152604091829020825160a08101845281546001600160a01b039081168252600183015416818401526002820180548551818602810186018752818152929593949386019383018282801561162257602002820191906000526020600020905b81548152602001906001019080831161160e575b505050505081526020016003820180548060200260200160405190810160405280929190818152602001828054801561167a57602002820191906000526020600020905b815481526020019060010190808311611666575b50505091835250506004919091015460ff16151560209091015292915050565b6116a2611907565b6116aa611931565b6000818152600360205260409020600681015460ff166116f95760405162461bcd60e51b815260206004820152600a6024820152694e6f742061637469766560b01b6044820152606401610504565b600281015460ff161561173e5760405162461bcd60e51b815260206004820152600d60248201526c24b99030b71030bab1ba34b7b760991b6044820152606401610504565b806001015434146117835760405162461bcd60e51b815260206004820152600f60248201526e496e636f727265637420707269636560881b6044820152606401610504565b60068101805460ff1916905580546040516000916001600160a01b03169034908381818185875af1925050503d80600081146117db576040519150601f19603f3d011682016040523d82523d6000602084013e6117e0565b606091505b50509050806118235760405162461bcd60e51b815260206004820152600f60248201526e151c985b9cd9995c8819985a5b1959608a1b6044820152606401610504565b6002546040516323b872dd60e01b81526001600160a01b03909116906323b872dd9061185790309033908890600401611d13565b600060405180830381600087803b15801561187157600080fd5b505af1158015611885573d6000803e3d6000fd5b50506040513481523392508591507fa574c741071bb18f51fa88c17aeefec514bebf670ca22a3736fba6504ecbb7639060200160405180910390a35050610b5a6001600055565b6118d461195c565b6001600160a01b0381166118fe57604051631e4fbdf760e01b815260006004820152602401610504565b610b5a816119de565b60026000540361192a57604051633ee5aeb560e01b815260040160405180910390fd5b6002600055565b600154600160a01b900460ff1615610c665760405163d93c066560e01b815260040160405180910390fd5b6001546001600160a01b03163314610c665760405163118cdaa760e01b8152336004820152602401610504565b611991611a73565b6001805460ff60a01b191690557f5db9ee0a495bf2e6ff9c91a7834c1ba4fdd244a5e8aa4e537bd38aeae4b073aa335b6040516001600160a01b03909116815260200160405180910390a1565b600180546001600160a01b038381166001600160a01b0319831681179093556040519116919082907f8be0079c531659141344cd1fd0a4f28419497f9722a3daafe3b4186f6b6457e090600090a35050565b611a38611931565b6001805460ff60a01b1916600160a01b1790557f62e78cea01bee320cd4e420270b5ea74000d11b0c9f74754ebdbfc544b05a2586119c13390565b600154600160a01b900460ff16610c6657604051638dfc202b60e01b815260040160405180910390fd5b828054828255906000526020600020908101928215611ad8579160200282015b82811115611ad8578251825591602001919060010190611abd565b50611ae4929150611ae8565b5090565b5b80821115611ae45760008155600101611ae9565b60008060008060808587031215611b1357600080fd5b843593506020850135925060408501358015158114611b3157600080fd5b9396929550929360600135925050565b60008083601f840112611b5357600080fd5b50813567ffffffffffffffff811115611b6b57600080fd5b6020830191508360208260051b8501011115611b8657600080fd5b9250929050565b80356001600160a01b0381168114611ba457600080fd5b919050565b600080600080600060608688031215611bc157600080fd5b853567ffffffffffffffff80821115611bd957600080fd5b611be589838a01611b41565b90975095506020880135915080821115611bfe57600080fd5b50611c0b88828901611b41565b9094509250611c1e905060408701611b8d565b90509295509295909350565b600060208284031215611c3c57600080fd5b5035919050565b60008151808452602080850194506020840160005b83811015611c7457815187529582019590820190600101611c58565b509495945050505050565b60208152600060018060a01b0380845116602084015280602085015116604084015250604083015160a06060840152611cbb60c0840182611c43565b90506060840151601f19848303016080850152611cd88282611c43565b9150506080840151151560a08401528091505092915050565b600060208284031215611d0357600080fd5b611d0c82611b8d565b9392505050565b6001600160a01b039384168152919092166020820152604081019190915260600190565b634e487b7160e01b600052601160045260246000fd5b80820180821115611d6057611d60611d37565b92915050565b634e487b7160e01b600052603260045260246000fd5b81835260006001600160fb1b03831115611d9557600080fd5b8260051b80836020870137939093016020019392505050565b604081526000611dc2604083018688611d7c565b8281036020840152611dd5818587611d7c565b979650505050505050565b600060018201611df257611df2611d37565b506001019056fea2646970667358221220699d375aeae25083a1fe07bee066e7b6c17edfaad8278033d14decd3365a22f164736f6c63430008180033",
  "linkReferences": {},
  "deployedLinkReferences": {}
}